:100000000C940B010C9433010C9433010C9488195B
:100010000C94B2190C94DC190C9433010C947625D1
:100020000C9433010C9433010C9433010C9441155E
:100030000C9433010C9433010C9433010C94330170
:100040000C94D31D0C9433010C94F2200C94442195
:100050000C9433010C9433010C9433010C94330150
:100060000C948D170C943301084AD73B3BCE016E9C
:1000700084BCBFFDC12F3D6C74319ABD56833DDAFF
:100080003D00C77F11BED9E4BB4C3E916BAAAABE0E
:10009000000000803F07634236B79BD8A71A396833
:1000A0005618AEBAAB558C1D3CB7CC5763BD6DED41
:1000B000FD753EF6177231BF000000803F0800005A
:1000C00000BE922449123EABAAAA2ABECDCCCC4C8B
:1000D0003E00000080BEABAAAAAA3E00000000BFFE
:1000E000000000803F0000000000084178D3BB43BF
:1000F00087D1133D190E3CC3BD4282AD2B3E68EC47
:100100008276BED98FE1A93E4C80EFFFBE01C4FFCD
:100110007F3F000000000000C2010001001100113B
:10012000000C0000E100000A00250025002100006D
:100130009600001900390039003600127A00001FBD
:10014000004600460044008070000022004D004D33
:10015000004A00004B000036007500750072004038
:100160003800004A009C009C009900802500007225
:1001700000EC00EC00E900C0120000E900DA01DA4E
:1001800001D70160090000D701B603B603B303B07D
:10019000040000B3036E076E076B07580200006E81
:1001A00007DC0EDC0ED80E2C010000DC0EC11DC1D8
:1001B0001DBE1D00000000240027002A00000000D2
:1001C00000250028002B0000000000230026002945
:1001D00000040404040404040402020202020203F0
:1001E00003030303030102040810204080010204FA
:1001F000081020010204081020000000070002017E
:1002000000000304060000000000000000027C0162
:100210003916B322750111241FBECFEFD8E0DEBF1F
:10022000CDBF11E0A0E0B1E0E0EBFAE502C005903F
:100230000D92AA39B107D9F714E0AAE9B1E001C0DB
:100240001D92A53DB107E1F712E0C4E1D2E004C080
:100250002297FE010E94472DCE30D107C9F70E9498
:100260000A230C944B2D0C9400008130910579F5F4
:100270006F5F7F4FC9F58AE991E00E94831185ED98
:1002800091E00E94370B89ED91E00E94DC118BEE2A
:1002900091E00E94BF1088EF91E00E94E7138CEF7D
:1002A00091E00E94FE0A86E092E00E94440F8AE0FC
:1002B00092E00E94380F8FE092E00E943B0B8FE4A7
:1002C00092E062E048E020E00E94701C0895892BD3
:1002D00059F46F5F7F4F41F48FE492E00E94F81A67
:1002E0008BEE91E00E946210089580E090E06FEF45
:1002F0007FEF0E943501089581E090E06FEF7FEF7E
:100300000E943501089510926F028AE994E00E94DC
:100310000622181619065CF481E080936F02109291
:1003200070028AE994E00E943A228093DD028FE411
:1003300092E00E94221B181619065CF481E080935B
:100340006F02809370028FE492E00E94011B809301
:10035000DD020895682F80917002882329F08FE4D0
:1003600092E00E943C1B08958AE994E00E94732267
:10037000089560936B0270936C0280936D0290936A
:100380006E0280916B020E94AA0180916C020E9411
:10039000AA0180916D020E94AA0180916E020E94C2
:1003A000AA010895EF92FF920F931F93CF93DF93CB
:1003B0008B017A01E9018630910509F453C1873038
:1003C000910594F48230910509F44BC08330910576
:1003D0003CF4009709F465C1019709F089C123C075
:1003E00005970CF459C06DC08131910509F4CAC05C
:1003F0008231910564F48F30910509F4A3C08031F6
:1004000091050CF08CC0079709F072C145C08E3180
:10041000910509F44FC18F31910509F453C14597F6
:1004200009F066C1DFC088EF91E00E94690F90E09B
:100430008017910729F088EF91E0602F0E946F0FDD
:1004400088EF91E00E94E2137B018C018AE994E03D
:10045000B801A70122E030E00E941825C801B701C9
:1004600045C189ED91E00E94690F90E080179107E6
:1004700041F489ED91E00E946C0F90E08E159F058C
:1004800031F089ED91E0602F4E2D0E94B61189ED7B
:1004900091E00E9424132AC186E092E00E94690F35
:1004A00090E080179107B1F186E092E0602F0E9402
:1004B0006F0F86E092E00E94950F60E00E946F1F30
:1004C00029C086E092E00E94690F90E080179107B2
:1004D00099F086E092E0602F0E946F0F86E092E034
:1004E0000E94920F60E00E946F1F86E092E00E94DF
:1004F000950F60E00E946F1F81E0E816F10429F477
:1005000086E092E00E94B20FE9C082E0E816F104B2
:1005100009F0EEC086E092E00E94AD0FDFC08AE0F5
:1005200092E00E94690F90E08017910729F08AE01D
:1005300092E0602F0E946F0F6091DC0270E080E01B
:1005400090E01DC086E092E00E94690F90E0801765
:10055000910761F086E092E0602F0E946F0F86E0C5
:1005600092E00E94950F60E00E946F1F86E092E08B
:100570000E94DD0F90E0A0E0B0E0BC01CD010E9440
:100580009529B4C086E092E00E94690F90E0801740
:10059000910799F086E092E0602F0E946F0F86E04D
:1005A00092E00E94920F60E00E946F1F86E092E04E
:1005B0000E94950F60E00E946F1F86E092E00E940B
:1005C000F10FE82E86E092E00E94DD0FFF24EE0C92
:1005D000FF1CE80EF11C0027F7FC0095102FC80146
:1005E000B70182C086E092E00E94690F90E0801718
:1005F000910741F486E092E00E946C0F90E08E1526
:100600009F0531F086E092E0602F4E2D0E947F0F13
:1006100081E0E816F10461F486E092E00E94920F16
:1006200062E00E946F1F86E092E00E94F10F0BC013
:1006300086E092E00E94950F62E00E946F1F86E0C4
:1006400092E00E94DD0F90E0A0E0B0E0BC01CD019F
:100650000E949529E62F2E2F372F482F592FB901A9
:10066000CA0144C08FE092E00E94D60C81E0E816F7
:10067000F10429F48FE092E00E94AD0B37C082E0D4
:10068000E816F10429F48FE092E00E94690B2EC075
:1006900083E0E816F10461F58FE092E00E943C0BE4
:1006A00025C06091220170912301809124019091D5
:1006B00025011CC0822F60E00E946F1F8C2F0E94BA
:1006C00002200CC0CC0FDD1FCE5EDE4F1881812FC3
:1006D00060E00E946F1F812F0E94ED1EAA2797FDE8
:1006E000A095BA2FBC01CD010E9497290E94B901A3
:1006F000DF91CF911F910F91FF90EF90089580911E
:100700007002882319F08FE492E002C08AE994E035
:100710000E94452308952F923F924F925F926F92CD
:100720007F928F929F92AF92BF92CF92DF92EF9281
:10073000FF920F931F93DF93CF93CDB7DEB76197EF
:100740000FB6F894DEBF0FBECDBF1092DB029091C2
:100750007002992319F08091A70202C08091730260
:10076000823009F45CC0843009F443C4813009F05C
:100770006CC4992319F08091A90202C0809175027E
:100780008823D1F48AE994E060E071E00E942B258F
:100790008FEF0E94AA0185E50E94AA018AEF0E94BC
:1007A000AA0160912201709123018091240190910E
:1007B00025010E94B90130C0992319F02091AA02A5
:1007C00002C020917602022F10E08FEF0E94AA0152
:1007D00085E50E94AA0180917002882319F080911A
:1007E000AB0202C0809177020E94AA018091700240
:1007F000882319F08091A90202C080917502B80186
:10080000E4E076956795EA95E1F7A8014F7050709E
:1008100090E098010E94D2010E947F0316C49923A0
:1008200019F08091A80202C080917402282F30E054
:100830003D832C8354E0252E312CD2C3F0907002DE
:10084000FF2021F0F101EB55FD4F03C0F101EF58FE
:10085000FD4F8081282F30E0C1010196FF2021F05B
:10086000FC01EB55FD4F03C0FC01EF58FD4F00812B
:10087000402E5524620144E0D694C7944A95E1F78E
:100880001C010894211C311C2830310509F0BBC023
:10089000F1013196FF2029F085EA92E0280E391EF9
:1008A00004C021E732E0220E331ED101BC91BB838C
:1008B0008F010F5F1F4FFF2019F0EB55FD4F02C056
:1008C000EF58FD4F608170E080E090E00E94952934
:1008D0006A877B878C879D87F8013196FA83E98345
:1008E000FF2029F00B551D4FD8016C9104C00F5803
:1008F0001D4FF801608170E080E090E00E94952932
:100900006E837F8388879987FF2029F0E981FA81A8
:10091000EB55FD4F04C0E981FA81EF58FD4F60812E
:1009200070E080E090E00E9495291B012C018BEE85
:1009300091E00E94690F90E08C159D0529F08BEEE7
:1009400091E06C2D0E948910FB81FF2319F4198A14
:10095000188A45C02B8121502B836A857B858C8525
:100960009D850E9469293B014C016E817F818885AC
:1009700099850E9469295B016C01C201B1010E9445
:1009800069297B018C018BEE91E06B81462D2A2D2C
:100990000E2D0E9408102DC06A857B858C859D8553
:1009A0000E9469293B014C016E817F818885998570
:1009B0000E9469295B016C01C201B1010E94692991
:1009C0007B018C018BEE91E06889462D2A2D0E2D3E
:1009D0000E940810888999890196998B888B8BEEE3
:1009E00091E00E94051090E0A889B989A817B9077D
:1009F0009CF229803A800894211C311C8BEE91E0F6
:100A00000E943310EDC22A30310509F053C0D101E4
:100A10001196FF2029F0E5EAF2E02E0E3F1E04C0F9
:100A200021E732E0220E331EF101608160936B02F8
:100A3000FD013196FF2019F0AB55BD4F02C0AF58F4
:100A4000BD4F8C9180936C02BF016F5F7F4FFF2081
:100A500019F0EB55FD4F02C0EF58FD4F8081809398
:100A60006D02FF2021F0FB01EB55FD4F03C0FB01A0
:100A7000EF58FD4FE0811B010894211C311CE093CD
:100A80006E02E0906B02F0906C0200916D0210918A
:100A90006E0285ED91E06C2D0E946F0FC801B701C9
:100AA0000E9464299B01AC0185ED91E0B9010E948F
:100AB000010B96C22930310509F055C0D1011196BC
:100AC000FF2019F025EA32E002C021E732E0220ED1
:100AD000331EF101608160936B02FD013196FF20AE
:100AE00019F0AB55BD4F02C0AF58BD4F8C918093EC
:100AF0006C022F010894411C511CFF2019F0EB558A
:100B0000FD4F02C0EF58FD4F808180936D02FF20A2
:100B100021F0F201EB55FD4F03C0F201EF58FD4FFC
:100B2000E081E0936E02E0906B02F0906C02009125
:100B30006D0210916E028CEF91E00E94690F90E0BF
:100B40008C159D0529F08CEF91E06C2D0E948C098D
:100B500012010894211C311C8CEF91E0B801A7010F
:100B60000E94740A3DC22B30310509F060C0D101EA
:100B70001196FF2019F025EA32E002C021E732E0A9
:100B8000220E331EF101608160936B02FD013196EC
:100B9000FF2019F0AB55BD4F02C0AF58BD4F8C912F
:100BA00080936C02BF016F5F7F4FFF2019F0EB5500
:100BB000FD4F02C0EF58FD4F808180936D02FF20F2
:100BC00021F0FB01EB55FD4F03C0FB01EF58FD4F3A
:100BD000E0811B010894211C311CE0936E0282010C
:100BE0000F7010708AE991E06C2D402F0E94980FD1
:100BF000682F8AE991E070E00E9403118AE991E090
:100C00006C2D402F0E94980F182F60916B027091ED
:100C10006C0280916D0290916E020E9464299B018A
:100C2000AC018AE991E0612F70E0422F7DC1233051
:100C3000310521F02431310509F05DC0D101119653
:100C4000FF2019F025EA32E002C021E732E0220E4F
:100C5000331EF101608160936B02FD013196FF202C
:100C600019F0AB55BD4F02C0AF58BD4F8C9180936A
:100C70006C028F010F5F1F4FFF2019F0EB55FD4FE6
:100C800002C0EF58FD4F808180936D02FF2021F05C
:100C9000F801EB55FD4F03C0F801EF58FD4FE0811F
:100CA000E0936E0286E092E00E94690F90E08C155E
:100CB0009D0529F086E092E06C2D0E946F0F1801CF
:100CC0000894211C311C10E060916B0270916C0241
:100CD00080916D0290916E0220E030E040E85FE389
:100CE0000E94C12A88230CF011E086E092E0612F77
:100CF0000E94CA0F75C12E31310509F053C0D101D0
:100D00001196FF2019F025EA32E002C021E732E017
:100D1000220E331EF101608160936B02FD0131965A
:100D2000FF2019F0AB55BD4F02C0AF58BD4F8C919D
:100D300080936C02BF016F5F7F4FFF2019F0EB556E
:100D4000FD4F02C0EF58FD4F808180936D02FF2060
:100D500021F0FB01EB55FD4F03C0FB01EF58FD4FA8
:100D6000E0811B010894211C311CE0936E02802F4E
:100D700061E00E946F1F10E060916B0270916C0245
:100D800080916D0290916E0220E030E040E85FE3D8
:100D90000E94C12A88230CF011E0802F612F0E944D
:100DA000AE1F1EC1C9014F97029708F04DC0D10177
:100DB0001196FF2019F025EA32E002C021E732E067
:100DC000220E331EF101608160936B02FD013196AA
:100DD000FF2019F0AB55BD4F02C0AF58BD4F8C91ED
:100DE00080936C02BF016F5F7F4FFF2019F0EB55BE
:100DF000FD4F02C0EF58FD4F808180936D02FF20B0
:100E000021F0FB01EB55FD4F03C0FB01EF58FD4FF7
:100E1000E0811B010894211C311CE0936E02802F9D
:100E200061E00E946F1F60916B0270916C02809173
:100E30006D0290916E020E9464299B01AC01802F8B
:100E4000B9010E940F1FCCC02132310509F06FC0DB
:100E5000D1011196FF2019F025EA32E002C021E706
:100E600032E0220E331EF101608160936B02FD01BE
:100E70003196FF2019F0AB55BD4F02C0AF58BD4FA2
:100E80008C9180936C026F010894C11CD11CFF20CF
:100E900019F0EB55FD4F02C0EF58FD4F8081809354
:100EA0006D02FF2021F0F601EB55FD4F03C0F60166
:100EB000EF58FD4FE081E0936E0280916B029091BC
:100EC0006C02A0916D02B0916E0280932601909306
:100ED0002701A0932801B09329018AE991E0B2018A
:100EE0000E940311E0902601F09027010091280153
:100EF00010912901C801B70120E030E040E050E046
:100F00000E94C12A18161CF4C801B70103C0C80109
:100F1000B70190580E946929462F16010894211C98
:100F2000311C8AE991E0B2010E94CC1059C02232F2
:100F3000310509F055C0F1013196FF2019F025EA7D
:100F400032E002C021E732E0220E331ED1016C9163
:100F500060936B02DF011196FF2019F0EB55FD4FF6
:100F600002C0EF58FD4F808180936C02FD013196E5
:100F7000FF2019F0AB55BD4F02C0AF58BD4F8C914B
:100F800080936D021F010894211C311CFF2019F071
:100F9000EB55FD4F02C0EF58FD4F208120936E02AC
:100FA00090916C0230916B02BFEF2B9FF0011124E6
:100FB00080916D02E80FF11D309779F09F871E86B2
:100FC0006E857F85630F711D9F01442737FD409516
:100FD000542F802F0E94D22503C0802F0E945F25AE
:100FE000C1010397EC81FD81E817F9070CF026CCCD
:100FF0002CC085ED91E069E00E946F0F85ED91E0D6
:1010000060E070E00E94010B85ED91E06AE00E94D3
:101010006F0F85ED91E060E070E00E94010B85EDBF
:1010200091E061E00E946F0F85ED91E060E070E07B
:101030000E94010B85ED91E062E00E946F0F85ED4B
:1010400091E060E070E00E94010B61960FB6F894A9
:10105000DEBF0FBECDBFCF91DF911F910F91FF90EB
:10106000EF90DF90CF90BF90AF909F908F907F9048
:101070006F905F904F903F902F9008958AE092E09C
:101080000E94240F882371F08AE092E00E94130FDF
:10109000181619064CF48AE092E00E94E00E809344
:1010A000DC0202C01092DC020E94830180916F0278
:1010B000882309F44FC02091DD02253571F4809119
:1010C000DB02882351F48091DE028F3F31F581E00D
:1010D0008093D9028093DB0220C02093DE028091AE
:1010E000DB028823D1F09091D902933019F4209338
:1010F000DA0207C0943028F08091DA0281508093A0
:10110000DA02E92FF0E080917002882319F0EB55A4
:10111000FD4F02C0EF58FD4F20838091D9028F5FB1
:101120008093D902843320F01092D9021092DB020E
:101130008091DB02882371F08091DA02882351F4D8
:101140008091D902843030F01092DB020E948B0330
:101150001092D90208958DE061E00E946F1F8DE02A
:1011600061E00E94AE1F6CE271E080E090E00E94BE
:101170004F1E8DE060E00E94AE1F8AE994E040E0DF
:1011800052EC61E070E00E947F218FE492E040E841
:1011900055E260E070E00E94061A08952F923F9297
:1011A0004F925F926F927F928F929F92AF92BF9277
:1011B000CF92DF92EF92FF920F931F93CF93DF9323
:1011C0001A012B01E90137FD44C02196BE01882791
:1011D00077FD8095982F21970E9497299B01AC015C
:1011E00060E070E080E291E40E942F2B5B016C01D3
:1011F000C201B101A60195010E94FC280E94D229DA
:101200003B014C01BE01882777FD8095982F0E94F5
:1012100097299B01AC0160E070E080E291E40E94BC
:101220002F2B7B018C01C401B301A60195010E9403
:10123000CC2A9B01AC01C201B1010E943128A80156
:1012400097010E94FC280E94D2290E946429CB01A8
:101250001CC000271127021B130BC0E0D0E0C20105
:10126000B10120E030E040E251E40E94CC2A1B01B1
:101270002C012196C017D10794F30E946429DC0148
:10128000CB016AE070E00E94E12CDF91CF911F91C9
:101290000F91FF90EF90DF90CF90BF90AF909F9015
:1012A0008F907F906F905F904F903F902F90089518
:1012B0000F931F938C01FC01808560E00E94AE1F9C
:1012C000F801818560E00E94AE1FF801808561E031
:1012D0000E94AE1FF801818561E00E94AE1F1F9140
:1012E0000F9108950F931F938C01FC01808561E09D
:1012F0000E94AE1FF801818561E00E94AE1FF801D7
:10130000818560E00E94AE1FF801808560E00E9448
:10131000AE1F1F910F9108950F931F938C01E62F1D
:10132000DC0112966C931297F0E0EE0FFF1FE65D62
:10133000FE4F818111968C93119790819C93189602
:101340008C93189719969C9361E00E946F1FF80187
:10135000818561E00E946F1F80E4D80114968C9310
:10136000149780EC15968C9315978AE816968C93B3
:101370001F910F910895FF920F931F93CF93DF93C7
:10138000EC01162FFF24888560E00E94AE1F012F1C
:10139000112707FD109500FF03C0898561E002C099
:1013A000898560E00E94AE1F888561E00E94AE1FC3
:1013B000F39488E0F81621F015950795102FE3CFE8
:1013C000888560E00E94AE1F898561E00E94AE1FA3
:1013D000888561E00E94AE1F898560E00E946F1FD2
:1013E0000BC01F5F183C49F4898561E00E946F1FA4
:1013F000898560E00E94AE1F10E089850E9402206E
:10140000892B79F7898561E00E946F1FDF91CF9169
:101410001F910F91FF9008950F931F93DF93CF9328
:1014200000D000D0CDB7DEB78C0120E030E0AE01B7
:101430004F5F5F4FFA01E20FF31FDB01A20FB31FF3
:101440008C9180832F5F3F4F2430310599F7DA016B
:101450009E012B5F3F4FEC91EF3711F41C9207C0B8
:10146000FF27E7FDF095E85BFE4F80818C93119696
:10147000A217B30781F7C8010E947209C80160E48E
:101480000E94BB09C8010E945809C8010E94720944
:10149000C801F80165810E94BB09C80169810E94E9
:1014A000BB09C8016A810E94BB09C8016B810E9407
:1014B000BB09C8016C810E94BB09C8010E94580980
:1014C000C8010E947209C801F80166810E94BB0927
:1014D000C8010E9458090F900F900F900F90CF9164
:1014E000DF911F910F9108952F923F924F925F923B
:1014F0006F927F929F92AF92BF92CF92DF92EF92C4
:10150000FF920F931F93DF93CF9300D000D0CDB7FE
:10151000DEB73C017A018B0119821A821B821C8280
:10152000CB01BA0120E030E040E050E00E94F82812
:1015300087FD03C0AA24BB2409C017FB109517F927
:10154000109580E2898331E0A32EB12CCC24DD24D8
:10155000992423E0222E312C2E010894411C511C89
:1015600091012C193D09C301B801A7010E94CE08C1
:10157000181619063CF023E0C216D10439F0992060
:10158000B1F00EC023E0C216D10441F4F201EA0D1D
:10159000FB1D805F80839924939406C099249394C3
:1015A000F201EA0DFB1D80830894A11CB11C84E0AC
:1015B000A816B1043CF40894C11CD11C27E0C21643
:1015C000D10471F6C301BE016F5F7F4F0E940C0A08
:1015D0000F900F900F900F90CF91DF911F910F916F
:1015E000FF90EF90DF90CF90BF90AF909F907F9053
:1015F0006F905F904F903F902F9008950E943B0F07
:101600000895EF92FF920F931F93CF93DF93F82EDD
:10161000E92EEB016F3F710519F014F0CFEFD0E028
:101620008E018FEFC130D8071CF401E01FEF0BC013
:10163000D7FD09C08F2D9E2D61E00E94B70F8F2D21
:101640009E2DBE010BC08F2D9E2D60E00E94B70F16
:1016500066277727601B710B8F2D9E2D0E94A80F88
:10166000DF91CF911F910F91FF90EF90089560E06F
:101670000E944D0F08950895EF92FF920F931F93CC
:10168000FC01E08CF18C028D138DC801B70120E0C4
:1016900030E040E050E00E94F828882329F4E0E0A0
:1016A00070E080E060E00AC0C801B70120E030E0EF
:1016B00040E251E40E94FC28E62F692F2E2F372F9D
:1016C000482F562FB901CA011F910F91FF90EF903B
:1016D0000895EF92FF920F931F93CF93DF93FC0136
:1016E000C0A1D1A1209729F4E0E070E080E060E0A3
:1016F00027C0668D778D882777FD8095982F0E946B
:1017000097297B018C01BE01882777FD8095982F52
:101710000E9497299B01AC01C801B7010E94FC28D7
:101720000E94D02820E030E044E353E40E94CC2A19
:101730002AED3FE049E450E40E94FC28E62F692F9F
:101740002E2F372F482F562FB901CA01DF91CF9185
:101750001F910F91FF90EF900895EF92FF920F93DA
:101760001F93CF93DF93FC01C0A1D1A1209729F44F
:10177000E0E070E080E060E027C0648D758D882730
:1017800077FD8095982F0E9497297B018C01BE01DF
:10179000882777FD8095982F0E9497299B01AC019F
:1017A000C801B7010E94FC280E94D02820E030E048
:1017B00044E353E40E94CC2A2AED3FE049E450E49C
:1017C0000E94FC28E62F692F2E2F372F482F562FE7
:1017D000B901CA01DF91CF911F910F91FF90EF9056
:1017E0000895EF92FF921F93CF93DF93162F7A0104
:1017F000E9018BE493E068E670E00E94FF158BE45A
:1018000093E0612F0E948116019719F02CEE3FEFB3
:1018100013C08BE493E0B701AE010E9450168C1701
:101820009D0719F02BEE3FEF07C08BE493E061E0DA
:101830000E94B116282F30E0C901DF91CF911F918E
:10184000FF90EF900895DF93CF930F92CDB7DEB75F
:101850004983AE014F5F5F4F21E030E00E94F10B02
:101860000F90CF91DF910895AF92BF92CF92DF9208
:10187000EF92FF920F931F937C016BE670E040E0C4
:101880000E94230C5C01C7016AE170E041E00E9404
:10189000230C8C01C7016BE170E048E00E94230C2F
:1018A0006C0160E070E08AE794E4F70126A537A5B3
:1018B00040A951A90E94FC2820E030E040E85FE305
:1018C0000E9431280E9469299B01AC01C70169E18E
:1018D00070E0422F0E94230C0A0D1B1D0C0D1D1DD4
:1018E000080F191FC8011F910F91FF90EF90DF9013
:1018F000CF90BF90AF900895CF92DF92EF92FF927A
:101900000F931F93CF93DF93162F6A0179018BE416
:1019100093E068E670E00E94FF158BE493E0612F8E
:101920000E948116019719F006EF1FEF35C08BE476
:1019300093E060E00E94B116082F10E00115110538
:1019400059F581E090E00E94A81E8BE493E068E6E0
:1019500070E0A70121E030E00E94D116C0E0D0E0A5
:101960008BE493E00E940916892B69F0CE15DF0500
:1019700054F48BE493E00E941216F601EC0FFD1F65
:1019800080832196EDCF81E090E00E94A81ECE15C5
:10199000DF0511F005EF1FEFC801DF91CF911F9117
:1019A0000F91FF90EF90DF90CF9008952F923F928C
:1019B0004F925F926F927F928F929F92AF92BF925F
:1019C000CF92DF92EF92FF920F931F93DF93CF930B
:1019D000CDB7DEB762970FB6F894DEBF0FBECDBFAE
:1019E0009A8B898B0E941B1E89899A890E94340CCC
:1019F000892B09F0CCC149895A894E5C5F4F89898E
:101A00009A896BE370E02EE030E00E947C0C882322
:101A100009F0BDC1A989BA89D2969C91D29780E07C
:101A2000D3966C90D3977724682A792A5D967C9216
:101A30006E925C97D4969C91D49780E0D596AC90AA
:101A4000D597BB24A82AB92A5F96BC92AE925E971E
:101A5000D6969C91D69780E0D7962C90D797332432
:101A6000282A392A91963C922E929097DA967C9168
:101A7000DA9760E0DB962C9130E0622B732B88279D
:101A800077FD8095982F0E949729E989FA8922A1EC
:101A900033A144A155A10E943128A989BA892D9169
:101AA0003D914D915C910E94FC286D837E838F83D4
:101AB0009887E989FA89608B718B828B938B74ADDF
:101AC00060E025AD30E0622B732B882777FD809591
:101AD000982F0E949729A989BA8996962D913D91B0
:101AE0004D915C9199970E943128E989FA8920816A
:101AF0003181428153810E94FC2869877A878B87D4
:101B00009C87A989BA8954966D937D938D939C93F4
:101B10005797DE967C91DE9760E0DF962C9130E05F
:101B2000622B732B882777FD8095982F0E94972929
:101B3000E989FA8922A533A544A555A50E94312833
:101B40007B018C01A989BA896D917D918D919C91C0
:101B500020E030E040E85FE30E9432289B01AC01C6
:101B6000C801B7010E94FC286D877E878F87988BFC
:101B7000E989FA89608F718F828F938F882477FC2F
:101B80008094982CC401B3010E9497293B014C0119
:101B9000CC24B7FCC094DC2CC601B5010E94972967
:101BA00069837A838B839C839B01AC010E94CC2A3E
:101BB0007B018C01442437FC4094542CC201B101B8
:101BC0000E9497299B01AC010E94CC2A5B016C0109
:101BD000C801B701A60195010E9432280E947F2BFF
:101BE0009B01AC01C401B3010E94A5281B012C017B
:101BF000C401B301A40193010E94CC2A9B01AC0152
:101C0000CA01A60195010E9432280E947F2B9B01E8
:101C1000AC0169817A818B819C810E94A5283B015E
:101C20004C016D817E818F819885A989BA899E96A4
:101C30002D913D914D915C91D1970E94FC289B0183
:101C4000AC01E989FA8964817581868197810E9456
:101C500032287B018C01A989BA8914966D937D93F2
:101C60008D939C93179769857A858B859C859E9625
:101C70002D913D914D915C91D1970E94FC289B0143
:101C8000AC01E989FA8960857185828593850E9416
:101C900031285B016C01A989BA8918966D937D93EF
:101CA0008D939C931B976D857E858F8598899E96D5
:101CB0002D913D914D915C91D1970E94FC289B0103
:101CC000AC01E989FA8964857585868597850E94C6
:101CD0003228A989BA891C966D937D938D939C9324
:101CE0001F97C801B7012FE832EC45E75FE30E9478
:101CF000CC2A7B018C01C401B30120E030E044E335
:101D000053E40E94CC2A2BED3FE049E450E40E94CA
:101D1000FC282AE037ED43E25DE30E94CC2A9B01D8
:101D2000AC01C801B7010E943228E989FA896483AD
:101D3000758386839783C601B5012FE832EC45E7AA
:101D40005FE30E94CC2A7B018C01C201B10120E03B
:101D500030E044E353E40E94CC2A2BED3FE049E419
:101D600050E40E94FC282AE037ED43E25DE30E9444
:101D7000CC2A9B01AC01C801B7010E943228A98975
:101D8000BA8918966D937D938D939C931B97629659
:101D90000FB6F894DEBF0FBECDBFCF91DF911F917C
:101DA0000F91FF90EF90DF90CF90BF90AF909F90FA
:101DB0008F907F906F905F904F903F902F900895FD
:101DC000FC01848114820895EF92FF921F93CF93B8
:101DD000DF937C01FC0181810E940220892B11F09C
:101DE00010E01AC010E0C0E0D0E085E690E00E946C
:101DF000A81EF70181810E9402200C2E02C0880FCC
:101E0000991F0A94E2F7182B2196C830D10569F77B
:101E100085E690E00E94A81E812FDF91CF911F914F
:101E2000FF90EF900895CF93DF93EC010E94E40EB2
:101E300018161CF020E030E003C08C8321E030E075
:101E4000C901DF91CF9108950F931F93182F092F88
:101E50000E94690F882311F490E006C0812F902F13
:101E60000E94F10F91E09827892F1F910F910895FB
:101E70000E943B0F0895FC0180912A01808380918C
:101E80002B01818312820895FC0180912A018083B5
:101E900080912B01818312820895DC01E62FF0E00E
:101EA000EE0FFF1FE65DFE4F80818C9381811196BE
:101EB0008C93119712966C9381E0809380008BE055
:101EC0008093810083E08093B00084E08093B10030
:101ED0000895FC0182810895FC0183810895DC014D
:101EE000E62FF0E0EE0FFF1FE65DFE4F80818C9342
:101EF000818111968C93119712966C930895DC0151
:101F0000E62FF0E0EE0FFF1FE65DFE4F80818C9321
:101F1000818111968C93119712966C931297139658
:101F20004C930895FC0180810895FC0181810895FE
:101F3000E62FF0E0413031F4EE0FFF1FE65DFE4F7B
:101F400080810895EE0FFF1FE65DFE4F81810895A9
:101F5000FC0180810E940F1F0895FC0181810E9475
:101F6000ED1E0895FC0180810E94ED1E0895FF92F0
:101F70000F931F938C01F62EFC01818161E00E947A
:101F80006F1FF80181816F2D0E94AE1F1F910F916D
:101F9000FF900895FF920F931F938C01F62EFC0182
:101FA000808161E00E946F1FF80180816F2D0E9487
:101FB000AE1F1F910F91FF9008950F931F938C01F7
:101FC000FC01818160E00E946F1FF80181810E9405
:101FD000022020E0892B09F021E0822F1F910F9130
:101FE00008950F931F938C01FC01808160E00E9493
:101FF0006F1FF80180810E94022020E0892B09F0E8
:1020000021E0822F1F910F910895FC018481089592
:102010000F93DC01522F262F30E014968D919C9166
:1020200015972817390710F080E01BC083E0689FE0
:10203000802D112490E01696ED91FC911797E80FF2
:10204000F91F50831696ED91FC911797E80FF91F31
:1020500041831696ED91FC911797E80FF91F0283C3
:1020600081E00F910895CF93DF93FC01C681D78162
:10207000848195819C01220F331F280F391F94857D
:10208000A085B1855FB7F8948C91492F409548237E
:10209000982B11C0899168E09C9300C087FF4C93F6
:1020A000880F00C000C000C008F44C9300C06A95BF
:1020B00099F7215030402115310561F75FBFDF915D
:1020C000CF9108950895CF93DF93EC0170E07D8365
:1020D0006C83CB01880F991F860F971F0E949E1C4F
:1020E0008E839F8340E050E007C0EE81FF81E40FC4
:1020F000F51F10824F5F5F4F2C813D81C901880F12
:10210000991F820F931F4817590778F3DF91CF91DA
:102110000895DC01E62F12966C931297F0E0EE0F13
:10212000FF1FE65DFE4F818111968C931197908180
:102130009C93282F30E0F901EB51FE4FE4911C965F
:10214000EC931C972F523E4FF901249130E0220F5F
:10215000331FF901E354FE4F4591549119965C9356
:102160004E931897F901ED54FE4F259134911B962B
:102170003C932E931A9761E00E946F1F08950F936E
:102180001F938C0160E00E944D0FC80160E10E9426
:1021900063101F910F910895CF93DF93DC01159683
:1021A0004C93159716961C921697EC01FC0120E0B3
:1021B00030E0818992896817790739F02F5F3F4FA6
:1021C000329628303105A9F71BC020E030E089891C
:1021D0009A896817790741F02F5F3F4F2296283080
:1021E0003105A9F72FEF3FEFC901880F991F820F23
:1021F000931F83968A0F9B1F642F70E00E945314D5
:10220000DF91CF910895EF92FF920F931F93CF9399
:10221000DF93EC018B017C01FC0120E030E081893F
:1022200092890817190789F02F5F3F4F329628309F
:102230003105A9F75AC0FC01EE0FFF1FEC0FFD1F7F
:10224000128B018B01969AA389A3FE0120E030E056
:10225000818992890817190739F02F5F3F4F32960D
:1022600028303105A9F748C081E08C83802F61E0D8
:102270000E946F1FFE0120E030E0818992890817DB
:10228000190741F02F5F3F4F329628303105A9F7EB
:102290002FEF3FEFC901880F991F820F931F83967D
:1022A0008C0F9D1F0E944114882331F520E030E0FF
:1022B000F701818992890817190759F02F5F3F4F5D
:1022C00082E090E0E80EF91E2830310589F72FEF03
:1022D0003FEFC901880F991F820F931F83968C0FC0
:1022E0009D1FB8010E943A1507C089A19AA18830A4
:1022F00091050CF0AACF9FCFDF91CF911F910F9145
:10230000FF90EF900895EF92FF920F931F93CF935A
:10231000DF938C010E943B0FB3E2EB2EF12CE00E19
:10232000F11EC0E0D0E0C7018C0F9D1F0E94EB138F
:102330002396C831D105B9F7F801148210861782A7
:102340008AE590E0968385830E94291EF8016387C1
:10235000748785879687108A178612A211A2DF914B
:10236000CF911F910F91FF90EF9008951F93CF93FE
:10237000DF93EC01142F0E947F0F123011F4E981DA
:1023800001C0E8812E2F30E0C9018B519E4FFC0126
:1023900084918C832F523E4FF9018491E82FF0E015
:1023A000EE0FFF1FE953FE4F859194919E838D831D
:1023B000DF91CF911F9108950E943B0F0895DF9206
:1023C000EF92FF920F931F93FC01E0800181128135
:1023D000F894F80181818E2981838281DE2CD0944A
:1023E0008D21828383E090E00E94A81EF801818104
:1023F0008D21818382818E2982838AE090E00E94F0
:10240000A81EF8010081789485E390E00E94A81E40
:1024100080E010E0FF240E211F21012B09F081E054
:102420001F910F91FF90EF90DF900895EF92FF9230
:102430000F931F93CF93DF937C0101E010E0C0E086
:10244000D0E0C7010E94DF118111102B000F2196EF
:10245000C830D105B1F7812FDF91CF911F910F9136
:10246000FF90EF9008951F93CF93DF93FC011081AD
:10247000C181D281912F909560FF12C0F8948A811A
:1024800089238A838981812B89838AE090E00E9455
:10249000A81E8A81812B8A83789487E390E011C0FB
:1024A000F8948A8189238A838981812B898381E4B5
:1024B00090E00E94A81E8A81812B8A83789485E00F
:1024C00090E00E94A81EDF91CF911F910895CF92B6
:1024D000DF92EF92FF920F931F93CF93DF93EC0164
:1024E000E42EFF24F39400E010E0C62EDD2460E02B
:1024F0008F2D90E08C219D21892B09F061E0CE0188
:102500000E943312FF0C0F5F1F4F0830110579F73F
:10251000EE20B1F4F894E981FA8191818881809567
:1025200098239183E981FA8182819881892B828322
:10253000E981FA81928188818095982392837894A9
:10254000DF91CF911F910F91FF90EF90DF90CF908F
:1025500008956CEC40E00E9467120895DF92EF92BC
:10256000FF920F931F93CF93DF93FC010081C181F2
:10257000D281F8948981D02ED0948D2189838A814B
:10258000802B8A8378941DE7E02EFF24115071F18F
:1025900082E090E00E94A81E888190E08E219F2119
:1025A000892BA1F3F8948A818D218A838981802BDC
:1025B0008983789480EE91E00E94A81EF894898126
:1025C0008D2189838A81802B8A8386E490E00E9412
:1025D000A81E888110E090E0E822F922EF2809F493
:1025E00011E078948AE991E00E94A81E812FDF9182
:1025F000CF911F910F91FF90EF90DF900895EF9290
:10260000FF920F931F93FC01E08001811281F8017A
:1026100081819E2D90958923818382818E29828359
:102620008AE090E00E94A81EF801808120E090E0FE
:10263000FF248E219F21892B09F021E0822F1F91F9
:102640000F91FF90EF900895AF92BF92CF92DF92DB
:10265000EF92FF920F931F93DF93CF93CDB7DEB727
:102660002C970FB6F894DEBF0FBECDBF74E0E72EF7
:10267000F12CE80EF91EC7010E94AE12C7010E949C
:10268000A912C70164E440E00E9467120E941B1E69
:102690005B016C01C7010E94FF128823C1F50E94F3
:1026A0001B1E6A197B098C099D096E5E7240804071
:1026B000904068F5EFCFC7010E941612F801819390
:1026C0008F01EC15FD05B9F77A8160E0298130E0D2
:1026D000622B732B882777FD8095982F0E9497296E
:1026E00020E030E040E85DE30E94CC2A2C960FB653
:1026F000F894DEBF0FBECDBFCF91DF911F910F9138
:10270000FF90EF90DF90CF90BF90AF900895C701FA
:102710000E94AE12C7010E94A912C7016EEB40E0F1
:102720000E9467128E010F5F1F4F66E0C62ED12CEC
:10273000CC0EDD1EC0CFCF92DF92EF92FF920F93AF
:102740001F938C016A017B0160E00E94B70F82E059
:1027500090E00E94A81EC80161E00E94B70F8AE0C5
:1027600090E00E94A81EC80160E00E94B70FF80127
:10277000818160E00E946F1FF801818161E0A70103
:1027800096010E9455201F910F91FF90EF90DF90CE
:10279000CF90089527E330E0629FA001639F500D22
:1027A000729F500D112448535F4F60E070E00E940B
:1027B0009B130E94972920E030E048E652E40E94F3
:1027C000FC28089560E971E00E94CA13089560E052
:1027D0000E944D0F0895FC018091DF028C3090F42F
:1027E00080838F5F8093DF02815090E0FC01EE0FC9
:1027F000FF1FE80FF91FE052FD4F88EB9BE092832B
:10280000818308958FEF80830895FC0120812C300F
:10281000B8F58181992787FD909548E850E0481BDD
:10282000590B440F551F440F551F6417750784F04B
:102830008281992787FD909548E552E0481B590B06
:10284000440F551F440F551F641775070CF4AB0157
:1028500042505040CA01AA2797FDA095BA2F880F71
:10286000991FAA1FBB1F4FB7F89430E0F901EE0F74
:10287000FF1FE20FF31FE052FD4F928381834FBF92
:102880000895FC01808190E0FC01EE0FFF1FE80F2E
:10289000F91FE052FD4F8081829586958695817063
:1028A00009F081E00895AF92BF92CF92DF92EF924C
:1028B000FF920F931F93CF93DF93EC019B0182E074
:1028C000603278070CF048C077FF03C020E030E0AA
:1028D00005C0653B710514F024EB30E000D000D05A
:1028E000B901882777FD8095982F2981332727FD07
:1028F0003095E8E8AE2EB12CA21AB30AAA0CBB1C84
:10290000AA0CBB1CCC24B7FCC094DC2CEA81FF27AA
:10291000E7FDF09528E532E02E1B3F0B220F331F19
:10292000220F331F442737FD4095542FEDB7FEB7D4
:10293000218332834383548320E030E040E050E041
:1029400004EBE02EF12C012D112D0E94E8279B01B4
:102950000F900F900F900F90CE01B9010E940514B7
:10296000DF91CF911F910F91FF90EF90DF90CF906B
:10297000BF90AF900895CF92DF92EF92FF921F9396
:10298000CF93DF93EC01162F7A01690188818C3097
:1029900008F064C0862F61E00E946F1F888190E07C
:1029A000FC01EE0FFF1FE80FF91FE052FD4F1F73F0
:1029B0008081807C812B808380E292E08E199F0948
:1029C00064E070E00E94E12C698380E699E08C1954
:1029D0009D0964E070E00E94E12C6A83A8818A2F3F
:1029E0006CE00E94D52C682F70E0AB01440F551F9E
:1029F000460F571F440F551F440F551F20E030E06E
:102A0000C901840F951FFC01EE0FFF1FE80FF91F8E
:102A1000E052FD4F808186FD15C02F5F3F4F2C3067
:102A2000310571F724C01092800082E0809381000C
:102A30001092850010928400B19A80916F0082609C
:102A400080936F008A2F90E0FC01EE0FFF1FE80FCC
:102A5000F91FE052FD4F8081806480838881DF917F
:102A6000CF911F91FF90EF90DF90CF900895672B4B
:102A7000D1F2E8CF40E252E020E639E00E94BB14F8
:102A800008951F920F920FB60F9211242F933F9328
:102A90004F935F936F937F938F939F93AF93BF9366
:102AA000EF93FF938091040387FF05C01092850088
:102AB000109284002BC020910403332727FD30950A
:102AC0008091DF0290E02817390704F58091040314
:102AD000992787FD9095FC01EE0FFF1FE80FF91F66
:102AE000E052FD4F808186FF11C080910403992739
:102AF00087FD9095FC01EE0FFF1FE80FF91FE052D4
:102B0000FD4F80818F7360E00E94AE1F80910403AF
:102B10008F5F8093040320910403332727FD3095B2
:102B20008091DF0290E0281739070CF04EC08091A9
:102B300004038C300CF049C0209184003091850052
:102B400080910403992787FD9095FC01EE0FFF1FEC
:102B5000E80FF91FE052FD4F81819281280F391F44
:102B6000309389002093880080910403992787FD82
:102B70009095FC01EE0FFF1FE80FF91FE052FD4F8B
:102B8000808186FF2BC080910403992787FD909553
:102B9000FC01EE0FFF1FE80FF91FE052FD4F80818F
:102BA0008F7361E00E94AE1F19C080E49CE905C0EC
:102BB0008091840090918500049690938900809381
:102BC00088008FEF8093040309C080918400909166
:102BD0008500049680549C4940F3EACFFF91EF9121
:102BE000BF91AF919F918F917F916F915F914F9125
:102BF0003F912F910F900FBE0F901F90189581E07D
:102C000080934A036093270310924803109249036C
:102C100008952091260330E080912503281B310977
:102C2000C90108954091250380912603481718F0A3
:102C30002FEF3FEF0AC0E42FF0E0EB5FFC4F808105
:102C4000282F30E04F5F40932503C9010895E0919C
:102C5000250380912603E81718F0EFEFFFEF06C079
:102C6000F0E0EB5FFC4F8081E82FF0E0CF010895AA
:102C7000089510924E0310924D0388EE93E0A0E069
:102C8000B0E080934F0390935003A0935103B0930F
:102C900052038DE691E090934C0380934B0308958B
:102CA000CF92DF92EF92FF920F931F93CF93DF9318
:102CB0007C016B018A0180914A038823A1F0C0E066
:102CC000D0E00DC0D701ED91FC91D601AC0FBD1F36
:102CD0000190F081E02DC7016C9109952196C017F4
:102CE000D10780F304C0CB01642F0E947217C80182
:102CF000DF91CF911F910F91FF90EF90DF90CF90D8
:102D00000895DF93CF930F92CDB7DEB7FC016983AF
:102D100080914A038823C9F080914903803238F0BA
:102D200081E090E09383828320E030E015C08091C1
:102D30004803E82FF0E0E85DFC4F998190838F5FB6
:102D4000809348038093490305C0CE01019661E05A
:102D50000E94721721E030E0C9010F90CF91DF91FE
:102D600008950F93062F8091270368E273E0409146
:102D7000490321E00E941D17109248031092490355
:102D800010924A030F910895413208F040E2862FD5
:102D900065E073E00E94D416109225038093260309
:102DA00008950E94C4160895382F413210F040E073
:102DB00042C0809157038823E1F791E09093570335
:102DC000209359038FEF8093C40310927F034150E7
:102DD000409380034F5F9093580380915803330FC3
:102DE000832B8093580380915A03813041F41092D1
:102DF0005A03809158038093BB0085EC01C085EE97
:102E00008093BC00809157038130E1F380917F0370
:102E1000841710F440917F0320E030E00AC0FB01EA
:102E2000E20FF31FD901A15ABC4F8C9180832F5F11
:102E30003F4F2417A0F3842F08950F931F93582F0B
:102E4000122F413210F081E04AC08091570388234D
:102E5000E1F782E080935703009359038FEF80934B
:102E6000C40310927F0340938003AFE5B3E0FB01FE
:102E700002C081918D938E2F861B8417D0F3109200
:102E8000580380915803550F852B809358038091E8
:102E90005A03813041F410925A0380915803809371
:102EA000BB0085EC01C085EE8093BC00112321F0AE
:102EB000809157038230E1F38091C4038F3F11F476
:102EC00080E00DC08091C403803211F482E007C01D
:102ED0008091C403803311F084E001C083E01F912E
:102EE0000F910895482F613210F081E0089580918C
:102EF0005703843011F082E008956093A203A1E8A3
:102F0000B3E0842F9C01F90102C081918D938E2F33
:102F1000841B8617D0F380E008951F920F920FB69E
:102F20000F9211242F933F934F935F936F937F934F
:102F30008F939F93AF93BF93EF93FF938091B900CB
:102F400090E0887F90708036910509F4F2C0813658
:102F50009105CCF58832910509F47BC08932910541
:102F6000B4F48031910509F46FC0813191053CF4CE
:102F7000009709F447C1089709F04FC165C088312F
:102F8000910509F466C0809709F047C182C080347A
:102F9000910509F4A4C08134910544F4803391056E
:102FA00009F482C0C89709F038C189C080359105FD
:102FB00009F489C08835910509F496C088349105D3
:102FC00009F02BC1AEC08839910509F413C18939C4
:102FD0009105ECF48837910509F4ABC08937910568
:102FE0004CF48836910509F4A4C08037910509F0A6
:102FF00014C19FC08838910509F4FCC0803991053F
:1030000009F49DC08038910509F007C198C0803B44
:10301000910509F4C6C0813B91054CF4803A9105B5
:1030200009F49FC0883A910509F0F7C0BAC0803C06
:10303000910509F4E3C0883C910509F4DFC0883BA1
:10304000910509F0EAC0C2C0809158038093BB008B
:10305000CFC090917F0380918003981768F490917E
:103060007F03E92FF0E0E15AFC4F80818093BB00A1
:103070009F5F90937F03BCC080915903882309F41C
:103080004BC085ED8093BC008091BC0084FDFCCFDB
:10309000C2C080E28093C40385ED8093BC00809120
:1030A000BC0084FDFCCFB7C080E38093C40385EDF2
:1030B0008093BC008091BC0084FDFCCFACC088E351
:1030C0008093C4039BC080917F039091BB00E82F45
:1030D000F0E0E15AFC4F90838F5F80937F039091E3
:1030E0007F038091800382C080917F039091BB0019
:1030F000E82FF0E0E15AFC4F90838F5F80937F03CD
:1031000080915903882341F085ED8093BC00809124
:10311000BC0084FDFCCF7FC081E080935A0384EA29
:103120006EC085ED8093BC008091BC0084FDFCCF17
:1031300072C083E0809357031092C30359C08091FB
:10314000C303803208F056C08091C3039091BB0046
:10315000E82FF0E0ED55FC4F90838F5F8093C30321
:1031600047C08091C303803230F4E091C303F0E0A4
:10317000ED55FC4F108285ED8093BC008091BC0022
:1031800084FDFCCF109257036091C303E0915D036F
:10319000F0915E0383EA93E070E009951092C30317
:1031A0002DC084E0809357031092A1031092A203D4
:1031B000E0915B03F0915C0309958091A203882361
:1031C00029F481E08093A203109281039091A103DE
:1031D000E92FF0E0EF57FC4F80818093BB009F5FA9
:1031E0009093A1039091A1038091A203981710F4EA
:1031F00085EC01C085E88093BC000FC085EC80930E
:10320000BC0009C01092C40385ED8093BC0080917E
:10321000BC0084FDFCCF10925703FF91EF91BF914A
:10322000AF919F918F917F916F915F914F913F915E
:103230002F910F900FBE0F901F9018950F931F9313
:10324000CF93DF93FC01738D76957170A685B7855A
:103250009585772329F08C91892309F454C004C003
:103260008C91892309F04FC08389948920E00197CC
:103270002FEF8F3F9207D9F7C589D689A685B785E5
:10328000158560E031E040E050E000E0CE01202F05
:1032900001972FEF8F3F9207D9F78C91812311F07F
:1032A000632B03C0832F80956823330F4F5F5F4FDD
:1032B0004830510559F78789908D20E001972FEF0D
:1032C0008F3F9207D9F77111609580910704209183
:1032D000080490E001968F73907030E08217930796
:1032E00079F0E0910704F0E0E953FC4F60838091AE
:1032F000070490E001968F7390708093070403C0D9
:10330000838D8160838FDF91CF911F910F910895FD
:103310001F920F920FB60F9211242F933F934F934A
:103320005F936F937F938F939F93AF93BF93EF932D
:10333000FF938091C5039091C603009711F00E94FE
:103340001E19FF91EF91BF91AF919F918F917F9146
:103350006F915F914F913F912F910F900FBE0F9002
:103360001F9018951F920F920FB60F9211242F9352
:103370003F934F935F936F937F938F939F93AF93FD
:10338000BF93EF93FF938091C5039091C60300977D
:1033900011F00E941E19FF91EF91BF91AF919F9183
:1033A0008F917F916F915F914F913F912F910F90EE
:1033B0000FBE0F901F9018951F920F920FB60F928D
:1033C00011242F933F934F935F936F937F938F932A
:1033D0009F93AF93BF93EF93FF938091C503909119
:1033E000C603009711F00E941E19FF91EF91BF9143
:1033F000AF919F918F917F916F915F914F913F918D
:103400002F910F900FBE0F901F901895CF92DF92C3
:10341000EF92FF920F931F93CF93DF93EC017A010A
:103420008B011A8E198E188E1F8A1E8A1D8A1C8A7D
:103430001B8A20E030E06901CC0CDD1CC20ED31EDB
:10344000B601660F771F660F771FAB01495E5E4FAF
:10345000FA0185919591A591B4918E159F05A007CC
:10346000B107E9F4FB01E55EFE4F859194919C8BD9
:103470008B8BFB01E35EFE4F859194919E8B8D8B30
:10348000FB01E15EFE4F85919491988F8F8BFB013C
:10349000EF5DFE4F859194919A8F898F06C02F5FC3
:1034A0003F4F2D30310509F0C6CF8F89988D892B7C
:1034B00009F449C04C85463108F03DC09091680040
:1034C000483010F484E005C04E3010F082E001C0B6
:1034D00081E0892B80936800483028F4EDE6F0E025
:1034E000ADE6B0E00BC04E3028F0ECE6F0E0ACE624
:1034F000B0E004C0EBE6F0E0ABE6B0E0508148306D
:1035000040F481E090E002C0880F991F4A95E2F7ED
:1035100010C0242F30E04E3018F42850304002C044
:103520002E50304081E090E002C0880F991F2A950C
:10353000E2F7852B8C93898D9A8D20E001972FEFF0
:103540008F3F9207D9F78091C5039091C6038C17DE
:103550009D0781F08B8D8E7F8B8F9FB7F894109293
:1035600007048091070480930804D093C603C09396
:10357000C5039FBFDF91CF911F910F91FF90EF90F7
:10358000DF90CF900895FC014485463180F54830A6
:1035900028F4EDE6F0E0ADE6B0E00BC04E3028F4E4
:1035A000EBE6F0E0ABE6B0E004C0ECE6F0E0ACE661
:1035B000B0E05081483040F481E090E002C0880FD4
:1035C000991F4A95E2F710C0242F30E04E3018F4CE
:1035D0002850304002C02E50304081E090E002C0C0
:1035E000880F991F2A95E2F7809585238C9308957B
:1035F000FC018DE791E091838083CF010E94C31A83
:1036000008952091C5033091C6032817390731F476
:103610009091080480910704981719F42FEF3FEF59
:103620000FC0E0910804F0E0E953FC4F2081809145
:10363000080490E001968F7390708093080430E046
:10364000C90108952091C5033091C6032817390791
:1036500019F020E030E00EC08091070420910804AA
:1036600090E0805C9F4F821B910960E470E00E94B3
:10367000E12C9C01C90108950F931F93DC01599619
:103680008D919C915A97892B49F481E090E0139693
:103690009C938E93129720E030E097C00FB7F89478
:1036A0005B968C915B975196ED91FC915297509659
:1036B0002C91509781FF8DC08081822B80835996F9
:1036C0008D919C915A97059620E001972FEF8F3F9F
:1036D0009207D9F75B968C915B9781FF35C031E0FB
:1036E00040E050E070E010E0832F90E086239723C5
:1036F0005196ED91FC91529750962C915097892BB1
:1037000029F0808120952823208303C08081822B8B
:10371000808359968D919C915A97212F01972FEF75
:103720008F3F9207D9F7330F4F5F5F4F48305105F6
:10373000D9F65196ED91FC915297908150968C91CB
:1037400050978095892333C031E040E050E070E02D
:1037500010E0832F90E0862397235196ED91FC9102
:10376000529750962C915097892B21F08081822B73
:10377000808304C0808120952823208359968D91D1
:103780009C915A97212F01972FEF8F3F9207D9F7DE
:10379000330F4F5F5F4F48305105D9F65196ED9189
:1037A000FC915297808150969C915097892B8083F1
:1037B0000FBF59968D919C915A9720E001972FEF5A
:1037C0008F3F9207D9F721E030E0C9011F910F9197
:1037D0000895808120952823208371CF2091C503EF
:1037E0003091C6032817390749F49FB7F89410920F
:1037F000070480910704809308049FBF08952091D7
:10380000C5033091C6032817390731F49091080495
:1038100080910704981719F42FEF3FEF0AC0E09149
:103820000804F0E0E953FC4F8081282F332727FD5F
:103830003095C90108951F93CF93DF93EC01162FA4
:10384000862F60E00E946F1F8B8D81FD04C0812F49
:1038500061E00E94AE1F1C87212F30E0C9018B510F
:103860009E4FFC0184918D872F523E4FF901649148
:10387000E62FF0E0EE0FFF1FE953FE4F8591949184
:103880009F878E87DF91CF911F9108951F93CF93CC
:10389000DF93EC01162F862F61E00E946F1F60E01E
:1038A0008B8D81FF61E0812F0E94AE1F212F30E0C0
:1038B000C9018B519E4FFC018491888B2F523E4F42
:1038C000F9016491E62FF0E0EE0FFF1FE354FE4F85
:1038D000859194919A8B898BDF91CF911F91089557
:1038E000FF920F931F938C01F62EFC01138212821C
:1038F00088EE93E0A0E0B0E084839583A683B7834D
:103900008DE791E091838083148A138A168A158A41
:10391000108E178A128E118E838D2170220F8C7F4C
:10392000822B838FC801642F0E94461CC8016F2D13
:103930000E941B1C1F910F91FF9008950F931F93DE
:10394000CF93DF93BC018230910510F462E070E008
:10395000E091D304F091D404A0E0B0E040E050E066
:1039600024C08081918186179707D0F0861797072A
:1039700071F482819381109729F013969C938E9312
:1039800012972CC09093D4048093D30427C0411580
:10399000510519F08417950718F4EF018D01AC015A
:1039A000DF01828193819C01F9013097D1F64115A5
:1039B0005105F9F0CA01861B970B8430910580F4FC
:1039C0008A819B810115110521F0F801938382837F
:1039D00004C09093D4048093D304FE01329645C072
:1039E000FE01E80FF91F6193719302979983888311
:1039F0003CC08091D1049091D204892B41F48091F4
:103A00004201909143019093D2048093D10440915C
:103A10004401509145014115510541F44DB75EB740
:103A20008091400190914101481B590B2091D10494
:103A30003091D20424173507B0F4CA01821B930BCE
:103A40008617970780F0AB014E5F5F4F841795078D
:103A500050F0420F531F5093D2044093D104F90108
:103A60006193719302C0E0E0F0E0CF01DF91CF916C
:103A70001F910F910895CF93DF939C01009709F454
:103A80008FC0EC0122971B821A826091D30470913F
:103A9000D4046115710581F488819981820F931F87
:103AA0002091D1043091D2042817390739F5D093E9
:103AB000D204C093D10474C0DB0140E050E0AC17E5
:103AC000BD0708F1BB83AA83FE0121913191E20F6A
:103AD000F31FAE17BF0779F48D919C911197280FB2
:103AE000391F2E5F3F4F3983288312968D919C9109
:103AF00013979B838A834115510571F4D093D404A5
:103B0000C093D3044DC012968D919C911397AD0133
:103B1000009711F0DC01D3CFDA011396DC93CE933A
:103B20001297FA0121913191E20FF31FCE17DF07AF
:103B300069F488819981280F391F2E5F3F4FFA0160
:103B4000318320838A819B8193838283E0E0F0E04C
:103B5000DB0112968D919C911397009719F0BC018F
:103B6000FD01F6CFAB014E5F5F4FDB018D919C9164
:103B7000840F951F2091D1043091D2042817390762
:103B800079F4309729F41092D4041092D30402C02F
:103B900013821282425050405093D2044093D10479
:103BA000DF91CF9108951F920F920FB60F921124BB
:103BB0002F933F938F939F93AF93BF9380910D0467
:103BC00090910E04A0910F04B09110043091110453
:103BD0000196A11DB11D232F2D5F2D3720F02D57EC
:103BE0000196A11DB11D2093110480930D049093A3
:103BF0000E04A0930F04B0931004809109049091D7
:103C00000A04A0910B04B0910C040196A11DB11DF2
:103C10008093090490930A04A0930B04B0930C04BE
:103C2000BF91AF919F918F913F912F910F900FBEB8
:103C30000F901F9018958FB7F89420910D04309134
:103C40000E0440910F04509110048FBFB901CA01B6
:103C500008959FB7F8942091090430910A04409187
:103C60000B0450910C0486B5A89B06C08F3F21F031
:103C70002F5F3F4F4F4F5F4F9FBF542F432F322F28
:103C80002227280F311D411D511D82E0220F331FB5
:103C9000441F551F8A95D1F7B901CA0108959B01A8
:103CA000AC017FB7F8948091090490910A04A09127
:103CB0000B04B0910C0466B5A89B05C06F3F19F0CA
:103CC0000196A11DB11D7FBFBA2FA92F982F88275C
:103CD000860F911DA11DB11D62E0880F991FAA1FBB
:103CE000BB1F6A95D1F7BC012DC0FFB7F894809136
:103CF000090490910A04A0910B04B0910C04E6B55C
:103D0000A89B05C0EF3F19F00196A11DB11DFFBF93
:103D1000BA2FA92F982F88278E0F911DA11DB11D95
:103D2000E2E0880F991FAA1FBB1FEA95D1F7861BF7
:103D3000970B885E9340C8F221503040404050407D
:103D400068517C4F211531054105510571F60895E3
:103D5000019739F0880F991F880F991F02970197D3
:103D6000F1F70895789484B5826084BD84B581604C
:103D700084BD85B5826085BD85B5816085BDEEE673
:103D8000F0E0808181608083E1E8F0E01082808152
:103D900082608083808181608083E0E8F0E08081C0
:103DA00081608083E1EBF0E0808184608083E0EBE0
:103DB000F0E0808181608083EAE7F0E080818460C8
:103DC0008083808182608083808181608083808124
:103DD000806880831092C1000895982F8E3008F07B
:103DE0009E509770809146018295880F880F807C45
:103DF000892B80937C0080917A00806480937A0084
:103E000080917A0086FDFCCF209178004091790066
:103E1000942F80E030E0282B392BC90108951F939F
:103E2000CF93DF93182FEB0161E00E946F1F209763
:103E300009F44AC0CF3FD10509F449C0E12FF0E0B1
:103E4000E750FE4F84918330C1F0843028F48130F4
:103E500051F08230B1F50CC0863019F1873049F14C
:103E6000843079F514C084B5806884BDC7BD33C083
:103E700084B5806284BDC8BD2EC0809180008068FA
:103E800080938000D0938900C093880024C08091E3
:103E90008000806280938000D0938B00C0938A0062
:103EA0001AC08091B00080688093B000C093B300C6
:103EB00012C08091B00080628093B000C093B400C3
:103EC0000AC0C038D1051CF4812F60E002C0812FE8
:103ED00061E00E94AE1FDF91CF911F910895CF93B3
:103EE000DF93482F50E0CA018B519E4FFC01349163
:103EF0004F525E4FFA018491882369F190E0880F58
:103F0000991FFC01ED54FE4FA591B491FC01E354BF
:103F1000FE4FC591D491662351F42FB7F8948C913C
:103F2000932F909589238C93888189230BC06230CD
:103F300061F42FB7F8948C91932F909589238C93EB
:103F40008881832B88832FBF06C09FB7F8948C91FC
:103F5000832B8C939FBFDF91CF910895482F50E022
:103F6000CA0187509E4FFC012491CA018B519E4F7C
:103F7000FC0194914F525E4FFA013491332309F4BE
:103F800040C0222351F1233071F0243028F4213035
:103F9000A1F0223011F514C02630B1F02730C1F065
:103FA0002430D9F404C0809180008F7703C08091C1
:103FB00080008F7D8093800010C084B58F7702C011
:103FC00084B58F7D84BD09C08091B0008F7703C018
:103FD0008091B0008F7D8093B000E32FF0E0EE0F72
:103FE000FF1FE354FE4FA591B4912FB7F8946623B9
:103FF00021F48C919095892302C08C91892B8C930C
:104000002FBF0895682F70E0CB0187509E4FFC01B1
:104010002491CB018B519E4FFC0144916F527E4FF6
:10402000FB019491992319F420E030E03CC0222355
:1040300051F1233071F0243028F42130A1F02230E6
:1040400011F514C02630B1F02730C1F02430D9F476
:1040500004C0809180008F7703C0809180008F7DA5
:104060008093800010C084B58F7702C084B58F7DA7
:1040700084BD09C08091B0008F7703C08091B000EB
:104080008F7D8093B000892F90E0880F991F89530E
:104090009E4FFC01A591B4918C9120E030E08423E7
:1040A00011F021E030E0C90108958F929F92AF9204
:1040B000BF92CF92DF92EF92FF920F931F93CF9315
:1040C000DF93A82FB0E0CD018B519E4FFC0184906F
:1040D000AF52BE4FFD018491662311F4992401C0B3
:1040E000982C6FEFA62E6FEFB62E6FEFC62E6FE0F7
:1040F000D62EA222B322C422D522682F70E0660FEA
:10410000771F69537E4FEE24FF248701FB01A591A1
:10411000B4910BC0EA14FB040C051D0509F44EC054
:104120000894E11CF11C011D111D8C918821891539
:1041300089F30CC0EA14FB040C051D0509F43EC00C
:104140000894E11CF11C011D111D03C0FB01A59188
:10415000B4918C918821891569F720E030E040E026
:1041600050E0FB01C591D4910FC0DA01C9018E0D59
:104170009F1DA01FB11F8A159B05AC05BD05F1F061
:104180002F5F3F4F4F4F5F4F88818821891569F31B
:10419000CA01B90125E130E040E050E00E94B62CB0
:1041A0009B01AC01205F3F4F4F4F5F4F84E056951E
:1041B0004795379527958A95D1F704C020E030E0E0
:1041C00040E050E0B901CA01DF91CF911F910F91FA
:1041D000FF90EF90DF90CF90BF90AF909F908F9027
:1041E000089508951F920F920FB60F9211242F93E6
:1041F0003F934F938F939F93EF93FF938091C000D2
:1042000082FD1DC04091C60020915204309153049C
:104210002F5F3F4F2F73307080915404909155045D
:104220002817390771F0E0915204F0915304EE5EC3
:10423000FB4F4083309353042093520402C080917B
:10424000C600FF91EF919F918F914F913F912F91D8
:104250000F900FBE0F901F901895E091A604F0915B
:10426000A704E05CFF4F8191919120813181805CB6
:104270009F4F821B930B60E470E00E94E12C892B1E
:1042800011F00E94F12008951F920F920FB60F9225
:1042900011242F933F938F939F93EF93FF9320913C
:1042A000960430919704809198049091990428176E
:1042B000390731F48091C1008F7D8093C10014C013
:1042C000E0919804F0919904EA5AFB4F2081809183
:1042D00098049091990401968F739070909399042B
:1042E000809398042093C600FF91EF919F918F9146
:1042F0003F912F910F900FBE0F901F901895AF9286
:10430000BF92DF92EF92FF920F931F93CF93DF93B1
:10431000EC017A018B01DD24403081EE580780E00A
:10432000680780E0780711F0DD24D39491E0A92E8E
:10433000B12CEC89FD89DD2069F0C50108A002C01F
:10434000880F991F0A94E2F7808360E079E08DE39B
:1043500090E005C0108260E874E88EE190E0A8016A
:1043600097010E94F42C2150304040405040569517
:1043700047953795279580E12030380720F0DD20DC
:1043800011F0DD24D6CFE889F9893083EA89FB89E9
:10439000208319A2EE89FF89408121E030E0C90124
:1043A0000C8C02C0880F991F0A94E2F7482B4083B7
:1043B000EE89FF894081C9010D8C02C0880F991FC9
:1043C0000A94E2F7482B4083EE89FF894081C901B6
:1043D0000E8C02C0880F991F0A94E2F7482B408385
:1043E000EE89FF8980810F8C02C0220F331F0A944F
:1043F000E2F7209528232083DF91CF911F910F9121
:10440000FF90EF90DF90BF90AF900895DC011C9675
:10441000ED91FC911D97E05CFF4F8191919120817E
:104420003181805C9F4F821B930B60E470E00E949F
:10443000E12C0895DC011C96ED91FC911D97E05C48
:10444000FF4F20813181E054F040DF01AE5BBF4F70
:104450008D919C9111972817390719F42FEF3FEF91
:1044600007C08D919C91E80FF91F8081282F30E0C3
:10447000C9010895DC011C96ED91FC911D97E05C4B
:10448000FF4F20813181E054F040DF01AE5BBF4F30
:104490008D919C9111972817390719F42FEF3FEF51
:1044A00010C08D919C911197E80FF91F20818D917B
:1044B0009C91119701968F73907011969C938E9397
:1044C00030E0C9010895DC0191968C919197882381
:1044D00039F05496ED91FC915597808186FFF9CF84
:1044E00091961C920895CF93DF93EC01EE85FF85A2
:1044F000E05CFF4F20813181E054F0402F5F3F4F5F
:104500002F733070DF01AE5BBF4F8D919C9111977F
:1045100028173907D1F3E05CFF4F80819181E05487
:10452000F040E80FF91F6083EE85FF85E05CFF4FE8
:1045300031832083EE89FF89208181E090E00F8C18
:1045400002C0880F991F0A94E2F7282B208381E08C
:1045500089A3EC89FD8980818064808381E090E07B
:10456000DF91CF91089510929D0410929C0488EEE3
:1045700093E0A0E0B0E080939E0490939F04A0930A
:10458000A004B093A1048DE891E090939B048093E4
:104590009A0482E194E09093A7048093A60486E5B0
:1045A00094E09093A9048093A80485EC90E0909304
:1045B000AB048093AA0484EC90E09093AD048093C4
:1045C000AC0480EC90E09093AF048093AE0481EC57
:1045D00090E09093B1048093B00482EC90E09093CB
:1045E000B3048093B20486EC90E09093B50480937A
:1045F000B40484E08093B60483E08093B70487E03A
:104600008093B80485E08093B90481E08093BA0474
:1046100008950895CF93DF930E94B21E0E9409234C
:104620000E94AB08CDE2D1E20E943E082097E1F360
:104630000E942D21F9CFCF92DF92EF92FF920F933C
:104640001F93CF93DF937C016B018A01C0E0D0E020
:104650000FC0D6016D916D01D701ED91FC910190D4
:10466000F081E02DC7010995C80FD91F01501040F6
:104670000115110571F7CE01DF91CF911F910F91B7
:10468000FF90EF90DF90CF900895EF92FF920F93FD
:104690001F938C01DC01ED91FC910190F081E02DE4
:1046A0006DE009957C01D801ED91FC910190F081BC
:1046B000E02DC8016AE009959C012E0D3F1DC9013E
:1046C0001F910F91FF90EF900895CF93DF93EC012E
:1046D0006115710519F420E030E00FC0DB010D9089
:1046E0000020E9F71197A61BB70BE881F98102803A
:1046F000F381E02DAD0109959C01C901DF91CF91B6
:1047000008954F925F927F928F929F92AF92BF9245
:10471000CF92DF92EF92FF920F931F93DF93CF938D
:10472000CDB7DEB7A1970FB6F894DEBF0FBECDBFF1
:104730002C01742ECB01223008F42AE019A231E2B8
:10474000C32ED12CCC0EDD1E822E9924AA24BB248C
:10475000672D752FA50194010E94F42C79018A011F
:10476000C801B701A50194010E94B62C472D461B34
:104770000894C108D1084A3014F4405D01C0495C76
:10478000F6014083E114F1040105110521F07E2CAE
:104790005F2DC801DDCFC201B6010E946523A1963D
:1047A0000FB6F894DEBF0FBECDBFCF91DF911F9142
:1047B0000F91FF90EF90DF90CF90BF90AF909F90C0
:1047C0008F907F905F904F900895DC012115310507
:1047D00041F4ED91FC910190F081E02D642F099559
:1047E00008950E9481230895CF92DF92EF92FF9265
:1047F0000F931F93CF93DF93EC016A017B01211587
:10480000310541F4E881F9810190F081E02D642FB8
:1048100009951FC02A303105D1F477FF17C0E88110
:10482000F9810190F081E02D6DE209958C0144271A
:104830005527BA014C195D096E097F09CE012AE09E
:104840000E9481239801280F391F04C02AE00E948A
:1048500081239C01C901DF91CF911F910F91FF909E
:10486000EF90DF90CF9008957F928F929F92AF92BA
:10487000BF92CF92DF92EF92FF920F931F93CF934D
:10488000DF934C017A018B01722ECB01BA01A80192
:1048900097010E94CC2B882321F0C40164E071E0D1
:1048A00021C0C0E0D0E057016801E894D7F8C60104
:1048B000B5012FEF3FEF4FE75FE70E94CC2B882336
:1048C00051F4C601B5012FEF3FEF4FE75FE70E94BC
:1048D000F828181614F0C1E0D0E0219739F0C4018F
:1048E00068E071E00E946523EC0193C0C801B70144
:1048F0002FEF3FEF4FE75FE40E94C12A181654F0F4
:10490000C801B7012FEF3FEF4FE75FEC0E94F82897
:10491000882324F4C4016CE071E0E4CFC801B7013E
:1049200020E030E040E050E00E94F82887FD03C01E
:10493000C0E0D0E00EC0D401ED91FC910190F08177
:10494000E02DC4016DE20995EC0117FB109517F9F4
:10495000109520E030E040E05FE3DD240BC0CA01A9
:10496000B90120E030E040E251E40E94FC289B01C4
:10497000AC01D394D71498F3C801B7010E94322830
:104980005B016C010E9469297B018C01C401B801A3
:10499000A7012AE030E00E94E523C80FD91F772045
:1049A00039F0C40160E171E00E946523C80FD91F8E
:1049B000C801B7010E9495299B01AC01C601B50150
:1049C0000E94312824C020E030E040E251E40E94FF
:1049D000CC2A7B018C010E9464295B016C01CC24F0
:1049E000B7FCC094DC2CC401B601A5012AE030E07C
:1049F0000E94F423C80FD91FC601B5010E94972950
:104A00009B01AC01C801B7010E9431287A9477203C
:104A1000D1F6CE01DF91CF911F910F91FF90EF90D2
:104A2000DF90CF90BF90AF909F908F907F90089530
:104A3000EF92FF920F931F937C010E9434248C010C
:104A4000C7010E944523080F191FC8011F910F912C
:104A5000FF90EF900895EF92FF920F931F937C01C8
:104A60000E9465238C01C7010E944523080F191F6E
:104A7000C8011F910F91FF90EF900895813041F090
:104A8000813018F08230D1F409C010926E00089580
:104A900080916F008D7F80936F00089580917000EA
:104AA0008D7F8093700081E08093B0008091B10091
:104AB000887F84608093B1001092B30008951F93A3
:104AC000182F80914701811711F09FEF06C0EDE08C
:104AD000F2E094918FEF80934701892F0E943E2549
:104AE000812F60E00E94AE1F1F9108951F920F92C8
:104AF0000FB60F9211242F933F934F935F936F93B1
:104B00007F938F939F93AF93BF93EF93FF93809186
:104B1000CA049091CB04A091CC04B091CD0400972D
:104B2000A105B10551F1E091CE04F091CF0480814F
:104B30009091D004892780838091CA049091CB04FE
:104B4000A091CC04B091CD04181619061A061B06C4
:104B5000C4F48091CA049091CB04A091CC04B0918C
:104B6000CD040197A109B1098093CA049093CB04A5
:104B7000A093CC04B093CD0404C0809147010E945F
:104B80005F25FF91EF91BF91AF919F918F917F91A1
:104B90006F915F914F913F912F910F900FBE0F90AA
:104BA0001F9018952F923F925F926F927F928F92F3
:104BB0009F92AF92BF92CF92DF92EF92FF920F93AC
:104BC0001F93DF93CF9300D000D0CDB7DEB7A82FCF
:104BD0001B0129833A834B835C83809147018A17A9
:104BE00021F4EDE0F2E0549082C08F3F09F0DAC189
:104BF000A0934701EDE0F2E054902FEF521609F434
:104C0000D1C181E0581639F192E0591609F449C032
:104C1000552009F06CC014BC15BC84B5826084BDFD
:104C200085B5816085BD2A2F30E0F901EF52FE4F36
:104C3000E491F0E0EE0FFF1FE354FE4F8591949155
:104C40009093C1048093C0042B513E4FF90184918D
:104C50008093C2044EC01092800010928100809117
:104C600081008860809381008091810081608093C1
:104C700081002A2F30E0F901EF52FE4FE491F0E07D
:104C8000EE0FFF1FE354FE4F859194919093C8045B
:104C90008093C7042B513E4FF90184918093C9043E
:104CA00028C01092B0001092B1008091B0008260D4
:104CB0008093B0008091B10081608093B1002A2F71
:104CC00030E0F901EF52FE4FE491F0E0EE0FFF1FEC
:104CD000E354FE4F859194919093CF048093CE043A
:104CE0002B513E4FF90184918093D00402C057FCB0
:104CF00059C18A2F61E00E946F1F552021F0F2E018
:104D00005F1609F0BEC031018824992460E072E189
:104D10008AE790E0A40193010E94162D59016A01CF
:104D2000860175010894E108F108010911092FEFC6
:104D3000E216F1040105110509F008F499C060E4D8
:104D400072E48FE090E0A40193010E94162D790196
:104D50008A010894E108F1080109110982E0581656
:104D6000C1F49FEFE916F1040105110509F008F4FB
:104D700084C060E970ED83E090E0A40193010E949B
:104D8000162D79018A010894E108F1080109110939
:104D900083E0AFEFEA16F1040105110509F008F40C
:104DA00068C068E478EE81E090E0A40193010E947D
:104DB000162D79018A010894E108F1080109110909
:104DC000552011F483E01DC0B2E05B1611F084E0C1
:104DD00018C0EFEFEE16F1040105110509F008F413
:104DE000DFC064E274EF80E090E0A40193010E94D0
:104DF000162D79018A010894E108F10801091109C9
:104E000085E0FFEFEF16F1040105110591F188F13E
:104E100062E17AE780E090E0A40193010E94162D00
:104E200079018A010894E108F10801091109552066
:104E300011F086E001C084E02FEFE216F1040105D5
:104E40001105B9F0B0F0C601B50120E034E040E052
:104E500050E00E94162D79018A010894E108F108BA
:104E600001091109552011F087E008C085E003C051
:104E700081E0552019F485BD3AC082E08093B100ED
:104E800036C05101CC24DD2460E072E18AE790E075
:104E9000A60195010E94162D79018A010894E10866
:104EA000F1080109110980E0E81680E0F80681E0C8
:104EB000080780E0180710F491E010C068E478EE6D
:104EC00081E090E0A60195010E94162D79018A01EA
:104ED0000894E108F1080109110993E0A1E05A16CC
:104EE00031F480918100887F982B90938100898193
:104EF0009A81AB81BC810097A105B10529F48FEFA0
:104F00009FEFAFEFBFEF13C0220C331CB10180E065
:104F100090E029813A814B815C810E94B62C28EE79
:104F200033E040E050E00E94F42CC901DA01E1E0F6
:104F30005E16A1F0F2E05F1619F1552099F5E7BC75
:104F40008093BC049093BD04A093BE04B093BF04AF
:104F500080916E00826080936E0024C0F092890080
:104F6000E09288008093C3049093C404A093C50486
:104F7000B093C60480916F00826080936F0012C06E
:104F8000E092B3008093CA049093CB04A093CC0426
:104F9000B093CD048091700082608093700002C055
:104FA00084E06CCF0F900F900F900F90CF91DF9116
:104FB0001F910F91FF90EF90DF90CF90BF90AF9037
:104FC0009F908F907F906F905F903F902F9008956B
:104FD0002F923F924F925F926F927F928F929F9209
:104FE000AF92BF92CF92DF92EF92FF920F931F93F7
:104FF000DF93CF93CDB7DEB73B014C0119012A01F6
:105000006D897E898F89988D6A197B098C099D0924
:10501000621A730A840A950AA40193010E94B62CAD
:10502000E218F30804091509A80197010E94162D3A
:105030002A0D3B1D4C1D5D1DB901CA01CF91DF91A9
:105040001F910F91FF90EF90DF90CF90BF90AF90A6
:105050009F908F907F906F905F904F903F902F9098
:1050600008955058BB27AA270ED03AC22BD230F051
:1050700030D220F031F49F3F11F41EF4FBC10EF446
:10508000E095E7FBC6C1E92F3CD280F3BA1762076F
:1050900073078407950718F071F49EF56BC20EF440
:1050A000E0950B2EBA2FA02D0B01B90190010C0138
:1050B000CA01A0011124FF27591B99F0593F50F450
:1050C000503E68F11A16F040A22F232F342F4427A8
:1050D000585FF3CF469537952795A795F0405395A0
:1050E000C9F77EF41F16BA0B620B730B840BBAF070
:1050F0009150A1F0FF0FBB1F661F771F881FC2F7DB
:105100000EC0BA0F621F731F841F48F487957795EE
:105110006795B795F7959E3F08F0B3CF9395880FA5
:1051200008F09927EE0F979587950895CBD158F001
:1051300080E891E009F49EEFCCD128F040E851E0FE
:1051400059F45EEF09C096C115C2E92FE078D9D1B4
:1051500068F3092E052AC1F32617370748075907B0
:1051600038F00E2E07F8E02569F0E025E0640AC06B
:10517000EF6307F8009407FADB01B9019D01DC0138
:10518000CA01AD01EF9347D0ABD10AD05F9155234F
:1051900031F02BED3FE049E450FD49EC63CF089539
:1051A000DF93DD27B92FBF7740E85FE316161706B8
:1051B00048075B0710F4D92FE8D19F938F937F9313
:1051C0006F93E7D2E8E6F0E058D18AD12F913F9172
:1051D0004F915F91EDD1DD2349F09058A2EA2AED7D
:1051E0003FE049EC5FE3D0785D274DDFDF9178C188
:1051F000ECD008F481E008950CD072C16AD140F07F
:1052000061D130F021F45F3F19F003C15111B3C1F6
:1052100031C177D198F39923C9F35523B1F3951B85
:10522000550BBB27AA2762177307840738F09F5FC7
:105230005F4F220F331F441FAA1FA9F333D00E2E36
:105240003AF0E0E830D091505040E695001CCAF7A3
:1052500029D0FE2F27D0660F771F881FBB1F261768
:1052600037074807AB07B0E809F0BB0B802DBF013B
:10527000FF2793585F4F2AF09E3F510568F0C9C041
:105280007AC15F3FECF3983EDCF38695779567959E
:10529000B795F7959F5FC9F7880F911D96958795EC
:1052A00097F90895E1E0660F771F881FBB1F62170B
:1052B00073078407BA0720F0621B730B840BBA0BC9
:1052C000EE1F88F7E095089504D06894B11153C19A
:1052D00008951FD188F09F5790F0B92F9927B751A3
:1052E000A0F0D1F0660F771F881F991F1AF0BA95AA
:1052F000C9F712C0B13081F03DD1B1E008953AC193
:10530000672F782F8827B85F39F0B93FCCF386959F
:1053100077956795B395D9F73EF4909580957095FC
:1053200061957F4F8F4F9F4F0895E89409C097FB79
:105330003EF490958095709561957F4F8F4F9F4F6C
:105340009923A9F0F92F96E9BB279395F6958795B0
:1053500077956795B795F111F8CFFAF4BB0F11F473
:1053600060FF1BC06F5F7F4F8F4F9F4F16C088231A
:1053700011F096E911C0772321F09EE8872F762F50
:1053800005C0662371F096E8862F70E060E02AF091
:105390009A95660F771F881FDAF7880F969587957D
:1053A00097F90895D0D080F09F3740F491110EF016
:1053B000E2C060E070E080E89FEB089526F41B16E1
:1053C000611D711D811D2BC045C0990F0008550F2F
:1053D000AA0BE0E8FEEF16161706E807F907C0F07B
:1053E00012161306E407F50798F0621B730B840B83
:1053F000950B39F40A2661F0232B242B252B21F45D
:1054000008950A2609F4A140A6958FEF811D811DFC
:10541000089597F99F6780E870E060E00895882319
:1054200071F4772321F09850872B762F07C06623DD
:1054300011F499270DC09051862B70E060E02AF09E
:105440009A95660F771F881FDAF7880F96958795CC
:1054500097F908959F3F49F0915028F486957795E4
:105460006795B7959F5F80389F4F880F9695879572
:1054700097F908959FEF80EC0895DF93CF931F93E2
:105480000F93FF92EF92DF927B018C01689405C02D
:10549000DA2EEF018DD0FE01E894A591259135918A
:1054A00045915591AEF3EF01EEDDFE019701A801A4
:1054B000DA9479F7DF90EF90FF900F911F91CF91E1
:1054C000DF91089500240A94161617061806090697
:1054D000089500240A94121613061406050608956A
:1054E000092E0394000C11F4882352F0BB0F40F4F2
:1054F000BF2B11F460FF04C06F5F7F4F8F4F9F4F32
:10550000089557FD9058440F551F59F05F3F71F0B3
:105510004795880F97FB991F61F09F3F79F087951A
:105520000895121613061406551FF2CF4695F1DFA3
:1055300008C0161617061806991FF1CF8695710533
:10554000610508940895E5DFA0F0BEE7B91788F477
:10555000BB279F3860F41616B11D672F782F882758
:10556000985FF7CF869577956795B11D9395963996
:10557000C8F30895E894BB2766277727CB0197F9EE
:10558000089523DF08F48FEF08959B01AC0160E0DC
:1055900070E080E89FE330CE0BD0A2CF93DF28F0FD
:1055A00098DF18F0952309F034CF64CF1124E3CFAE
:1055B000A8DFA0F3959FD1F3950F50E0551F629F90
:1055C000F001729FBB27F00DB11D639FAA27F00D5C
:1055D000B11DAA1F649F6627B00DA11D661F829F83
:1055E0002227B00DA11D621F739FB00DA11D621F68
:1055F000839FA00D611D221F749F3327A00D611D85
:10560000231F849F600D211D822F762F6A2F112466
:105610009F5750408AF0E1F088234AF0EE0FFF1FB9
:10562000BB1F661F771F881F91505040A9F79E3FF0
:10563000510570F0EECE9FCF5F3FECF3983EDCF368
:10564000869577956795B795F795E7959F5FC1F72D
:10565000FE2B880F911D9695879597F90895FA016D
:10566000EE0FFF1F30962105310599F16115710587
:1056700061F48038BFE39B0749F168949038810555
:1056800061F08038BFEF9B0741F0992342F5FF3F5F
:10569000E1053105210511F1E8940894E795D90158
:1056A000AA2329F4AB2FBE2FF85FD0F310C0FF5F01
:1056B00070F4A695E0F7F73950F019F0FF3A38F496
:1056C0009F779F930CD00F9007FC905808953EF061
:1056D000D1CE60E070E080E89FE308954FE79F77C8
:1056E0005F934F933F932F93CED02F913F914F9144
:1056F0005F9152DF5AC011F40EF4BCCEABCE09DF7D
:10570000D0F39923D9F3CEF39F57550B87FF79D068
:1057100056959795B0E020F4660F771F881FBB1F42
:105720001F930F9300249001A0018001F001A0E8D5
:105730000E0F1F1F0A1E511D601B710B8009B50B38
:1057400048F4600F711F801DB51F0E1B1F0B0A0A46
:10575000510907C02E0F3F1F4A1F0E0F1F1F0A1EA1
:10576000511D660F771F881FBB1FA695F795E795FC
:10577000F8F60617170708065B07211D311D411DA6
:105780000F911F91B901842F9158880F9695879595
:1057900008959B01AC0100CF18DE880B990B08958A
:1057A00019F40EF036CEE6CE65CEB3DEC8F39638E9
:1057B000C0F707F80F92E8942BE33AEA48EB5FE76B
:1057C000F9DE0F920F920F924DB75EB70F929BD0FA
:1057D000E5E9F0E052DE4F915F91EF91FF91E595A1
:1057E000EE1FFF1F49F0FE57E0684427EE0F441FED
:1057F000FA95E1F74195550B0DD00F9007FEC5CEF8
:10580000089591505040660F771F881FD2F7089572
:1058100000CE20CE7EDEE8F39923D9F3940F511DFC
:10582000BBF39150504094F059F0882332F0660F4A
:10583000771F881F91505040C1F79E3F510544F794
:10584000880F911D9695879597F908955F3FACF065
:10585000983E9CF0BB27869577956795B79508F499
:10586000B1609395C1F7BB0F58F711F460FFE8CF13
:105870006F5F7F4F8F4F9F4FE3CF7DCE0EF0EACD0E
:10588000F9CD6894C6CD45DEC8F39923D1F3C6F3AC
:10589000DF93CF931F930F93FF92C92FDD278823A8
:1058A0002AF02197660F771F881FDAF720E030E093
:1058B00040E85FEB9FE3883920F0803E30F021968E
:1058C0008F77D0DBEDEBF0E003C0CCDBEAEEF0E06D
:1058D000D4DD8B01BE01EC01FB2E6F57710975956C
:1058E000771F880B990B23DD28E132E741E35FE363
:1058F0005FDEAF2D9801AE01FF900F911F91CF9108
:10590000DF91C1DBEDCDFA01DC01AA0FBB1F9B01CA
:10591000AC01BF5728F422273327442750781FC0F3
:10592000B75188F4AB2F0024469537952795011C75
:10593000A395D2F3002069F0220F331F441FB395C3
:10594000DAF30DD08ECB61307105A0E88A07B94635
:1059500030F49B01AC016627772788279078309632
:1059600021F020833183428353830895629FD001C5
:10597000739FF001829FE00DF11D649FE00DF11D0A
:10598000929FF00D839FF00D749FF00D659FF00DB9
:105990009927729FB00DE11DF91F639FB00DE11DA6
:1059A000F91FBD01CF0111240895991B79E004C0AE
:1059B000991F961708F0961B881F7A95C9F780954E
:1059C000089597FB092E07260AD077FD04D049D009
:1059D00006D000201AF4709561957F4F0895F6F770
:1059E000909581959F4F0895A1E21A2EAA1BBB1B8B
:1059F000FD010DC0AA1FBB1FEE1FFF1FA217B3079B
:105A0000E407F50720F0A21BB30BE40BF50B661FB0
:105A1000771F881F991F1A9469F760957095809574
:105A200090959B01AC01BD01CF01089597FB092E14
:105A300005260ED057FD04D0D7DF0AD0001C38F45D
:105A400050954095309521953F4F4F4F5F4F0895AA
:105A5000F6F790958095709561957F4F8F4F9F4F8A
:105A60000895AA1BBB1B51E107C0AA1FBB1FA617A5
:105A7000B70710F0A61BB70B881F991F5A95A9F7F7
:105A800080959095BC01CD010895EE0FFF1F059004
:105A9000F491E02D099412E0C4E1D2E004C0FE01CB
:105AA0000E94472D2296C631D107C9F7F894FFCF3F
:105AB000766572006E616E00696E66006F766600D4
:105AC0002E000E000F001000110012001300140031
:105AD0001500BD528E3F0000B442FFFF0B0A0309C0
