:100000000C94D1010C94F9010C94F9010C94F901B0
:100010000C94F9010C94F9010C94F9010C94F90178
:100020000C94F9010C94F9010C9427270C94AE2739
:100030000C94F9010C94F9010C94F9010C94F90158
:100040000C94F9010C9445160C94F9010C94F901E7
:100050000C94F9010C94F9010C94F9010C94801B97
:100060000C94F9010C9435200C9483200C94F90124
:100070000C94F9010C94F9010C94F9010C94F90118
:100080000C94CA220C94F9010C94F9010C94F90116
:100090000C949C180C94F9010C94F9010C94F9013E
:1000A0000C94F9010C94F9010C94F901084AD73B1E
:1000B0003BCE016E84BCBFFDC12F3D6C74319ABD37
:1000C00056833DDA3D00C77F11BED9E4BB4C3E915B
:1000D0006BAAAABE000000803F07634236B79BD8D8
:1000E000A71A39685618AEBAAB558C1D3CB7CC5719
:1000F00063BD6DEDFD753EF6177231BF00000080E7
:100100003F08000000BE922449123EABAAAA2ABEB4
:10011000CDCCCC4C3E00000080BEABAAAAAA3E00CB
:10012000000000BF000000803F0000000000084108
:1001300078D3BB4387D1133D190E3CC3BD4282AD7A
:100140002B3E68EC8276BED98FE1A93E4C80EFFF52
:10015000BE01C4FF7F3F000000000000000000243B
:100160000027002A002D0030000000000025002894
:10017000002B002E00310000000000230026002983
:10018000002C002F000404040404030405020202EE
:100190000204030202020206060606060604040220
:1001A00002020404080201104080401020408040F8
:1001B00080080204018040201002011080102040BD
:1001C000400000000200080E0000030401000B00C4
:1001D0000000000000000000000000000000000718
:1001E0000605040100080A0B0C0D09080B000202A9
:1001F00002010009040000010202000005240010B1
:10020000010524010101042402060524060001075A
:1002100005810310004009040100020A00000007E4
:1002200005020240000007058302400000030403AA
:1002300009042203410072006400750069006E0029
:100240006F0020004C0065006F006E0061007200BE
:1002500064006F00180341007200640075006900BB
:100260006E006F0020004C004C00430012010002A1
:10027000000000404123368000010102000112010C
:10028000000202000040412336800001010200010B
:1002900000C18081C105010902A1010901A10085F8
:1002A000010509190129031500250195037501812F
:1002B00002950175058103050109300931093815D9
:1002C00081257F750895038106C0C005010906A137
:1002D000018502050719E029E7150025017501953B
:1002E000088102950175088103950675081500259A
:1002F000650507190029658100C009040200010392
:1003000000000009210101000122650007058403A6
:1003100040000100000000000000002A2B2800001F
:1003200000000000000000000000000000000000CD
:100330000000002C9EB4A0A1A2A434A6A7A5AE36AE
:100340002D3738271E1F20212223242526B333B61C
:100350002EB7B89F8485868788898A8B8C8D8E8FEF
:10036000909192939495969798999A9B9C9D2F31F2
:1003700030A3AD350405060708090A0B0C0D0E0F56
:10038000101112131415161718191A1B1C1DAFB1D2
:10039000B0B5000037023D17691FEF2163267A29A7
:1003A000300211241FBECFEFDAE0DEBFCDBF11E077
:1003B000A0E0B1E0ECE4FFE502C005900D92AA3A9E
:1003C000B107D9F714E0AAEAB1E001C01D92A43F39
:1003D000B107E1F713E0C0EAD3E004C02297FE01C1
:1003E0000E94952FC439D107C9F70E9445220C9469
:1003F000992F0C9400008130910541F56F5F7F4F7C
:1004000071F58AEA91E00E94871285EE91E00E94E0
:10041000E80B89EE91E00E94E0128BEF91E00E94E0
:10042000C31188E092E00E94EB148CE092E00E94FD
:10043000AF0B86E192E00E9445108AE192E00E94B3
:1004400039108FE192E00E94EC0B0895892B39F46A
:100450006F5F7F4F21F48BEF91E00E94661108954A
:1004600080E090E06FEF7FEF0E94FB01089581E054
:1004700090E06FEF7FEF0E94FB01089510926302FE
:1004800086E094E00E941F1F1816190664F481E0AC
:10049000809363021092640286E094E00E94461FFB
:1004A0008093D10208958CE994E00E9445211816AA
:1004B00019065CF481E080936302809364028CE906
:1004C00094E00E9476218093D1020895682F809154
:1004D0006402882329F08CE994E00E94AF210895FA
:1004E00086E094E00E94801F089560935F027093FD
:1004F0006002809361029093620280915F020E9489
:100500006602809160020E946602809161020E94F0
:100510006602809162020E9466020895EF92FF9245
:100520000F931F93CF93DF938B017A01E9018630FC
:10053000910509F447C18730910594F48230910503
:1005400009F43FC0833091053CF4009709F459C188
:10055000019709F07DC123C005970CF44DC061C01F
:100560008131910509F4BEC08231910564F48F3068
:10057000910509F497C0803191050CF080C0079770
:1005800009F066C139C08E31910509F443C18F313C
:10059000910509F447C1459709F05AC1D3C088E0D5
:1005A00092E00E946D1090E08017910729F088E09A
:1005B00092E0602F0E94731088E092E00E94E6149F
:1005C00045C189EE91E00E946D1090E0801791077F
:1005D00041F489EE91E00E94701090E08E159F0525
:1005E00031F089EE91E0602F4E2D0E94BA1289EE13
:1005F00091E00E9428142AC186E192E00E946D10C9
:1006000090E080179107B1F186E192E0602F0E949F
:10061000731086E192E00E94991060E00E94921DA2
:1006200029C086E192E00E946D1090E0801791074A
:1006300099F086E192E0602F0E94731086E192E0CB
:100640000E94961060E00E94921D86E192E00E9456
:10065000991060E00E94921D81E0E816F10429F4EF
:1006600086E192E00E94B610E9C082E0E816F1044B
:1006700009F0EEC086E192E00E94B110DFC08AE18D
:1006800092E00E946D1090E08017910729F08AE1B6
:1006900092E0602F0E9473106091D00270E080E0C1
:1006A00090E01DC086E192E00E946D1090E08017FE
:1006B000910761F086E192E0602F0E94731086E15D
:1006C00092E00E94991060E00E94921D86E192E003
:1006D0000E94E11090E0A0E0B0E0BC01CD010E94DA
:1006E000E72BB4C086E192E00E946D1090E0801785
:1006F000910799F086E192E0602F0E94731086E1E5
:1007000092E00E94961060E00E94921D86E192E0C5
:100710000E94991060E00E94921D86E192E00E9482
:10072000F510E82E86E192E00E94E110FF24EE0C25
:10073000FF1CE80EF11C0027F7FC0095102FC801E4
:10074000B70182C086E192E00E946D1090E08017B0
:10075000910741F486E192E00E94701090E08E15BE
:100760009F0531F086E192E0602F4E2D0E948310AC
:1007700081E0E816F10461F486E192E00E949610AF
:1007800062E00E94921D86E192E00E94F5100BC08B
:1007900086E192E00E94991062E00E94921D86E13B
:1007A00092E00E94E11090E0A0E0B0E0BC01CD0139
:1007B0000E94E72BE62F2E2F372F482F592FB901F4
:1007C000CA0144C08FE192E00E94D70D81E0E81693
:1007D000F10429F48FE192E00E945E0C37C082E0C0
:1007E000E816F10429F48FE192E00E941A0C2EC061
:1007F00083E0E816F10461F58FE192E00E94ED0BD1
:1008000025C0609118017091190180911A01909191
:100810001B011CC0822F60E00E94921D8C2F0E9441
:10082000521E0CC0CC0FDD1FC050DF4F1881812F2E
:1008300060E00E94921D812F0E94B51CAA2797FD9F
:10084000A095BA2FBC01CD010E94E92B0E94750230
:10085000DF91CF911F910F91FF90EF9008958091BC
:100860006402882319F08CE994E002C086E094E0E9
:100870000E94822208952F923F924F925F926F9230
:100880007F928F929F92AF92BF92CF92DF92EF9220
:10089000FF920F931F93DF93CF93CDB7DEB761978E
:1008A0000FB6F894DEBF0FBECDBF1092CF0290916D
:1008B0006402992319F080919B0202C08091670223
:1008C000823009F440C0833020F4813009F05CC4E8
:1008D00007C0843009F421C4853009F055C44AC4E6
:1008E000992319F020919E0202C020916A02022FE2
:1008F00010E08FEF0E94660285E50E9466028091FB
:100900006402882319F080919F0202C080916B02DB
:100910000E94660280916402882319F080919D02F2
:1009200002C080916902B801E4E076956795EA9586
:10093000E1F7A8014F70507090E098010E948E027C
:100940000E942F0421C4992319F080919C0202C0B7
:1009500080916802282F30E03D832C8354E0252EBF
:10096000312CD2C3F0906402FF2021F0F101E75650
:10097000FD4F03C0F101EB59FD4F8081282F30E07E
:10098000C1010196FF2021F0FC01E756FD4F03C095
:10099000FC01EB59FD4F0081402E5524620144E0DB
:1009A000D694C7944A95E1F71C010894211C311C88
:1009B0002830310509F0BBC0F1013196FF2029F044
:1009C00089E992E0280E391E04C025E632E0220EA5
:1009D000331ED101BC91BB838F010F5F1F4FFF20DE
:1009E00019F0E756FD4F02C0EB59FD4F608170E0F2
:1009F00080E090E00E94E72B6A877B878C879D8749
:100A0000F8013196FA83E983FF2029F007561D4F3C
:100A1000D8016C9104C00B591D4FF801608170E042
:100A200080E090E00E94E72B6E837F838887998720
:100A3000FF2029F0E981FA81E756FD4F04C0E981E2
:100A4000FA81EB59FD4F608170E080E090E00E94F8
:100A5000E72B1B012C018BEF91E00E946D1090E0C1
:100A60008C159D0529F08BEF91E06C2D0E948D1166
:100A7000FB81FF2319F4198A188A45C02B81215064
:100A80002B836A857B858C859D850E94BB2B3B01D2
:100A90004C016E817F81888599850E94BB2B5B010B
:100AA0006C01C201B1010E94BB2B7B018C018BEF59
:100AB00091E06B81462D2A2D0E2D0E940C112DC028
:100AC0006A857B858C859D850E94BB2B3B014C01F3
:100AD0006E817F81888599850E94BB2B5B016C01AB
:100AE000C201B1010E94BB2B7B018C018BEF91E015
:100AF0006889462D2A2D0E2D0E940C11888999890E
:100B00000196998B888B8BEF91E00E94091190E000
:100B1000A889B989A817B9079CF229803A80089456
:100B2000211C311C8BEF91E00E943711EDC22A305D
:100B3000310509F053C0D1011196FF2029F0E9E9F0
:100B4000F2E02E0E3F1E04C025E632E0220E331ED8
:100B5000F101608160935F02FD013196FF2019F081
:100B6000A756BD4F02C0AB59BD4F8C918093600218
:100B7000BF016F5F7F4FFF2019F0E756FD4F02C0A6
:100B8000EB59FD4F808180936102FF2021F0FB0132
:100B9000E756FD4F03C0FB01EB59FD4FE0811B0100
:100BA0000894211C311CE0936202E0905F02F090F7
:100BB0006002009161021091620285EE91E06C2D5D
:100BC0000E947310C801B7010E94B62B9B01AC01B3
:100BD00085EE91E0B9010E94B20B96C22930310531
:100BE00009F055C0D1011196FF2019F029E932E032
:100BF00002C025E632E0220E331EF10160816093CF
:100C00005F02FD013196FF2019F0A756BD4F02C0CB
:100C1000AB59BD4F8C91809360022F010894411C09
:100C2000511CFF2019F0E756FD4F02C0EB59FD4F54
:100C3000808180936102FF2021F0F201E756FD4F91
:100C400003C0F201EB59FD4FE081E0936202E090B6
:100C50005F02F090600200916102109162028CE0EC
:100C600092E00E946D1090E08C159D0529F08CE0BB
:100C700092E06C2D0E943D0A12010894211C311C47
:100C80008CE092E0B801A7010E94250B3DC22B30F9
:100C9000310509F060C0D1011196FF2019F029E952
:100CA00032E002C025E632E0220E331EF1016081FF
:100CB00060935F02FD013196FF2019F0A756BD4FEA
:100CC00002C0AB59BD4F8C9180936002BF016F5F32
:100CD0007F4FFF2019F0E756FD4F02C0EB59FD4F43
:100CE000808180936102FF2021F0FB01E756FD4FD8
:100CF00003C0FB01EB59FD4FE0811B010894211C4F
:100D0000311CE093620282010F7010708AEA91E058
:100D10006C2D402F0E949C10682F8AEA91E070E0B1
:100D20000E9407128AEA91E06C2D402F0E949C10CD
:100D3000182F60915F027091600280916102909122
:100D400062020E94B62B9B01AC018AEA91E0612FFE
:100D500070E0422F7DC12330310521F0243131056F
:100D600009F05DC0D1011196FF2019F029E932E0A8
:100D700002C025E632E0220E331EF101608160934D
:100D80005F02FD013196FF2019F0A756BD4F02C04A
:100D9000AB59BD4F8C91809360028F010F5F1F4F45
:100DA000FF2019F0E756FD4F02C0EB59FD4F80813F
:100DB00080936102FF2021F0F801E756FD4F03C048
:100DC000F801EB59FD4FE081E093620286E192E089
:100DD0000E946D1090E08C159D0529F086E192E04F
:100DE0006C2D0E94731018010894211C311C10E016
:100DF00060915F0270916002809161029091620245
:100E000020E030E040E85FE30E94132D88230CF0DF
:100E100011E086E192E0612F0E94CE1075C12E3163
:100E2000310509F053C0D1011196FF2019F029E9CD
:100E300032E002C025E632E0220E331EF10160816D
:100E400060935F02FD013196FF2019F0A756BD4F58
:100E500002C0AB59BD4F8C9180936002BF016F5FA0
:100E60007F4FFF2019F0E756FD4F02C0EB59FD4FB1
:100E7000808180936102FF2021F0FB01E756FD4F46
:100E800003C0FB01EB59FD4FE0811B010894211CBD
:100E9000311CE0936202802F61E00E94921D10E0FD
:100EA00060915F0270916002809161029091620294
:100EB00020E030E040E85FE30E94132D88230CF02F
:100EC00011E0802F612F0E941F1E1EC1C9014F9784
:100ED000029708F04DC0D1011196FF2019F029E9C1
:100EE00032E002C025E632E0220E331EF1016081BD
:100EF00060935F02FD013196FF2019F0A756BD4FA8
:100F000002C0AB59BD4F8C9180936002BF016F5FEF
:100F10007F4FFF2019F0E756FD4F02C0EB59FD4F00
:100F2000808180936102FF2021F0FB01E756FD4F95
:100F300003C0FB01EB59FD4FE0811B010894211C0C
:100F4000311CE0936202802F61E00E94921D60914B
:100F50005F027091600280916102909162020E9432
:100F6000B62B9B01AC01802FB9010E94ED1CCCC0B7
:100F70002132310509F06FC0D1011196FF2019F01F
:100F800029E932E002C025E632E0220E331EF101EB
:100F9000608160935F02FD013196FF2019F0A75632
:100FA000BD4F02C0AB59BD4F8C91809360026F0161
:100FB0000894C11CD11CFF2019F0E756FD4F02C058
:100FC000EB59FD4F808180936102FF2021F0F601F3
:100FD000E756FD4F03C0F601EB59FD4FE081E0936A
:100FE000620280915F0290916002A0916102B091D3
:100FF000620280931C0190931D01A0931E01B09387
:101000001F018AEA91E0B2010E940712E0901C01E0
:10101000F0901D0100911E0110911F01C801B70140
:1010200020E030E040E050E00E94132D18161CF440
:10103000C801B70103C0C801B70190580E94BB2B7B
:10104000462F16010894211C311C8AEA91E0B20156
:101050000E94D01159C02232310509F055C0F1016A
:101060003196FF2019F029E932E002C025E632E08E
:10107000220E331ED1016C9160935F02DF01119645
:10108000FF2019F0E756FD4F02C0EB59FD4F80815C
:1010900080936002FD013196FF2019F0A756BD4FE5
:1010A00002C0AB59BD4F8C91809361021F0108941F
:1010B000211C311CFF2019F0E756FD4F02C0EB59EF
:1010C000FD4F2081209362029091600230915F0277
:1010D000BFEF2B9FF001112480916102E80FF11DF9
:1010E000309779F09F871E866E857F85630F711D0F
:1010F0009F01442737FD4095542F802F0E9446239F
:1011000003C0802F0E942F23C1010397EC81FD8132
:10111000E817F9070CF026CC37C085EE91E069E0BE
:101120000E94731085EE91E060E070E00E94B20BC7
:1011300085EE91E06AE00E94731085EE91E060E038
:1011400070E00E94B20B85EE91E061E00E947310A6
:1011500085EE91E060E070E00E94B20B85EE91E0D8
:1011600062E00E94731085EE91E060E070E00E9402
:10117000B20B0AC06A9A729A64E670E080E090E06E
:101180000E94FC1B6A9A729861960FB6F894DEBFB3
:101190000FBECDBFCF91DF911F910F91FF90EF90C8
:1011A000DF90CF90BF90AF909F908F907F906F9087
:1011B0005F904F903F902F9008958AE192E00E94B7
:1011C0002510882371F08AE192E00E94141018160D
:1011D00019064CF48AE192E00E94E10F8093D0025C
:1011E00002C01092D0020E943E02809163028823C6
:1011F00009F44FC02091D102253571F48091CF02BE
:10120000882351F48091D2028F3F31F581E08093A1
:10121000CD028093CF0220C02093D2028091CF02D2
:101220008823D1F09091CD02933019F42093CE020F
:1012300007C0943028F08091CE0281508093CE0276
:10124000E92FF0E080916402882319F0E756FD4F02
:1012500002C0EB59FD4F20838091CD028F5F8093B8
:10126000CD02843320F01092CD021092CF028091F3
:10127000CF02882371F08091CE02882351F48091AF
:10128000CD02843030F01092CF020E943B041092C5
:10129000CD0208958DE061E00E94921D8DE061E035
:1012A0000E941F1E6CE271E080E090E00E94FC1B37
:1012B0008DE060E00E941F1E8CE994E040E052EC5B
:1012C00061E070E00E94BE208FE192E00E94A20CDB
:1012D00086E094E060E072EC0E941E1F68EE73E00E
:1012E00080E090E00E94FC1B6A9A729A64E670E0CB
:1012F00080E090E00E94FC1B6A9A729808952F92F9
:101300003F924F925F926F927F928F929F92AF9295
:10131000BF92CF92DF92EF92FF920F931F93CF93E2
:10132000DF931A012B01E90137FD44C02196BE016C
:10133000882777FD8095982F21970E94E92B9B01A4
:10134000AC0160E070E080E291E40E94812D5B01DD
:101350006C01C201B101A60195010E944E2B0E94B1
:10136000242C3B014C01BE01882777FD8095982FE6
:101370000E94E92B9B01AC0160E070E080E291E407
:101380000E94812D7B018C01C401B301A60195014E
:101390000E941E2D9B01AC01C201B1010E94832A53
:1013A000A80197010E944E2B0E94242C0E94B62B6C
:1013B000CB011CC000271127021B130BC0E0D0E09B
:1013C000C201B10120E030E040E251E40E941E2D54
:1013D0001B012C012196C017D10794F30E94B62B54
:1013E000DC01CB016AE070E00E942F2FDF91CF91EA
:1013F0001F910F91FF90EF90DF90CF90BF90AF9033
:101400009F908F907F906F905F904F903F902F9024
:1014100008950F931F938C01FC01808560E00E946A
:101420001F1EF801818560E00E941F1EF801808563
:1014300061E00E941F1EF801818561E00E941F1E6D
:101440001F910F9108950F931F938C01FC018085CC
:1014500061E00E941F1EF801818561E00E941F1E4D
:10146000F801818560E00E941F1EF801808560E020
:101470000E941F1E1F910F9108950F931F938C01BF
:10148000E62FDC0112966C931297F0E0EE0FFF1F2F
:10149000E05EFE4F818111968C93119790819C9311
:1014A00018968C93189719969C9361E00E94921D50
:1014B000F801818561E00E94921D80E4D8011496B4
:1014C0008C93149780EC15968C9315978AE8169652
:1014D0008C931F910F910895FF920F931F93CF93B9
:1014E000DF93EC01162FFF24888560E00E941F1E09
:1014F000012F112707FD109500FF03C0898561E0CA
:1015000002C0898560E00E941F1E888561E00E94FC
:101510001F1EF39488E0F81621F015950795102FFB
:10152000E3CF888560E00E941F1E898561E00E94EC
:101530001F1E888561E00E941F1E898560E00E9451
:10154000921D0BC01F5F183C49F4898561E00E9421
:10155000921D898560E00E941F1E10E089850E940F
:10156000521E892B79F7898561E00E94921DDF91D7
:10157000CF911F910F91FF9008950F931F93DF93C9
:10158000CF9300D000D0CDB7DEB78C0120E030E0A3
:10159000AE014F5F5F4FFA01E20FF31FDB01A20FB5
:1015A000B31F8C9180832F5F3F4F2430310599F713
:1015B000DA019E012B5F3F4FEC91EF3711F41C9243
:1015C00007C0FF27E7FDF095E85BFE4F80818C9315
:1015D0001196A217B30781F7C8010E94230AC80118
:1015E00060E40E946C0AC8010E94090AC8010E94B6
:1015F000230AC801F80165810E946C0AC80169814B
:101600000E946C0AC8016A810E946C0AC8016B8141
:101610000E946C0AC8016C810E946C0AC8010E9479
:10162000090AC8010E94230AC801F80166810E94C4
:101630006C0AC8010E94090A0F900F900F900F903A
:10164000CF91DF911F910F9108952F923F924F926A
:101650005F926F927F929F92AF92BF92CF92DF92F2
:10166000EF92FF920F931F93DF93CF9300D000D0A0
:10167000CDB7DEB73C017A018B0119821A821B8239
:101680001C82CB01BA0120E030E040E050E00E9433
:101690004A2B87FD03C0AA24BB2409C017FB109561
:1016A00017F9109580E2898331E0A32EB12CCC2468
:1016B000DD24992423E0222E312C2E010894411C94
:1016C000511C91012C193D09C301B801A7010E94C9
:1016D0007F09181619063CF023E0C216D10439F030
:1016E0009920B1F00EC023E0C216D10441F4F201FA
:1016F000EA0DFB1D805F80839924939406C0992492
:101700009394F201EA0DFB1D80830894A11CB11C87
:1017100084E0A816B1043CF40894C11CD11C27E055
:10172000C216D10471F6C301BE016F5F7F4F0E94E4
:10173000BD0A0F900F900F900F90CF91DF911F91E6
:101740000F91FF90EF90DF90CF90BF90AF909F9060
:101750007F906F905F904F903F902F9008950E94E0
:101760003C100895EF92FF920F931F93CF93DF9356
:10177000F82EE92EEB016F3F710519F014F0CFEF51
:10178000D0E08E018FEFC130D8071CF401E01FEFCD
:101790000BC0D7FD09C08F2D9E2D61E00E94BB10AC
:1017A0008F2D9E2DBE010BC08F2D9E2D60E00E94BF
:1017B000BB1066277727601B710B8F2D9E2D0E9413
:1017C000AC10DF91CF911F910F91FF90EF90089592
:1017D00060E00E944E1008950895EF92FF920F93DB
:1017E0001F93FC01E08CF18C028D138DC801B701B1
:1017F00020E030E040E050E00E944A2B882329F4AA
:10180000E0E070E080E060E00AC0C801B70120E0DD
:1018100030E040E251E40E944E2BE62F692F2E2F3C
:10182000372F482F562FB901CA011F910F91FF90F2
:10183000EF900895EF92FF920F931F93CF93DF9352
:10184000FC01C0A1D1A1209729F4E0E070E080E084
:1018500060E027C0668D778D882777FD8095982F6B
:101860000E94E92B7B018C01BE01882777FD8095C2
:10187000982F0E94E92B9B01AC01C801B7010E947F
:101880004E2B0E94222B20E030E044E353E40E94E0
:101890001E2D2AED3FE049E450E40E944E2BE62F36
:1018A000692F2E2F372F482F562FB901CA01DF91EC
:1018B000CF911F910F91FF90EF900895EF92FF92BB
:1018C0000F931F93CF93DF93FC01C0A1D1A1209769
:1018D00029F4E0E070E080E060E027C0648D758D61
:1018E000882777FD8095982F0E94E92B7B018C013A
:1018F000BE01882777FD8095982F0E94E92B9B01D8
:10190000AC01C801B7010E944E2B0E94222B20E09F
:1019100030E044E353E40E941E2D2AED3FE049E409
:1019200050E40E944E2BE62F692F2E2F372F482F81
:10193000562FB901CA01DF91CF911F910F91FF90EE
:10194000EF900895FC0180E090E0A3E8B2E480838A
:101950009183A283B38380E090E0A0E0B0E0848331
:101960009583A683B78380879187A287B38784876F
:101970009587A687B787808B918BA28BB38B848B3F
:10198000958BA68BB78B808F918FA28FB38F158E7F
:10199000148E178E168E11A210A280E090E8ACE88B
:1019A000B3EC82A393A3A4A3B5A380E090E0A0E945
:1019B000B1E486A397A3A0A7B1A780E090E0A6EA30
:1019C000B2EC82A793A7A4A7B5A780E090E0A0EF10
:1019D000B1E486A797A7A0ABB1AB8FE393E00E94D9
:1019E000D8170895EF92FF921F93CF93DF93162F8E
:1019F0007A01E9018FE393E068E670E00E94031743
:101A00008FE393E0612F0E948517019719F02CEE68
:101A10003FEF13C08FE393E0B701AE010E9454176C
:101A20008C179D0719F02BEE3FEF07C08FE393E073
:101A300061E00E94B517282F30E0C901DF91CF91F6
:101A40001F91FF90EF900895DF93CF930F92CDB742
:101A5000DEB74983AE014F5F5F4F21E030E00E9467
:101A6000F20C0F90CF91DF910895AF92BF92CF9279
:101A7000DF92EF92FF920F931F937C016BE670E071
:101A800040E00E94240D5C01C7016AE170E041E082
:101A90000E94240D8C01C7016BE170E048E00E94B8
:101AA000240D6C0160E070E08AE794E4F70126A55C
:101AB00037A540A951A90E944E2B20E030E040E814
:101AC0005FE30E94832A0E94BB2B9B01AC01C701EC
:101AD00069E170E0422F0E94240D0A0D1B1D0C0DC0
:101AE0001D1D080F191FC8011F910F91FF90EF9046
:101AF000DF90CF90BF90AF900895CF92DF92EF929A
:101B0000FF920F931F93CF93DF93162F6A017901F2
:101B10008FE393E068E670E00E9403178FE393E0A1
:101B2000612F0E948517019719F006EF1FEF35C04E
:101B30008FE393E060E00E94B517082F10E00115D5
:101B4000110559F581E090E00E94551C8FE393E068
:101B500068E670E0A70121E030E00E94D517C0E000
:101B6000D0E08FE393E00E940D17892B69F0CE152A
:101B7000DF0554F48FE393E00E941617F601EC0F93
:101B8000FD1F80832196EDCF81E090E00E94551CDF
:101B9000CE15DF0511F005EF1FEFC801DF91CF91E2
:101BA0001F910F91FF90EF90DF90CF9008952F92AB
:101BB0003F924F925F926F927F928F929F92AF92DD
:101BC000BF92CF92DF92EF92FF920F931F93DF931A
:101BD000CF93CDB7DEB762970FB6F894DEBF0FBED6
:101BE000CDBF9A8B898B0E94C81B89899A890E94D4
:101BF000350D892B09F0CCC149895A894E5C5F4F5C
:101C000089899A896BE370E02EE030E00E947D0DB7
:101C1000882309F0BDC1A989BA89D2969C91D2972F
:101C200080E0D3966C90D3977724682A792A5D96C2
:101C30007C926E925C97D4969C91D49780E0D596D6
:101C4000AC90D597BB24A82AB92A5F96BC92AE92D5
:101C50005E97D6969C91D69780E0D7962C90D79792
:101C60003324282A392A91963C922E929097DA961C
:101C70007C91DA9760E0DB962C9130E0622B732B3D
:101C8000882777FD8095982F0E94E92BE989FA89AA
:101C900022A133A144A155A10E94832AA989BA890E
:101CA0002D913D914D915C910E944E2B6D837E83D1
:101CB0008F839887E989FA89608B718B828B938BEC
:101CC00074AD60E025AD30E0622B732B882777FD83
:101CD0008095982F0E94E92BA989BA8996962D9113
:101CE0003D914D915C9199970E94832AE989FA89E7
:101CF00020813181428153810E944E2B69877A87EE
:101D00008B879C87A989BA8954966D937D938D930F
:101D10009C935797DE967C91DE9760E0DF962C913E
:101D200030E0622B732B882777FD8095982F0E94D7
:101D3000E92BE989FA8922A533A544A555A50E9476
:101D4000832A7B018C01A989BA896D917D918D913E
:101D50009C9120E030E040E85FE30E94842A9B01F0
:101D6000AC01C801B7010E944E2B6D877E878F871B
:101D7000988BE989FA89608F718F828F938F88247D
:101D800077FC8094982CC401B3010E94E92B3B019D
:101D90004C01CC24B7FCC094DC2CC601B5010E94D8
:101DA000E92B69837A838B839C839B01AC010E941E
:101DB0001E2D7B018C01442437FC4094542CC2011D
:101DC000B1010E94E92B9B01AC010E941E2D5B0119
:101DD0006C01C801B701A60195010E94842A0E94E6
:101DE000D12D9B01AC01C401B3010E94F72A1B0154
:101DF0002C01C401B301A40193010E941E2D9B017B
:101E0000AC01CA01A60195010E94842A0E94D12D2D
:101E10009B01AC0169817A818B819C810E94F72AA8
:101E20003B014C016D817E818F819885A989BA899A
:101E30009E962D913D914D915C91D1970E944E2B94
:101E40009B01AC01E989FA8964817581868197815A
:101E50000E94842A7B018C01A989BA8914966D930A
:101E60007D938D939C93179769857A858B859C8547
:101E70009E962D913D914D915C91D1970E944E2B54
:101E80009B01AC01E989FA8960857185828593851A
:101E90000E94832A5B016C01A989BA8918966D9307
:101EA0007D938D939C931B976D857E858F859889F7
:101EB0009E962D913D914D915C91D1970E944E2B14
:101EC0009B01AC01E989FA896485758586859785CA
:101ED0000E94842AA989BA891C966D937D938D935B
:101EE0009C931F97C801B7012FE832EC45E75FE3E9
:101EF0000E941E2D7B018C01C401B30120E030E063
:101F000044E353E40E941E2D2BED3FE049E450E4EE
:101F10000E944E2B2AE037ED43E25DE30E941E2D26
:101F20009B01AC01C801B7010E94842AE989FA89A2
:101F30006483758386839783C601B5012FE832ECED
:101F400045E75FE30E941E2D7B018C01C201B101B8
:101F500020E030E044E353E40E941E2D2BED3FE0EF
:101F600049E450E40E944E2B2AE037ED43E25DE362
:101F70000E941E2D9B01AC01C801B7010E94842A5A
:101F8000A989BA8918966D937D938D939C931B971D
:101F900062960FB6F894DEBF0FBECDBFCF91DF9132
:101FA0001F910F91FF90EF90DF90CF90BF90AF9077
:101FB0009F908F907F906F905F904F903F902F9069
:101FC0000895FC01848114820895EF92FF921F937B
:101FD000CF93DF937C01FC0181810E94521E892BEB
:101FE00011F010E01AC010E0C0E0D0E085E690E00B
:101FF0000E94551CF70181810E94521E0C2E02C0C6
:10200000880F991F0A94E2F7182B2196C830D10542
:1020100069F785E690E00E94551C812FDF91CF91F2
:102020001F91FF90EF900895CF93DF93EC010E94F2
:10203000E50F18161CF020E030E003C08C8321E08F
:1020400030E0C901DF91CF9108950F931F93182FAE
:10205000092F0E946D10882311F490E006C0812F93
:10206000902F0E94F51091E09827892F1F910F91D2
:1020700008950E943C100895FC0180912001808306
:1020800080912101818312820895FC0180912001B9
:10209000808380912101818312820895DC01E62FE3
:1020A000F0E0EE0FFF1FE05EFE4F80818C93818198
:1020B00011968C93119712966C9391E090938000F7
:1020C0008BE080938100909390008093910087E053
:1020D0008093C1001092C3000895FC01828108958D
:1020E000FC0183810895DC01E62FF0E0EE0FFF1F75
:1020F000E05EFE4F80818C93818111968C931197C5
:1021000012966C930895DC01E62FF0E0EE0FFF1FAE
:10211000E05EFE4F80818C93818111968C931197A4
:1021200012966C93129713964C930895FC0180813C
:102130000895FC0181810895E62FF0E0413031F4EB
:10214000EE0FFF1FE05EFE4F80810895EE0FFF1F30
:10215000E05EFE4F81810895FC0180810E94ED1CAC
:102160000895FC0181810E94B51C0895FC018081C5
:102170000E94B51C0895FF920F931F938C01F62EB9
:10218000FC01818161E00E94921DF80181816F2D27
:102190000E941F1E1F910F91FF900895FF920F93B1
:1021A0001F938C01F62EFC01808161E00E94921D3C
:1021B000F80180816F2D0E941F1E1F910F91FF90CB
:1021C00008950F931F938C01FC01818160E00E94B0
:1021D000921DF80181810E94521E20E0892B09F096
:1021E00021E0822F1F910F9108950F931F938C016F
:1021F000FC01808160E00E94921DF80180810E94B4
:10220000521E20E0892B09F021E0822F1F910F91AF
:102210000895FC01848108950F93DC01522F262F2D
:1022200030E014968D919C9115972817390710F07E
:1022300080E01BC083E0689F802D112490E01696FB
:10224000ED91FC911797E80FF91F50831696ED91C9
:10225000FC911797E80FF91F41831696ED91FC91B9
:102260001797E80FF91F028381E00F910895CF932C
:10227000DF93FC01C681D781848195819C01220F67
:10228000331F280F391F9485A085B1855FB7F89457
:102290008C91492F40954823982B11C0899168E073
:1022A0009C9300C087FF4C93880F00C000C000C003
:1022B00008F44C9300C06A9599F7215030402115DD
:1022C000310561F75FBFDF91CF9108950895CF93F6
:1022D000DF93EC0170E07D836C83CB01880F991F45
:1022E000860F971F0E944B1A8E839F8340E050E019
:1022F00007C0EE81FF81E40FF51F10824F5F5F4F33
:102300002C813D81C901880F991F820F931F4817A7
:10231000590778F3DF91CF910895DC01E62F1296EB
:102320006C931297F0E0EE0FFF1FE05EFE4F81818D
:1023300011968C93119790819C93282F30E0F9018E
:10234000ED55FE4FE4911C96EC931C972B573E4F96
:10235000F901249130E0220F331FF901E759FE4FB4
:102360004591549119965C934E931897F901E55A4B
:10237000FE4F259134911B963C932E931A9761E062
:102380000E94921D08950F931F938C0160E00E949C
:102390004E10C80160E10E9467111F910F910895CE
:1023A000CF93DF93DC0115964C93159716961C92EC
:1023B0001697EC01FC0120E030E0818992896817D2
:1023C000790739F02F5F3F4F329628303105A9F752
:1023D0001BC020E030E089899A896817790741F0AD
:1023E0002F5F3F4F229628303105A9F72FEF3FEF9F
:1023F000C901880F991F820F931F83968A0F9B1F15
:10240000642F70E00E945715DF91CF910895EF92ED
:10241000FF920F931F93CF93DF93EC018B017C010D
:10242000FC0120E030E0818992890817190789F0C2
:102430002F5F3F4F329628303105A9F75AC0FC0173
:10244000EE0FFF1FEC0FFD1F128B018B01969AA35D
:1024500089A3FE0120E030E08189928908171907DD
:1024600039F02F5F3F4F329628303105A9F748C029
:1024700081E08C83802F61E00E94921DFE0120E0AC
:1024800030E0818992890817190741F02F5F3F4F8B
:10249000329628303105A9F72FEF3FEFC901880F99
:1024A000991F820F931F83968C0F9D1F0E944515C5
:1024B000882331F520E030E0F701818992890817FF
:1024C000190759F02F5F3F4F82E090E0E80EF91EA8
:1024D0002830310589F72FEF3FEFC901880F991F89
:1024E000820F931F83968C0F9D1FB8010E943E168A
:1024F00007C089A19AA1883091050CF0AACF9FCF7F
:10250000DF91CF911F910F91FF90EF900895EF927F
:10251000FF920F931F93CF93DF938C010E943C1087
:10252000B3E2EB2EF12CE00EF11EC0E0D0E0C701CB
:102530008C0F9D1F0E94EF142396C831D105B9F767
:10254000F8011482108617828AE590E096838583CD
:102550000E94D61BF8016387748785879687108A47
:10256000178612A211A2DF91CF911F910F91FF90B8
:10257000EF9008951F93CF93DF93EC01142F0E94E7
:102580008310123011F4E98101C0E8812E2F30E070
:10259000C9018D559E4FFC0184918C832B573E4F72
:1025A000F9018491E82FF0E0EE0FFF1FE958FE4F8C
:1025B000859194919E838D83DF91CF911F91089592
:1025C0000E943C100895DF92EF92FF920F931F93A9
:1025D000FC01E08001811281F894F80181818E294B
:1025E00081838281DE2CD0948D21828383E090E0F0
:1025F0000E94551CF80181818D21818382818E2961
:1026000082838AE090E00E94551CF8010081789452
:1026100085E390E00E94551C80E010E0FF240E212D
:102620001F21012B09F081E01F910F91FF90EF9086
:10263000DF900895EF92FF920F931F93CF93DF9354
:102640007C0101E010E0C0E0D0E0C7010E94E3128D
:102650008111102B000F2196C830D105B1F7812FC1
:10266000DF91CF911F910F91FF90EF9008951F93ED
:10267000CF93DF93FC011081C181D281912F90957E
:1026800060FF12C0F8948A8189238A838981812B13
:1026900089838AE090E00E94551C8A81812B8A837D
:1026A000789487E390E011C0F8948A8189238A8323
:1026B0008981812B898381E490E00E94551C8A8165
:1026C000812B8A83789485E090E00E94551CDF91ED
:1026D000CF911F910895CF92DF92EF92FF920F93C7
:1026E0001F93CF93DF93EC01E42EFF24F39400E0DB
:1026F00010E0C62EDD2460E08F2D90E08C219D211E
:10270000892B09F061E0CE010E943713FF0C0F5FA7
:102710001F4F0830110579F7EE20B1F4F894E981E4
:10272000FA8191818881809598239183E981FA814A
:1027300082819881892B8283E981FA8192818881C3
:102740008095982392837894DF91CF911F910F9178
:10275000FF90EF90DF90CF9008956CEC40E00E94E6
:102760006B130895DF92EF92FF920F931F93CF9315
:10277000DF93FC010081C181D281F8948981D02E40
:10278000D0948D2189838A81802B8A8378941DE758
:10279000E02EFF24115071F182E090E00E94551C60
:1027A000888190E08E219F21892BA1F3F8948A8162
:1027B0008D218A838981802B8983789480EE91E0B2
:1027C0000E94551CF89489818D2189838A81802BF0
:1027D0008A8386E490E00E94551C888110E090E096
:1027E000E822F922EF2809F411E078948AE991E0CF
:1027F0000E94551C812FDF91CF911F910F91FF9067
:10280000EF90DF900895EF92FF920F931F93FC01DA
:10281000E08001811281F80181819E2D90958923AC
:10282000818382818E2982838AE090E00E94551CF8
:10283000F801808120E090E0FF248E219F21892BE8
:1028400009F021E0822F1F910F91FF90EF900895E2
:10285000AF92BF92CF92DF92EF92FF920F931F93AE
:10286000DF93CF93CDB7DEB72C970FB6F894DEBFCA
:102870000FBECDBF74E0E72EF12CE80EF91EC701A4
:102880000E94B213C7010E94AD13C70164E440E087
:102890000E946B130E94C81B5B016C01C7010E9460
:1028A00003148823C1F50E94C81B6A197B098C098F
:1028B0009D096E5E72408040904068F5EFCFC70181
:1028C0000E941A13F80181938F01EC15FD05B9F7E9
:1028D0007A8160E0298130E0622B732B882777FDB5
:1028E0008095982F0E94E92B20E030E040E85DE3DE
:1028F0000E941E2D2C960FB6F894DEBF0FBECDBFE2
:10290000CF91DF911F910F91FF90EF90DF90CF90CB
:10291000BF90AF900895C7010E94B213C7010E94F3
:10292000AD13C7016EEB40E00E946B138E010F5F89
:102930001F4F66E0C62ED12CCC0EDD1EC0CFCF922D
:10294000DF92EF92FF920F931F938C016A017B013C
:1029500060E00E94BB1082E090E00E94551CC8011C
:1029600061E00E94BB108AE090E00E94551CC80103
:1029700060E00E94BB10F801818160E00E94921D1E
:10298000F801818161E0A70196010E94821E1F91DA
:102990000F91FF90EF90DF90CF90089527E330E004
:1029A000629FA001639F500D729F500D11244853E8
:1029B0005F4F60E070E00E949F140E94E92B20E0CE
:1029C00030E048E652E40E944E2B089560E971E041
:1029D0000E94CE14089560E00E944E100895FC01FC
:1029E0008091D3028C3090F480838F5F8093D302E8
:1029F000815090E0FC01EE0FFF1FE80FF91FEC5231
:102A0000FD4F88EB9BE09283818308958FEF808355
:102A10000895FC0120812C30B8F58181992787FD2C
:102A2000909548E850E0481B590B440F551F440F40
:102A3000551F6417750784F08281992787FD90954B
:102A400048E552E0481B590B440F551F440F551FD2
:102A5000641775070CF4AB0142505040CA01AA2715
:102A600097FDA095BA2F880F991FAA1FBB1F4FB7BC
:102A7000F89430E0F901EE0FFF1FE20FF31FEC5264
:102A8000FD4F928381834FBF0895FC01808190E0C8
:102A9000FC01EE0FFF1FE80FF91FEC52FD4F808184
:102AA000829586958695817009F081E00895AF92B0
:102AB000BF92CF92DF92EF92FF920F931F93CF932B
:102AC000DF93EC019B0182E0603278070CF048C094
:102AD00077FF03C020E030E005C0653B710514F0CE
:102AE00024EB30E000D000D0B901882777FD809535
:102AF000982F2981332727FD3095E8E8AE2EB12C99
:102B0000A21AB30AAA0CBB1CAA0CBB1CCC24B7FC8F
:102B1000C094DC2CEA81FF27E7FDF09528E532E040
:102B20002E1B3F0B220F331F220F331F442737FD6D
:102B30004095542FEDB7FEB72183328343835483EE
:102B400020E030E040E050E004EBE02EF12C012DDD
:102B5000112D0E94F7289B010F900F900F900F905E
:102B6000CE01B9010E940915DF91CF911F910F91FC
:102B7000FF90EF90DF90CF90BF90AF900895CF92ED
:102B8000DF92EF92FF921F93CF93DF93EC01162F0A
:102B90007A01690188818C3008F064C0862F61E079
:102BA0000E94921D888190E0FC01EE0FFF1FE80F4C
:102BB000F91FEC52FD4F1F738081807C812B808335
:102BC00080E292E08E199F0964E070E00E942F2F4E
:102BD000698380E699E08C199D0964E070E00E94A9
:102BE0002F2F6A83A8818A2F6CE00E94232F682FE1
:102BF00070E0AB01440F551F460F571F440F551F80
:102C0000440F551F20E030E0C901840F951FFC01DF
:102C1000EE0FFF1FE80FF91FEC52FD4F808186FD7C
:102C200015C02F5F3F4F2C30310571F724C0109233
:102C3000800082E0809381001092850010928400D1
:102C4000B19A80916F00826080936F008A2F90E02C
:102C5000FC01EE0FFF1FE80FF91FEC52FD4F8081C2
:102C6000806480838881DF91CF911F91FF90EF90E6
:102C7000DF90CF900895672BD1F2E8CF40E252E089
:102C800020E639E00E94BF1508951F920F920FB6FB
:102C90000F9211242F933F934F935F936F937F93E2
:102CA0008F939F93AF93BF93EF93FF938091F8021D
:102CB00087FF05C010928500109284002BC02091E0
:102CC000F802332727FD30958091D30290E0281732
:102CD000390704F58091F802992787FD9095FC014A
:102CE000EE0FFF1FE80FF91FEC52FD4F808186FFAA
:102CF00011C08091F802992787FD9095FC01EE0F95
:102D0000FF1FE80FF91FEC52FD4F80818F7360E0C9
:102D10000E941F1E8091F8028F5F8093F80220911D
:102D2000F802332727FD30958091D30290E02817D1
:102D300039070CF04EC08091F8028C300CF049C07D
:102D400020918400309185008091F802992787FDB9
:102D50009095FC01EE0FFF1FE80FF91FEC52FD4F9D
:102D600081819281280F391F309389002093880038
:102D70008091F802992787FD9095FC01EE0FFF1FC7
:102D8000E80FF91FEC52FD4F808186FF2BC0809128
:102D9000F802992787FD9095FC01EE0FFF1FE80FC1
:102DA000F91FEC52FD4F80818F7361E00E941F1E5E
:102DB00019C080E49CE905C0809184009091850051
:102DC000049690938900809388008FEF8093F80297
:102DD00009C08091840090918500049680549C499C
:102DE00040F3EACFFF91EF91BF91AF919F918F9107
:102DF0007F916F915F914F913F912F910F900FBEF7
:102E00000F901F90189581E080933E0360931B0301
:102E100010923C0310923D03089520911A0330E074
:102E200080911903281B3109C901089540911903A4
:102E300080911A03481718F02FEF3FEF0AC0E42FD4
:102E4000F0E0E750FD4F8081282F30E04F5F409346
:102E50001903C9010895E091190380911A03E81735
:102E600018F0EFEFFFEF06C0F0E0E750FD4F808174
:102E7000E82FF0E0CF0108950895109242031092D8
:102E8000410388EE93E0A0E0B0E080934303909389
:102E90004403A0934503B09346038DE691E09093DD
:102EA000400380933F030895CF92DF92EF92FF9209
:102EB0000F931F93CF93DF937C016B018A01809165
:102EC0003E038823A1F0C0E0D0E00DC0D701ED9112
:102ED000FC91D601AC0FBD1F0190F081E02DC70120
:102EE0006C9109952196C017D10780F304C0CB01DE
:102EF000642F0E948118C801DF91CF911F910F911B
:102F0000FF90EF90DF90CF900895DF93CF930F92D3
:102F1000CDB7DEB7FC01698380913E038823C9F0F9
:102F200080913D03803238F081E090E0938382838A
:102F300020E030E015C080913C03E82FF0E0E45E33
:102F4000FC4F998190838F5F80933C0380933D0376
:102F500005C0CE01019661E00E94811821E030E0B9
:102F6000C9010F90CF91DF9108950F93062F8091A3
:102F70001B036CE173E040913D0321E00E942C189B
:102F800010923C0310923D0310923E030F9108955E
:102F9000413208F040E2862F69EF72E00E94E317A9
:102FA0001092190380931A0308950E94C817089578
:102FB0001092190310921A0310923C0310923D03D1
:102FC0000E942D1A0895382F413210F040E042C07F
:102FD00080914B038823E1F791E090934B0320937A
:102FE0004D038FEF8093B8031092730341504093C9
:102FF00074034F5F90934C0380914C03330F832BEA
:1030000080934C0380914E03813041F410924E0323
:1030100080914C038093BB0085EC01C085EE8093CA
:10302000BC0080914B038130E1F3809173038417DE
:1030300010F44091730320E030E00AC0FB01E20F7E
:10304000F31FD901AD5ABC4F8C9180832F5F3F4F46
:103050002417A0F3842F08950F931F93582F122F36
:10306000413210F081E04AC080914B038823E1F7A0
:1030700082E080934B0300934D038FEF8093B8035E
:103080001092730340937403A3E5B3E0FB0102C005
:1030900081918D938E2F861B8417D0F310924C0351
:1030A00080914C03550F852B80934C0380914E03E8
:1030B000813041F410924E0380914C038093BB0009
:1030C00085EC01C085EE8093BC00112321F0809136
:1030D0004B038230E1F38091B8038F3F11F480E01D
:1030E0000DC08091B803803211F482E007C0809156
:1030F000B803803311F084E001C083E01F910F9189
:103100000895482F613210F081E0089580914B03BB
:10311000843011F082E0089560939603A5E7B3E050
:10312000842F9C01F90102C081918D938E2F841B05
:103130008617D0F380E008951F920F920FB60F927A
:1031400011242F933F934F935F936F937F938F93AC
:103150009F93AF93BF93EF93FF938091B90090E05B
:10316000887F90708036910509F4F2C08136910510
:10317000CCF58832910509F47BC089329105B4F40D
:103180008031910509F46FC0813191053CF40097BD
:1031900009F447C1089709F04FC165C0883191050E
:1031A00009F466C0809709F047C182C08034910558
:1031B00009F4A4C08134910544F48033910509F4E5
:1031C00082C0C89709F038C189C08035910509F4DB
:1031D00089C08835910509F496C08834910509F0B5
:1031E0002BC1AEC08839910509F413C18939910505
:1031F000ECF48837910509F4ABC0893791054CF49C
:103200008836910509F4A4C08037910509F014C1EE
:103210009FC08838910509F4FCC08039910509F4F4
:103220009DC08038910509F007C198C0803B910589
:1032300009F4C6C0813B91054CF4803A910509F42C
:103240009FC0883A910509F0F7C0BAC0803C91054B
:1032500009F4E3C0883C910509F4DFC0883B91057F
:1032600009F0EAC0C2C080914C038093BB00CFC07C
:103270009091730380917403981768F4909173038D
:10328000E92FF0E0ED5AFC4F80818093BB009F5FF7
:1032900090937303BCC080914D03882309F44BC005
:1032A00085ED8093BC008091BC0084FDFCCFC2C042
:1032B00080E28093B80385ED8093BC008091BC00D0
:1032C00084FDFCCFB7C080E38093B80385ED809385
:1032D000BC008091BC0084FDFCCFACC088E380932F
:1032E000B8039BC0809173039091BB00E82FF0E07E
:1032F000ED5AFC4F90838F5F80937303909173031B
:103300008091740382C0809173039091BB00E82F79
:10331000F0E0ED5AFC4F90838F5F809373038091B0
:103320004D03882341F085ED8093BC008091BC0063
:1033300084FDFCCF7FC081E080934E0384EA6EC0A1
:1033400085ED8093BC008091BC0084FDFCCF72C0F1
:1033500083E080934B031092B70359C08091B70369
:10336000803208F056C08091B7039091BB00E82FDF
:10337000F0E0E956FC4F90838F5F8093B70347C01E
:103380008091B703803230F4E091B703F0E0E95662
:10339000FC4F108285ED8093BC008091BC0084FDC1
:1033A000FCCF10924B036091B703E0915103F09171
:1033B000520387E993E070E009951092B7032DC09E
:1033C00084E080934B031092950310929603E09152
:1033D0004F03F0915003099580919603882329F4B7
:1033E00081E0809396031092750390919503E92FE5
:1033F000F0E0EB58FC4F80818093BB009F5F90937F
:1034000095039091950380919603981710F485EC9D
:1034100001C085E88093BC000FC085EC8093BC00A0
:1034200009C01092B80385ED8093BC008091BC0068
:1034300084FDFCCF10924B03FF91EF91BF91AF91B0
:103440009F918F917F916F915F914F913F912F91BC
:103450000F900FBE0F901F90189510924B0381E0B4
:1034600080934D0310924E0382E061E00E941F1E84
:1034700083E061E00E941F1EE9EBF0E080818E7F17
:10348000808380818D7F808388E48093B80085E489
:103490008093BC0008950F931F93CF93DF93BC01DB
:1034A0008230910510F462E070E0E091F204F09156
:1034B000F30440E050E0A0E0B0E024C080819181BE
:1034C00086179707D0F08617970771F4828193814A
:1034D000109729F013969C938E9312972CC090937B
:1034E000F3048093F20427C04115510519F08417A5
:1034F000950718F48D01AC01EF01DF018281938102
:103500009C01F9013097D1F641155105F9F0CA0136
:10351000861B970B8430910580F48A819B8101156D
:10352000110521F0F8019383828304C09093F30482
:103530008093F204FE01329645C0FE01E80FF91FA8
:10354000619371930297998388833CC08091F004C2
:103550009091F104892B41F48091380190913901C7
:103560009093F1048093F00440913A0150913B0113
:103570004115510541F44DB75EB7809136019091E8
:103580003701481B590B2091F0043091F1042417A6
:103590003507B0F4CA01821B930B8617970780F09A
:1035A000AB014E5F5F4F8417950750F0420F531FDA
:1035B0005093F1044093F004F9016193719302C0B8
:1035C000E0E0F0E0CF01DF91CF911F910F910895DE
:1035D000CF93DF939C01009709F48FC0EC012297F1
:1035E0001B821A826091F2047091F30461157105D7
:1035F00081F488819981820F931F2091F00430918A
:10360000F1042817390739F5D093F104C093F00479
:1036100074C0DB0140E050E0AC17BD0708F1BB838C
:10362000AA83FE0121913191E20FF31FAE17BF076C
:1036300079F48D919C911197280F391F2E5F3F4F80
:103640003983288312968D919C9113979B838A834B
:103650004115510571F4D093F304C093F2044DC0A9
:1036600012968D919C911397AD01009711F0DC019A
:10367000D3CFDA011396DC93CE931297FA012191FE
:103680003191E20FF31FCE17DF0769F4888199812A
:10369000280F391F2E5F3F4FFA01318320838A8123
:1036A0009B8193838283E0E0F0E0DB0112968D91B1
:1036B0009C911397009719F0BC01FD01F6CFAB0167
:1036C0004E5F5F4FDB018D919C91840F951F209180
:1036D000F0043091F1042817390779F4309729F470
:1036E0001092F3041092F20402C01382128242502C
:1036F00050405093F1044093F004DF91CF9108952E
:103700001F920F920FB60F9211242F933F938F9316
:103710009F93AF93BF938091BD039091BE03A091FF
:10372000BF03B091C0033091C1030196A11DB11D2B
:10373000232F2D5F2D3720F02D570196A11DB11D90
:103740002093C1038093BD039093BE03A093BF0356
:10375000B093C0038091B9039091BA03A091BB03C9
:10376000B091BC030196A11DB11D8093B903909344
:10377000BA03A093BB03B093BC03BF91AF919F91D9
:103780008F913F912F910F900FBE0F901F90189522
:103790008FB7F8942091BD033091BE034091BF03D1
:1037A0005091C0038FBFB901CA0108959FB7F89423
:1037B0002091B9033091BA034091BB035091BC03EF
:1037C00086B5A89B06C08F3F21F02F5F3F4F4F4F1C
:1037D0005F4F9FBF542F432F322F2227280F311DB9
:1037E000411D511D82E0220F331F441F551F8A9532
:1037F000D1F7B901CA0108959B01AC017FB7F894D4
:103800008091B9039091BA03A091BB03B091BC031E
:1038100066B5A89B05C06F3F19F00196A11DB11DAB
:103820007FBFBA2FA92F982F8827860F911DA11D22
:10383000B11D62E0880F991FAA1FBB1F6A95D1F7BF
:10384000BC012DC0FFB7F8948091B9039091BA03E1
:10385000A091BB03B091BC03E6B5A89B05C0EF3FA8
:1038600019F00196A11DB11DFFBFBA2FA92F982FE6
:1038700088278E0F911DA11DB11DE2E0880F991FB1
:10388000AA1FBB1FEA95D1F7861B970B885E934052
:10389000C8F2215030404040504068517C4F2115C3
:1038A00031054105510571F60895019739F0880FEA
:1038B000991F880F991F02970197F1F7089578943F
:1038C00084B5826084BD84B5816084BD85B5826025
:1038D00085BD85B5816085BDEEE6F0E080818160C3
:1038E0008083E1E8F0E010828081826080838081C3
:1038F00081608083E0E8F0E0808181608083E1E99D
:10390000F0E0808182608083808181608083E0E953
:10391000F0E0808181608083E1ECF0E08081846070
:103920008083808182608083808181608083E3ECFA
:10393000F0E0808181608083E0ECF0E08081826053
:103940008083E2ECF0E0808181608083EAE7F0E050
:1039500080818460808380818260808380818160B7
:1039600080838081806880830895823108F082514D
:10397000E82FF0E0E152FE4FE49120917B008E2F82
:1039800086958695869590E08170907035E0880FD9
:10399000991F3A95E1F72F7D282B20937B00E77044
:1039A00080913C018295880F880F807C8E2B8093BC
:1039B0007C0080917A00806480937A0080917A0004
:1039C00086FDFCCF2091780040917900942F80E013
:1039D00030E0282B392BC90108951F93CF93DF9333
:1039E000182FEB0161E00E94921D209709F48FC00F
:1039F000CF3FD10509F48EC0E12FF0E0EF53FE4F29
:103A00008491883009F440C0893070F4823019F113
:103A1000833020F4813009F077C018C0833001F181
:103A2000843009F071C026C08B3009F44BC08C3053
:103A300030F4893099F18A3009F066C039C08C3091
:103A400009F44DC08E3009F05FC051C084B5806864
:103A500084BDC7BD63C084B5806284BDC8BD5EC07F
:103A600080918000806880938000D0938900C0930B
:103A7000880054C080918000806280938000D09341
:103A80008B00C0938A004AC0809190008068809328
:103A90009000D0939900C093980040C0809190000E
:103AA000806280939000D0939B00C0939A0036C0B0
:103AB00080919000886080939000D0939D00C09387
:103AC0009C002CC08091C00080688093C0008091D1
:103AD000C0008F7B8093C000C093CF001FC0809137
:103AE000C00080628093C000C093D00017C0809156
:103AF000C20088608093C2008091C2008B7F809357
:103B0000C200C093D2000AC0C038D1051CF4812F76
:103B100060E002C0812F61E00E941F1EDF91CF9103
:103B20001F910895CF93DF93482F50E0CA018D5520
:103B30009E4FFC0134914B575E4FFA0184918823CC
:103B400069F190E0880F991FFC01E55AFE4FA5919D
:103B5000B491FC01E759FE4FC591D491662351F40D
:103B60002FB7F8948C91932F909589238C9388810B
:103B700089230BC0623061F42FB7F8948C91932F96
:103B8000909589238C938881832B88832FBF06C0CF
:103B90009FB7F8948C91832B8C939FBFDF91CF912B
:103BA0000895883071F1893068F4823031F18330C2
:103BB00020F4813009F042C01DC0833089F0843088
:103BC000E9F512C08B3059F18C3028F48930E9F0D6
:103BD0008A30A1F51EC08C3031F18E3079F529C0C4
:103BE000809180008F7703C0809180008F7D8093CB
:103BF0008000089584B58F7702C084B58F7D84BD21
:103C00000895809190008F7707C0809190008F7DFC
:103C100003C080919000877F8093900008958091E9
:103C2000C0008F7703C08091C0008F7D8093C0005B
:103C300008958091C200877F8093C2000895FF920B
:103C40000F931F93F62E482F50E0CA018F539E4FBB
:103C5000FC012491CA018D559E4FFC0114914B57D4
:103C60005E4FFA0104910023C9F0222319F0822F3C
:103C70000E94D11DE02FF0E0EE0FFF1FE759FE4F2D
:103C8000A591B4919FB7F894FF2021F48C911095E1
:103C9000812302C08C91812B8C939FBF1F910F9128
:103CA000FF9008950F931F93482F50E0CA018F5340
:103CB0009E4FFC012491CA018D559E4FFC01049139
:103CC0004B575E4FFA011491112319F420E030E0B4
:103CD00015C0222319F0822F0E94D11D812F90E060
:103CE000880F991F89589E4FFC01A591B4918C9122
:103CF00020E030E0802311F021E030E0C9011F9185
:103D00000F9108958F929F92AF92BF92CF92DF92C0
:103D1000EF92FF920F931F93CF93DF93A82FB0E002
:103D2000CD018D559E4FFC018490AB57BE4FFD01D8
:103D30008491662311F4992401C0982C6FEFA62E6C
:103D40006FEFB62E6FEFC62E6FE0D62EA222B322F3
:103D5000C422D522682F70E0660F771F69587E4F06
:103D6000EE24FF248701FB01A591B4910BC0EA1456
:103D7000FB040C051D0509F44EC00894E11CF11C60
:103D8000011D111D8C918821891589F30CC0EA143D
:103D9000FB040C051D0509F43EC00894E11CF11C50
:103DA000011D111D03C0FB01A591B4918C918821C7
:103DB000891569F720E030E040E050E0FB01C59153
:103DC000D4910FC0DA01C9018E0D9F1DA01FB11F34
:103DD0008A159B05AC05BD05F1F02F5F3F4F4F4F96
:103DE0005F4F88818821891569F3CA01B90125E1EE
:103DF00030E040E050E00E94042F9B01AC01205FC6
:103E00003F4F4F4F5F4F84E0569547953795279525
:103E10008A95D1F704C020E030E040E050E0B901DD
:103E2000CA01DF91CF911F910F91FF90EF90DF902A
:103E3000CF90BF90AF909F908F900895089520915C
:103E40000204309103048091040490910504281B1E
:103E5000390B2F733070C9010895209102043091FD
:103E6000030480910404909105042817390719F47C
:103E70002FEF3FEF09C0E0910404F0910504EE53E9
:103E8000FC4F8081282F30E0C90108952091020461
:103E90003091030480910404909105042817390798
:103EA00019F42FEF3FEF13C0E0910404F0910504E3
:103EB000EE53FC4F208180910404909105040196FB
:103EC0008F739070909305048093040430E0C901CF
:103ED0000895109209041092080488EE93E0A0E07F
:103EE000B0E080930A0490930B04A0930C04B09369
:103EF0000D048DE791E090930704809306040895E4
:103F00000F931F93DF93CF930F92CDB7DEB78C0142
:103F1000698380914401882369F083E0BE016F5F6B
:103F20007F4F41E050E00E9482261816190614F4D3
:103F30009C0107C081E090E0F8019383828320E038
:103F400030E0C9010F90CF91DF911F910F9108953B
:103F500083E00E9459260895CF93DF9312C082E038
:103F60000E94E4252FEF8F3F9207C9F0E0910204F1
:103F7000F0910304EE53FC4F8083D0930304C0936D
:103F80000204C0910204D09103042196CF73D07033
:103F90008091040490910504C817D90701F7DF91B7
:103FA000CF910895FC0180818E5F808380E86BEE65
:103FB00071E042E450E00E94FD250895FC018181FA
:103FC0009081913A59F4813209F04CC080E06DE360
:103FD00071E047E050E00E94FD2542C0913209F0B7
:103FE00041C0803239F48DE391E067E070E00E94D7
:103FF000412636C0823209F035C082818093440167
:1040000080913D0190913E01A0913F01B09140010E
:10401000805B9440A040B04019F58091440180FD40
:1040200012C087E797E790930108809300082BE080
:1040300088E190E00FB6F894A895809360000FBED9
:10404000209360000DC088E10FB6F8948093600063
:10405000109260000FBEA8951092010810920008FF
:1040600081E0089580E0089508951F920F920FB6A1
:104070000F9211242F933F934F938F939F93EF931E
:10408000FF938091C80082FD1DC04091CE00209119
:104090005404309155042F5F3F4F2F73307080913F
:1040A0005604909157042817390771F0E091540491
:1040B000F0915504EC5EFB4F408330935504209300
:1040C000540402C08091CE00FF91EF919F918F9197
:1040D0004F913F912F910F900FBE0F901F90189509
:1040E000E091A804F091A904E05CFF4F81919191C7
:1040F00020813181821B930B8F739070892B11F07B
:104100000E94342008951F920F920FB60F9211242F
:104110002F933F938F939F93EF93FF932091980456
:104120003091990480919A0490919B042817390743
:1041300031F48091C9008F7D8093C90014C0E09153
:104140009A04F0919B04E85AFB4F208180919A04D5
:1041500090919B0401968F73907090939B04809331
:104160009A042093CE00FF91EF919F918F913F9100
:104170002F910F900FBE0F901F901895AF92BF9286
:10418000DF92EF92FF920F931F93CF93DF93EC0197
:104190007A018B01DD24403081EE580780E068070A
:1041A00080E0780711F0DD24D39491E0A92EB12CA2
:1041B000EC89FD89DD2069F0C50108A002C0880FE7
:1041C000991F0A94E2F7808360E079E08DE390E044
:1041D00005C0108260E874E88EE190E0A8019701C4
:1041E0000E94422F21503040404050405695479504
:1041F0003795279580E12030380720F0DD2011F039
:10420000DD24D6CFE889F9893083EA89FB892083C8
:1042100019A2EE89FF89408121E030E0C9010C8CB0
:1042200002C0880F991F0A94E2F7482B4083EE8959
:10423000FF894081C9010D8C02C0880F991F0A9423
:10424000E2F7482B4083EE89FF894081C9010E8C3B
:1042500002C0880F991F0A94E2F7482B4083EE8929
:10426000FF8980810F8C02C0220F331F0A94E2F76E
:10427000209528232083DF91CF911F910F91FF90EC
:10428000EF90DF90BF90AF900895DC011C96ED9108
:10429000FC911D97E05CFF4F2191319180819181CC
:1042A000281B390B2F733070C9010895DC011C964F
:1042B000ED91FC911D97E05CFF4F20813181E0542E
:1042C000F040DF01AE5BBF4F8D919C911197281795
:1042D000390719F42FEF3FEF07C08D919C91E80F3C
:1042E000F91F8081282F30E0C9010895DC011C9658
:1042F000ED91FC911D97E05CFF4F20813181E054EE
:10430000F040DF01AE5BBF4F8D919C911197281754
:10431000390719F42FEF3FEF10C08D919C91119741
:10432000E80FF91F20818D919C91119701968F7351
:10433000907011969C938E9330E0C9010895DC0132
:1043400091968C919197882339F05496ED91FC9138
:104350005597808186FFF9CF91961C920895CF934F
:10436000DF93EC01EE85FF85E05CFF4F208131811A
:10437000E054F0402F5F3F4F2F733070DF01AE5B92
:10438000BF4F8D919C91119728173907D1F3E05CAD
:10439000FF4F80819181E054F040E80FF91F608366
:1043A000EE85FF85E05CFF4F31832083EE89FF8936
:1043B000208181E090E00F8C02C0880F991F0A9441
:1043C000E2F7282B208381E089A3EC89FD89808195
:1043D0008064808381E090E0DF91CF910895109216
:1043E0009F0410929E0488EE93E0A0E0B0E08093DA
:1043F000A0049093A104A093A204B093A3048FE817
:1044000091E090939D0480939C0484E194E09093C8
:10441000A9048093A80488E594E09093AB0480936A
:10442000AA048DEC90E09093AD048093AC048CECE6
:1044300090E09093AF048093AE0488EC90E090936A
:10444000B1048093B00489EC90E09093B30480931E
:10445000B2048AEC90E09093B5048093B4048EEC9F
:1044600090E09093B7048093B60484E08093B804FE
:1044700083E08093B90487E08093BA0485E0809359
:10448000BB0481E08093BC040895CF93DF930E9426
:104490005F1C82EE94E00E9464260E944A09C0E7F5
:1044A000D0E20E94DD082097E1F30E947020F9CF4E
:1044B000CF92DF92EF92FF920F931F93CF93DF93F0
:1044C0007C016B018A01C0E0D0E00FC0D6016D9184
:1044D0006D01D701ED91FC910190F081E02DC701B4
:1044E0000995C80FD91F015010400115110571F72A
:1044F000CE01DF91CF911F910F91FF90EF90DF9050
:10450000CF900895EF92FF920F931F938C01DC01DF
:10451000ED91FC910190F081E02D6DE009957C0119
:10452000D801ED91FC910190F081E02DC8016AE085
:1045300009959C012E0D3F1DC9011F910F91FF9000
:10454000EF9008958230B9F0833028F4882351F039
:104550008130F9F40AC08430B9F0843090F08530AD
:10456000C1F415C010926E00089580916F008D7F88
:1045700080936F000895809170008D7F809370000C
:10458000089510927100089510927200089510928B
:10459000730008951F920F920FB60F9211242F935C
:1045A0003F934F935F936F937F938F939F93AF93BB
:1045B000BF93EF93FF938091CC049091CD04A09191
:1045C000CE04B091CF040097A105B10551F1E0915F
:1045D000D004F091D10480819091D2048927808306
:1045E0008091CC049091CD04A091CE04B091CF04E1
:1045F000181619061A061B060CF58091CC0490912A
:10460000CD04A091CE04B091CF040197A109B109C6
:104610008093CC049093CD04A093CE04B093CF04A8
:104620000DC083E00E94A222E091D004F091D10459
:1046300090818091D204809589238083FF91EF91AE
:10464000BF91AF919F918F917F916F915F914F91AA
:104650003F912F910F900FBE0F901F9018951F93B1
:10466000182F80914501811711F09FEF06C0EDE2F0
:10467000F2E094918FEF80934501892F0E94A2224E
:10468000812F60E00E941F1E1F9108952F923F927C
:104690005F926F927F928F929F92AF92BF92CF92D2
:1046A000DF92EF92FF920F931F93DF93CF9300D08F
:1046B00000D0CDB7DEB7A82F1B0129833A834B83E7
:1046C0005C83809145018A1721F4EDE2F2E0549079
:1046D000AFC08F3F09F02EC2A0934501EDE2F2E09A
:1046E00054902FEF521609F425C281E0581671F14B
:1046F00085151CF0552051F09BC093E0591609F424
:104700004BC0B4E05B1609F093C06CC014BC15BC80
:1047100084B5826084BD85B5816085BD2A2F30E077
:10472000F901EB57FE4FE491F0E0EE0FFF1FE75960
:10473000FE4F859194919093C3048093C2042D55AC
:104740003E4FF90184918093C40474C0109280009C
:104750001092810080918100886080938100809117
:1047600081008160809381002A2F30E0F901EB57AE
:10477000FE4FE491F0E0EE0FFF1FE759FE4F8591E9
:1047800094919093CA048093C9042D553E4FF9012A
:1047900084918093CB044EC01092900010929100AF
:1047A0008091910088608093910080919100816058
:1047B000809391002A2F30E0F901EB57FE4FE491EE
:1047C000F0E0EE0FFF1FE759FE4F85919491909313
:1047D000D1048093D0042D553E4FF90184918093EC
:1047E000D20428C01092C0001092C1008091C10074
:1047F00088608093C1008091C10081608093C10076
:104800002A2F30E0F901EB57FE4FE491F0E0EE0F74
:10481000FF1FE759FE4F859194919093D8048093A0
:10482000D7042D553E4FF90184918093D90402C0DD
:1048300057FC80C18A2F61E00E94921D552021F013
:10484000F2E05F1609F0BAC031018824992460E0D3
:1048500072E18AE790E0A40193010E94642F59015C
:104860006A01860175010894E108F108010911093E
:104870002FEFE216F1040105110509F008F498C0C4
:1048800060E472E48FE090E0A40193010E94642F41
:1048900079018A010894E108F1080109110982E00F
:1048A0005816C1F49FEFE916F1040105110509F04E
:1048B00008F4CEC060E970ED83E090E0A4019301BC
:1048C0000E94642F79018A010894E108F108010926
:1048D000110983E0AFEFEA16F1040105110509F0B3
:1048E00008F467C068E478EE81E090E0A4019301E9
:1048F0000E94642F79018A010894E108F1080109F6
:104900001109552011F483E01DC0B2E05B1611F0CF
:1049100084E018C0EFEFEE16F1040105110509F06F
:1049200008F496C064E274EF80E090E0A401930183
:104930000E94642F79018A010894E108F1080109B5
:10494000110985E0FFEFEF16F1040105110589F16A
:1049500080F162E17AE780E090E0A40193010E9497
:10496000642F79018A010894E108F108010911090D
:10497000552011F086E001C084E02FEFE216F1042B
:1049800001051105B1F0A8F0C601B50120E034E041
:1049900040E050E00E94642F79018A010894E10808
:1049A000F10801091109552009F052C085E004C041
:1049B00081E0552009F04CC085BD4AC05101CC248E
:1049C000DD2460E072E18AE790E0A60195010E9493
:1049D000642F79018A010894E108F108010911099D
:1049E00080E0E81680E0F80681E0080780E018071C
:1049F00010F491E010C068E478EE81E090E0A60148
:104A000095010E94642F79018A010894E108F10858
:104A10000109110993E0A1E05A1639F4809181004F
:104A2000887F982B9093810013C0B3E05B1639F414
:104A300080919100887F982B9093910009C0E4E0C9
:104A40005E1631F48091C100887F982B9093C1004D
:104A500089819A81AB81BC810097A105B10529F4B8
:104A60008FEF9FEFAFEFBFEF13C0220C331CB101EC
:104A700080E090E029813A814B815C810E94042F83
:104A800028EE33E040E050E00E94422FC901DA01F5
:104A9000E1E05E16E1F0E5151CF0552049F04AC052
:104AA000F3E05F1631F124E0521609F043C033C041
:104AB000E7BC8093BE049093BF04A093C004B0935E
:104AC000C10480916E00826080936E0033C0F092CA
:104AD0008900E09288008093C5049093C604A09357
:104AE000C704B093C80480916F00826080936F0008
:104AF00021C0F0929900E09298008093CC049093AA
:104B0000CD04A093CE04B093CF0480917100826055
:104B1000809371000FC0E092CF008093D3049093F4
:104B2000D404A093D504B093D6048091720080641D
:104B3000809372000F900F900F900F90CF91DF91A4
:104B40001F910F91FF90EF90DF90CF90BF90AF90AB
:104B50009F908F907F906F905F903F902F900895DF
:104B6000282F8091DC048823C1F057FF1AC015C09C
:104B700028989093DB048091F1008193E217F3076A
:104B8000B9F74115510539F08091F200882319F4E5
:104B90008BE68093E800AFBF02C04FEF5FEFCA0122
:104BA0000895AFB7F89427702093E9008091F20040
:104BB000282F30E0241735070CF4A901FB019B01D5
:104BC000240F311D94E6DACFDF93CF930F92CDB748
:104BD000DEB7BE016F5F7F4F41E050E00E94B0251D
:104BE000019719F02FEF3FEF03C08981282F30E0A4
:104BF000C9010F90CF91DF910895FF920F931F93FA
:104C0000F82E142F052F4091DF045091E004212F3E
:104C1000302FC901DC01FB016EEF29C0F7FE02C095
:104C2000949101C090812091DD043091DE0424171D
:104C30003507ACF48091E8008570E1F38091E800DD
:104C400082FF03C02FEF3FEF17C09093F100C9011F
:104C500001968F739070892B11F46093E8002F5F99
:104C60003F4F3093DE042093DD0411973196109767
:104C7000A9F6812F902F9C01C9011F910F91FF90E0
:104C800008959C018091E80082FFFCCFF901260F76
:104C9000311D03C08091F1008193E217F307D1F732
:104CA000289884E68093DB048BEF8093E800CB01A7
:104CB00008958093E9008091F200882319F08AE337
:104CC0008093E800089508951092DC0481E08093B9
:104CD000D70080EA8093D80082E189BD09B400FE44
:104CE000FDCF61E070E080E090E00E94FC1B80E975
:104CF0008093D8008CE08093E2001092E000559AF7
:104D0000209A08955F926F927F928F929F92AF92B6
:104D1000BF92CF92DF92EF92FF920F931F93CF93A8
:104D2000DF93E82E842E752E8091DC04882371F1A8
:104D30008B01242F352FC901EC017AEFF72E67E0A4
:104D4000962E9E2050E4552E8E2D90E040E2A42E0B
:104D5000B12CA822B9223AE3632E20E4C22ED12C32
:104D6000C822D92258C09FB7F8949092E900809148
:104D7000E80085FD02C020E004C08091F200252DEE
:104D8000281B9FBF222361F4FA9419F42FEF3FEF01
:104D90004DC061E070E080E090E00E94FC1B3BC0F1
:104DA000822F90E0C817D9070CF42C2FC21BD10911
:104DB0004FB7F8949092E900A114B10421F406C011
:104DC0001092F10021502223D9F719C0E7FC03C04B
:104DD000F801922F10C0C801322F06C0FC010196C5
:104DE000E491E093F10031503323C1F706C0819183
:104DF0008093F10091509923D1F7020F111D8091FA
:104E0000E80085FF05C0209729F4C114D10411F0F2
:104E10006092E8004FBF209709F0A5CF5D9884E627
:104E20008093DA04282D372DC9019C01C901DF9137
:104E3000CF911F910F91FF90EF90DF90CF90BF9097
:104E4000AF909F908F907F906F905F9008951F928A
:104E50000F920FB60F9211242F933F934F935F93AE
:104E60006F937F938F939F93AF93BF93EF93FF9332
:104E70008091E1001092E100982F83FF0FC0109203
:104E8000E90081E08093EB001092EC0082E38093D4
:104E9000ED001092DC0488E08093F00092FF34C0B3
:104EA00083E08093E9008091F200882319F08AE37F
:104EB0008093E8008FB7F89492E09093E900909186
:104EC000F2008FBF992321F086E094E00E94AC1F8E
:104ED0008091DA04882351F08091DA048150809324
:104EE000DA048091DA04882309F45D9A8091DB0466
:104EF000882351F08091DB0481508093DB04809102
:104F0000DB04882309F4289AFF91EF91BF91AF91B8
:104F10009F918F917F916F915F914F913F912F91D1
:104F20000F900FBE0F901F9018950F931F93DF9354
:104F3000CF930F92CDB7DEB719828E010F5F1F4F4F
:104F4000C8010E94D21FC8010E94772A898190E07F
:104F50000F90CF91DF911F910F9108951F920F92A3
:104F60000FB60F921124EF92FF921F932F933F934E
:104F70004F935F936F937F938F939F93AF93BF9361
:104F8000EF93FF93DF93CF93CDB7DEB76197DEBF8B
:104F9000CDBF1092E9008091E80083FF0FC1FE01B0
:104FA00031969E01275F3F4F03C08091F1008193AE
:104FB000E217F307D1F7289884E68093DB0482EFA9
:104FC0008093E800998197FF05C08091E80080FFF9
:104FD000FCCF03C08EEF8093E800292F30E0C90199
:104FE00080769070892B09F0C2C08A81882329F4C9
:104FF0001092F1001092F100D6C0813009F4D3C0B4
:10500000833009F4D0C0853049F48091E80080FFF6
:10501000FCCF8B8180688093E300C5C0863009F0A7
:105020007CC01C81EF80F8841230C1F51092E90039
:105030001092DE041092DD041092E0041092DF045E
:105040000E94952799E0FE013996DF01292F1D92D4
:105050002A95E9F799871A8791E09E8790E8988BBF
:105060009AEF998B2091DD043091DE04275F3F4F4A
:105070003C872B878D871092E9001092DE041092F6
:10508000DD04F092E004E092DF0480E0BF0149E03B
:1050900050E00E94FD250E94952785C01092E900EE
:1050A0001092DE041092DD04F092E004E092DF043E
:1050B000123241F482E290E00E946F2A892B09F4B7
:1050C00076C071C0113079F488E0E816F10419F463
:1050D00081E08093E1048091E104882309F06BC0B2
:1050E000ECE6F2E013C0133009F061C08B81882335
:1050F00019F4EEE2F2E00AC0823019F4E2E3F2E0E1
:1051000005C0813009F053C0E4E5F2E0449180E845
:10511000BF0150E00E94FD2546C0873009F447C01A
:10512000883021F481E08093F1003DC08930D9F5C9
:1051300023703070232BD9F5E1E9F2E091E031E002
:1051400026E39093E9003093EB0084918093EC0088
:105150002093ED009F5F3196953099F78EE780930D
:10516000EA001092EA008B818093DC041CC08F81DE
:1051700098851092E9001092DE041092DD0490935D
:10518000E0048093DF048D81882329F4CE01019609
:105190000E94DE1F06C0823051F4CE0101960E94AB
:1051A0004029882321F08EEF8093E80007C081E238
:1051B0008093EB0003C0EEE7F2E0A8CF6196DEBF7C
:1051C000CDBFCF91DF91FF91EF91BF91AF919F91B3
:1051D0008F917F916F915F914F913F912F911F918F
:1051E000FF90EF900F900FBE0F901F9018952F9289
:1051F0003F924F925F926F927F928F929F92AF9267
:10520000BF92CF92DF92EF92FF920F931F93DF93A3
:10521000CF93CDB7DEB73B014C0119012A016D894F
:105220007E898F89988D6A197B098C099D09621A7C
:10523000730A840A950AA40193010E94042FE218BC
:10524000F30804091509A80197010E94642F2A0D8B
:105250003B1D4C1D5D1DB901CA01CF91DF911F910E
:105260000F91FF90EF90DF90CF90BF90AF909F9005
:105270008F907F906F905F904F903F902F90089508
:10528000FC0191818081813A31F4913089F080E094
:10529000933089F40DC0813269F49B3021F482810E
:1052A0008093460105C09A3029F48281809347019A
:1052B00081E0089580E00895EF92FF920F931F938D
:1052C0008C01E62EDC01ED91FC910480F581E02D4E
:1052D0000995F82ED801ED91FC910680F781E02D1B
:1052E000C8016E2D09958F2D90E01F910F91FF90B1
:1052F000EF9008951092E3041092E7041092E604F0
:105300008FE991E09093E5048093E4040895EF928F
:10531000FF920F931F93DF93CF930F92CDB7DEB71A
:1053200089838B017A0184E0BE016F5F7F4F41E08A
:1053300050E00E94822684E4B801A7010E948226E0
:105340000F90CF91DF911F910F91FF90EF900895F3
:1053500082E048E050E00E9487290895FC0116820F
:105360001782108611861286138614823496BF0126
:105370000E94A8290895DC01683810F0685829C0F7
:10538000E62FF0E067FF13C0E058F04081E090E0C6
:1053900002C0880F991FEA95E2F7809514962C9128
:1053A0001497282314962C93149760E012C0ED5E96
:1053B000FC4F6491662319F420E030E01DC067FFC4
:1053C00008C014968C9114978D7F14968C93149723
:1053D0006F77FD0190E0662321F08681861709F43E
:1053E00016829F5F31969630B1F7CD011496BD01BC
:1053F0000E94A82921E030E0C9010895CF93DF93EE
:10540000DC01683810F0685825C0E62FF0E067FF2F
:1054100012C0E058F04081E090E002C0880F991F70
:10542000EA95E2F714962C911497282B14962C9356
:10543000149760E00FC0ED5EFC4F64916623D9F1D4
:1054400067FF08C014968C911497826014968C9311
:1054500014976F7716968C9116978617A9F1179661
:105460008C911797861781F118968C91189786174B
:1054700059F119968C911997861731F11A968C91DA
:105480001A97861709F11B968C911B978617E1F0E6
:10549000ED01E0E0F0E09E2F8E81882321F4EA0FF9
:1054A000FB1F668306C09F5F31962196E630F105AB
:1054B00091F7963049F481E090E013969C938E9397
:1054C000129720E030E007C0CD011496BD010E9484
:1054D000A82921E030E0C901DF91CF91089580E84B
:1054E00065E972E045E650E00E94FD250895FC0163
:1054F00080818F5F808380E86AEF72E049E150E04D
:105500000E94FD2508955058BB27AA270ED03AC205
:105510002BD230F030D220F031F49F3F11F41EF442
:10552000FBC10EF4E095E7FBC6C1E92F3CD280F346
:10553000BA17620773078407950718F071F49EF590
:105540006BC20EF4E0950B2EBA2FA02D0B01B90102
:1055500090010C01CA01A0011124FF27591B99F0E9
:10556000593F50F4503E68F11A16F040A22F232FF5
:10557000342F4427585FF3CF469537952795A79545
:10558000F0405395C9F77EF41F16BA0B620B730BEC
:10559000840BBAF09150A1F0FF0FBB1F661F771F5D
:1055A000881FC2F70EC0BA0F621F731F841F48F412
:1055B000879577956795B795F7959E3F08F0B3CF98
:1055C0009395880F08F09927EE0F97958795089582
:1055D000CBD158F080E891E009F49EEFCCD128F0CF
:1055E00040E851E059F45EEF09C096C115C2E92FB9
:1055F000E078D9D168F3092E052AC1F326173707B9
:105600004807590738F00E2E07F8E02569F0E02525
:10561000E0640AC0EF6307F8009407FADB01B90100
:105620009D01DC01CA01AD01EF9347D0ABD10AD097
:105630005F91552331F02BED3FE049E450FD49ECFB
:1056400063CF0895DF93DD27B92FBF7740E85FE38D
:105650001616170648075B0710F4D92FE8D19F9359
:105660008F937F936F93E7D2ECEAF0E058D18AD121
:105670002F913F914F915F91EDD1DD2349F09058EB
:10568000A2EA2AED3FE049EC5FE3D0785D274DDFE9
:10569000DF9178C1ECD008F481E008950CD072C19C
:1056A0006AD140F061D130F021F45F3F19F003C1BD
:1056B0005111B3C131C177D198F39923C9F355235F
:1056C000B1F3951B550BBB27AA27621773078407F5
:1056D00038F09F5F5F4F220F331F441FAA1FA9F3AB
:1056E00033D00E2E3AF0E0E830D091505040E6959D
:1056F000001CCAF729D0FE2F27D0660F771F881FFE
:10570000BB1F261737074807AB07B0E809F0BB0BEC
:10571000802DBF01FF2793585F4F2AF09E3F510510
:1057200068F0C9C07AC15F3FECF3983EDCF3869520
:1057300077956795B795F7959F5FC9F7880F911D86
:105740009695879597F90895E1E0660F771F881F72
:10575000BB1F621773078407BA0720F0621B730B25
:10576000840BBA0BEE1F88F7E095089504D0689477
:10577000B11153C108951FD188F09F5790F0B92FF0
:105780009927B751A0F0D1F0660F771F881F991F96
:105790001AF0BA95C9F712C0B13081F03DD1B1E02D
:1057A00008953AC1672F782F8827B85F39F0B93F3D
:1057B000CCF3869577956795B395D9F73EF4909598
:1057C0008095709561957F4F8F4F9F4F0895E89416
:1057D00009C097FB3EF490958095709561957F4F39
:1057E0008F4F9F4F9923A9F0F92F96E9BB279395E7
:1057F000F695879577956795B795F111F8CFFAF4F7
:10580000BB0F11F460FF1BC06F5F7F4F8F4F9F4F27
:1058100016C0882311F096E911C0772321F09EE885
:10582000872F762F05C0662371F096E8862F70E0EB
:1058300060E02AF09A95660F771F881FDAF7880FC5
:105840009695879597F90895D0D080F09F3740F4CA
:1058500091110EF0E2C060E070E080E89FEB0895E7
:1058600026F41B16611D711D811D2BC045C0990FAB
:105870000008550FAA0BE0E8FEEF16161706E8071A
:10588000F907C0F012161306E407F50798F0621B3B
:10589000730B840B950B39F40A2661F0232B242B10
:1058A000252B21F408950A2609F4A140A6958FEF2F
:1058B000811D811D089597F99F6780E870E060E081
:1058C0000895882371F4772321F09850872B762F41
:1058D00007C0662311F499270DC09051862B70E004
:1058E00060E02AF09A95660F771F881FDAF7880F15
:1058F0009695879597F908959F3F49F0915028F420
:10590000869577956795B7959F5F80389F4F880FED
:105910009695879597F908959FEF80EC0895DF930A
:10592000CF931F930F93FF92EF92DF927B018C0135
:10593000689405C0DA2EEF018DD0FE01E894A591A0
:105940002591359145915591AEF3EF01EEDDFE01C4
:105950009701A801DA9479F7DF90EF90FF900F910B
:105960001F91CF91DF91089500240A94161617060F
:1059700018060906089500240A9412161306140640
:1059800005060895092E0394000C11F4882352F0A3
:10599000BB0F40F4BF2B11F460FF04C06F5F7F4F5B
:1059A0008F4F9F4F089557FD9058440F551F59F042
:1059B0005F3F71F04795880F97FB991F61F09F3FFC
:1059C00079F087950895121613061406551FF2CF25
:1059D0004695F1DF08C0161617061806991FF1CF75
:1059E00086957105610508940895E5DFA0F0BEE78E
:1059F000B91788F4BB279F3860F41616B11D672FBE
:105A0000782F8827985FF7CF869577956795B11D92
:105A100093959639C8F30895E894BB2766277727AE
:105A2000CB0197F9089523DF08F48FEF08959B01C8
:105A3000AC0160E070E080E89FE330CE0BD0A2CFF5
:105A400093DF28F098DF18F0952309F034CF64CF66
:105A50001124E3CFA8DFA0F3959FD1F3950F50E079
:105A6000551F629FF001729FBB27F00DB11D639F10
:105A7000AA27F00DB11DAA1F649F6627B00DA11DB6
:105A8000661F829F2227B00DA11D621F739FB00D5C
:105A9000A11D621F839FA00D611D221F749F3327CC
:105AA000A00D611D231F849F600D211D822F762F65
:105AB0006A2F11249F5750408AF0E1F088234AF062
:105AC000EE0FFF1FBB1F661F771F881F91505040AE
:105AD000A9F79E3F510570F0EECE9FCF5F3FECF3EC
