:100000000C94BD000C94E5000C94E5000C94E50004
:100010000C94E5000C94E5000C94E5000C94701F22
:100020000C94E5000C94E5000C94E5000C949E14EF
:100030000C94E5000C94E5000C94E5000C94E500AC
:100040000C94B0190C94E5000C94CF1C0C941D1D5D
:100050000C94E5000C94E5000C94E5000C94E5008C
:100060000C94EA160C94E500084AD73B3BCE016E8F
:1000700084BCBFFDC12F3D6C74319ABD56833DDAFF
:100080003D00C77F11BED9E4BB4C3E916BAAAABE0E
:10009000000000803F07634236B79BD8A71A396833
:1000A0005618AEBAAB558C1D3CB7CC5763BD6DED41
:1000B000FD753EF6177231BF000000803F0800005A
:1000C00000BE922449123EABAAAA2ABECDCCCC4C8B
:1000D0003E00000080BEABAAAAAA3E00000000BFFE
:1000E000000000803F0000000000084178D3BB43BF
:1000F00087D1133D190E3CC3BD4282AD2B3E68EC47
:100100008276BED98FE1A93E4C80EFFFBE01C4FFCD
:100110007F3F000000000000000000240027002AAC
:100120000000000000250028002B00000000002334
:10013000002600290004040404040404040202024A
:100140000202020303030303030102040810204018
:1001500080010204081020010204081020000000A1
:100160000700020100000304060000000000000078
:10017000000223019615891E1C0111241FBECFEF1A
:10018000D8E0DEBFCDBF11E0A0E0B1E0ECE9FEE4D5
:1001900002C005900D92A837B107D9F714E0A8E77F
:1001A000B1E001C01D92A335B107E1F711E0C8E746
:1001B000D1E004C02297FE010E943D27C237D1073B
:1001C000C9F70E94DF1E0C9441270C940000813077
:1001D000910541F56F5F7F4F71F588E791E00E94CF
:1001E000E01083EB91E00E94940A87EB91E00E947B
:1001F000391189EC91E00E941C1086ED91E00E947B
:1002000044138AED91E00E945B0A84EE91E00E9423
:10021000A10E88EE91E00E94950E8DEE91E00E9475
:10022000980A0895892B39F46F5F7F4F21F489EC88
:1002300091E00E94BF0F089580E090E06FEF7FEFA4
:100240000E94E700089581E090E06FEF7FEF0E9449
:10025000E70008951092310288E194E00E94DF1DCA
:10026000181619065CF481E0809331021092320274
:1002700088E194E00E94101E80939F020895682FE9
:1002800088E194E00E94491E089560932D027093C6
:100290002E0280932F029093300280912D020E94B3
:1002A0003F0180912E020E943F0180912F020E9407
:1002B0003F01809130020E943F010895EF92FF922A
:1002C0000F931F93CF93DF938B017A01E90186305F
:1002D000910509F447C18730910594F48230910566
:1002E00009F43FC0833091053CF4009709F459C1EB
:1002F000019709F07DC123C005970CF44DC061C082
:100300008131910509F4BEC08231910564F48F30CA
:10031000910509F497C0803191050CF080C00797D2
:1003200009F066C139C08E31910509F443C18F319E
:10033000910509F447C1459709F05AC1D3C086ED2C
:1003400091E00E94C60E90E08017910729F086ED9B
:1003500091E0602F0E94CC0E86ED91E00E943F1349
:1003600045C187EB91E00E94C60E90E0801791078F
:1003700041F487EB91E00E94C90E90E08E159F0535
:1003800031F087EB91E0602F4E2D0E94131187EB27
:1003900091E00E9481122AC184EE91E00E94C60E73
:1003A00090E080179107B1F184EE91E0602F0E94F8
:1003B000CC0E84EE91E00E94F20E60E00E944C1B95
:1003C00029C084EE91E00E94C60E90E0801791074C
:1003D00099F084EE91E0602F0E94CC0E84EE91E0C3
:1003E0000E94EF0E60E00E944C1B84EE91E00E94A0
:1003F000F20E60E00E944C1B81E0E816F10429F443
:1004000084EE91E00E940F0FE9C082E0E816F1044B
:1004100009F0EEC084EE91E00E940A0FDFC088EE82
:1004200091E00E94C60E90E08017910729F088EEB7
:1004300091E0602F0E94CC0E60919E0270E080E0FF
:1004400090E01DC084EE91E00E94C60E90E08017FF
:10045000910761F084EE91E0602F0E94CC0E84EE53
:1004600091E00E94F20E60E00E944C1B84EE91E04D
:100470000E943A0F90E0A0E0B0E0BC01CD010E94E4
:100480008F23B4C084EE91E00E94C60E90E08017E6
:10049000910799F084EE91E0602F0E94CC0E84EEDB
:1004A00091E00E94EF0E60E00E944C1B84EE91E010
:1004B0000E94F20E60E00E944C1B84EE91E00E94CC
:1004C0004E0FE82E84EE91E00E943A0FFF24EE0CCE
:1004D000FF1CE80EF11C0027F7FC0095102FC80147
:1004E000B70182C084EE91E00E94C60E90E08017B2
:1004F000910741F484EE91E00E94C90E90E08E15C0
:100500009F0531F084EE91E0602F4E2D0E94DC0EAD
:1005100081E0E816F10461F484EE91E00E94EF0EB0
:1005200062E00E944C1B84EE91E00E944E0F0BC0D3
:1005300084EE91E00E94F20E62E00E944C1B84EE79
:1005400091E00E943A0F90E0A0E0B0E0BC01CD0144
:100550000E948F23E62F2E2F372F482F592FB901B6
:10056000CA0144C08DEE91E00E94330C81E0E81690
:10057000F10429F48DEE91E00E940A0B37C082E06D
:10058000E816F10429F48DEE91E00E94C60A2EC00F
:1005900083E0E816F10461F58DEE91E00E94990A7E
:1005A00025C060911001709111018091120190910C
:1005B00013011CC0822F60E00E944C1B8C2F0E94F4
:1005C000DF1B0CC0CC0FDD1FC050DF4F1881812F07
:1005D00060E00E944C1B812F0E94CA1AAA2797FD37
:1005E000A095BA2FBC01CD010E9491230E94450124
:1005F000DF91CF911F910F91FF90EF90089588E1C7
:1006000094E00E94181F08952F923F924F925F929C
:100610006F927F928F929F92AF92BF92CF92DF9212
:10062000EF92FF920F931F93DF93CF93CDB7DEB777
:1006300061970FB6F894DEBF0FBECDBF10929D023A
:1006400090913202992319F08091690202C0809141
:1006500035028230C9F1843009F420C4813009F0B8
:1006600049C4992319F020916C0202C020913802EC
:10067000022F10E08FEF0E943F0185E50E943F01AD
:1006800080913202882319F080916D0202C080911E
:1006900039020E943F0180913202882319F0809133
:1006A0006B0202C080913702B801E4E0769567954D
:1006B000EA95E1F7A8014F70507090E098010E9410
:1006C0005E010E94FF0216C4992319F080916A020C
:1006D00002C080913602282F30E03D832C8354E005
:1006E000252E312CD2C3F0903202FF2021F0F101EF
:1006F000E959FD4F03C0F101ED5CFD4F8081282FCA
:1007000030E0C1010196FF2021F0FC01E959FD4FC5
:1007100003C0FC01ED5CFD4F0081402E55246201B9
:1007200044E0D694C7944A95E1F71C010894211C33
:10073000311C2830310509F0BBC0F1013196FF2092
:1007400029F087E692E0280E391E04C023E332E048
:10075000220E331ED101BC91BB838F010F5F1F4F4F
:10076000FF2019F0E959FD4F02C0ED5CFD4F60819B
:1007700070E080E090E00E948F236A877B878C87FF
:100780009D87F8013196FA83E983FF2029F0095902
:100790001D4FD8016C9104C00D5C1D4FF8016081A4
:1007A00070E080E090E00E948F236E837F838887D3
:1007B0009987FF2029F0E981FA81E959FD4F04C0AA
:1007C000E981FA81ED5CFD4F608170E080E090E0AE
:1007D0000E948F231B012C0189EC91E00E94C60E20
:1007E00090E08C159D0529F089EC91E06C2D0E941C
:1007F000E60FFB81FF2319F4198A188A45C02B8163
:1008000021502B836A857B858C859D850E9463237F
:100810003B014C016E817F81888599850E9463230D
:100820005B016C01C201B1010E9463237B018C0159
:1008300089EC91E06B81462D2A2D0E2D0E94650FCB
:100840002DC06A857B858C859D850E9463233B0135
:100850004C016E817F81888599850E9463235B01AD
:100860006C01C201B1010E9463237B018C0189EC00
:1008700091E06889462D2A2D0E2D0E94650F8889EA
:1008800099890196998B888B89EC91E00E94620F7F
:1008900090E0A889B989A817B9079CF229803A8005
:1008A0000894211C311C89EC91E00E94900FEDC24C
:1008B0002A30310509F053C0D1011196FF2029F0EB
:1008C000E7E6F2E02E0E3F1E04C023E332E0220EE4
:1008D000331EF101608160932D02FD013196FF20EE
:1008E00019F0A959BD4F02C0AD5CBD4F8C918093EA
:1008F0002E02BF016F5F7F4FFF2019F0E959FD4FB6
:1009000002C0ED5CFD4F808180932F02FF2021F01B
:10091000FB01E959FD4F03C0FB01ED5CFD4FE08198
:100920001B010894211C311CE0933002E0902D0241
:10093000F0902E0200912F021091300283EB91E093
:100940006C2D0E94CC0EC801B7010E945E239B0152
:10095000AC0183EB91E0B9010E945E0A96C2293096
:10096000310509F055C0D1011196FF2019F027E695
:1009700032E002C023E332E0220E331EF101608137
:1009800060932D02FD013196FF2019F0A959BD4F4A
:1009900002C0AD5CBD4F8C9180932E022F01089454
:1009A000411C511CFF2019F0E959FD4F02C0ED5CBC
:1009B000FD4F808180932F02FF2021F0F201E95941
:1009C000FD4F03C0F201ED5CFD4FE081E09330028A
:1009D000E0902D02F0902E0200912F021091300233
:1009E0008AED91E00E94C60E90E08C159D0529F0DD
:1009F0008AED91E06C2D0E94E90812010894211CF7
:100A0000311C8AED91E0B801A7010E94D1093DC2D5
:100A10002B30310509F060C0D1011196FF2019F08B
:100A200027E632E002C023E332E0220E331EF1015A
:100A3000608160932D02FD013196FF2019F0A959C4
:100A4000BD4F02C0AD5CBD4F8C9180932E02BF01A3
:100A50006F5F7F4FFF2019F0E959FD4F02C0ED5C39
:100A6000FD4F808180932F02FF2021F0FB01E95987
:100A7000FD4F03C0FB01ED5CFD4FE0811B010894BD
:100A8000211C311CE093300282010F70107088E746
:100A900091E06C2D402F0E94F50E682F88E791E0C1
:100AA00070E00E94601088E791E06C2D402F0E945A
:100AB000F50E182F60912D0270912E0280912F0259
:100AC000909130020E945E239B01AC0188E791E087
:100AD000612F70E0422F7DC12330310521F0243198
:100AE000310509F05DC0D1011196FF2019F027E60C
:100AF00032E002C023E332E0220E331EF1016081B6
:100B000060932D02FD013196FF2019F0A959BD4FC8
:100B100002C0AD5CBD4F8C9180932E028F010F5FA0
:100B20001F4FFF2019F0E959FD4F02C0ED5CFD4F4A
:100B3000808180932F02FF2021F0F801E959FD4FB9
:100B400003C0F801ED5CFD4FE081E093300284EEDC
:100B500091E00E94C60E90E08C159D0529F084EE70
:100B600091E06C2D0E94CC0E18010894211C311CC0
:100B700010E060912D0270912E0280912F029091D1
:100B8000300220E030E040E85FE30E94BB2488238D
:100B90000CF011E084EE91E0612F0E94270F75C1E7
:100BA0002E31310509F053C0D1011196FF2019F003
:100BB00027E632E002C023E332E0220E331EF101C9
:100BC000608160932D02FD013196FF2019F0A95933
:100BD000BD4F02C0AD5CBD4F8C9180932E02BF0112
:100BE0006F5F7F4FFF2019F0E959FD4F02C0ED5CA8
:100BF000FD4F808180932F02FF2021F0FB01E959F6
:100C0000FD4F03C0FB01ED5CFD4FE0811B0108942B
:100C1000211C311CE0933002802F61E00E944C1BAC
:100C200010E060912D0270912E0280912F02909120
:100C3000300220E030E040E85FE30E94BB248823DC
:100C40000CF011E0802F612F0E948B1B1EC1C90187
:100C50004F97029708F04DC0D1011196FF2019F06F
:100C600027E632E002C023E332E0220E331EF10118
:100C7000608160932D02FD013196FF2019F0A95982
:100C8000BD4F02C0AD5CBD4F8C9180932E02BF0161
:100C90006F5F7F4FFF2019F0E959FD4F02C0ED5CF7
:100CA000FD4F808180932F02FF2021F0FB01E95945
:100CB000FD4F03C0FB01ED5CFD4FE0811B0108947B
:100CC000211C311CE0933002802F61E00E944C1BFC
:100CD00060912D0270912E0280912F02909130022E
:100CE0000E945E239B01AC01802FB9010E94EC1A87
:100CF000CCC02132310509F06FC0D1011196FF201F
:100D000019F027E632E002C023E332E0220E331E60
:100D1000F101608160932D02FD013196FF2019F0F1
:100D2000A959BD4F02C0AD5CBD4F8C9180932E027E
:100D30006F010894C11CD11CFF2019F0E959FD4F27
:100D400002C0ED5CFD4F808180932F02FF2021F0D7
:100D5000F601E959FD4F03C0F601ED5CFD4FE0815E
:100D6000E093300280912D0290912E02A0912F02EB
:100D7000B09130028093140190931501A093160155
:100D8000B093170188E791E0B2010E946010E090F3
:100D90001401F09015010091160110911701C8017E
:100DA000B70120E030E040E050E00E94BB2418167C
:100DB0001CF4C801B70103C0C801B70190580E94D4
:100DC0006323462F16010894211C311C88E791E00B
:100DD000B2010E94291059C02232310509F055C0D4
:100DE000F1013196FF2019F027E632E002C023E33B
:100DF00032E0220E331ED1016C9160932D02DF018F
:100E00001196FF2019F0E959FD4F02C0ED5CFD4F2E
:100E1000808180932E02FD013196FF2019F0A9599F
:100E2000BD4F02C0AD5CBD4F8C9180932F021F015E
:100E30000894211C311CFF2019F0E959FD4F02C014
:100E4000ED5CFD4F20812093300290912E02309175
:100E50002D02BFEF2B9FF001112480912F02E80F8C
:100E6000F11D309779F09F871E866E857F85630F11
:100E7000711D9F01442737FD4095542F802F0E94FC
:100E8000CC1F03C0802F0E94591FC1010397EC8122
:100E9000FD81E817F9070CF026CC2CC083EB91E01C
:100EA00069E00E94CC0E83EB91E060E070E00E946C
:100EB0005E0A83EB91E06AE00E94CC0E83EB91E046
:100EC00060E070E00E945E0A83EB91E061E00E94C6
:100ED000CC0E83EB91E060E070E00E945E0A83EB51
:100EE00091E062E00E94CC0E83EB91E060E070E064
:100EF0000E945E0A61960FB6F894DEBF0FBECDBFAA
:100F0000CF91DF911F910F91FF90EF90DF90CF90E5
:100F1000BF90AF909F908F907F906F905F904F9019
:100F20003F902F90089588EE91E00E94810E8823D3
:100F300071F088EE91E00E94700E181619064CF4BC
:100F400088EE91E00E943D0E80939E0202C01092B6
:100F50009E020E942A0180913102882309F44FC029
:100F600020919F02253571F480919D02882351F4D0
:100F70008091A0028F3F31F581E080939B028093A6
:100F80009D0220C02093A00280919D028823D1F071
:100F900090919B02933019F420939C0207C09430E7
:100FA00028F080919C02815080939C02E92FF0E010
:100FB00080913202882319F0E959FD4F02C0ED5C9F
:100FC000FD4F208380919B028F5F80939B0284332F
:100FD00020F010929B0210929D0280919D02882326
:100FE00071F080919C02882351F480919B0284309F
:100FF00030F010929D020E94040310929B0208950B
:101000008DE061E00E944C1B8DE061E00E948B1B33
:101010006CE271E080E090E00E942C1A8DE060E0CC
:101020000E948B1B88E194E040E052EC61E070E0AC
:101030000E94581D68EE73E080E090E00E942C1A38
:101040003D9A459A64E670E080E090E00E942C1A98
:101050003D9A459808952F923F924F925F926F92DA
:101060007F928F929F92AF92BF92CF92DF92EF9238
:10107000FF920F931F93CF93DF931A012B01E90186
:1010800037FD44C02196BE01882777FD8095982FB3
:1010900021970E9491239B01AC0160E070E080E207
:1010A00091E40E9429255B016C01C201B101A601F6
:1010B00095010E94F6220E94CC233B014C01BE0107
:1010C000882777FD8095982F0E9491239B01AC0182
:1010D00060E070E080E291E40E9429257B018C01B0
:1010E000C401B301A60195010E94C6249B01AC0175
:1010F000C201B1010E942B22A80197010E94F62291
:101100000E94CC230E945E23CB011CC00027112724
:10111000021B130BC0E0D0E0C201B10120E030E0BF
:1011200040E251E40E94C6241B012C012196C01705
:10113000D10794F30E945E23DC01CB016AE070E0EA
:101140000E94D726DF91CF911F910F91FF90EF90D2
:10115000DF90CF90BF90AF909F908F907F906F90D7
:101160005F904F903F902F9008950F931F938C01A5
:10117000FC01808560E00E948B1BF801818560E0A6
:101180000E948B1BF801808561E00E948B1BF80197
:10119000818561E00E948B1B1F910F9108950F9331
:1011A0001F938C01FC01808561E00E948B1BF8017C
:1011B000818561E00E948B1BF801818560E00E94BF
:1011C0008B1BF801808560E00E948B1B1F910F91A3
:1011D00008950F931F938C01E62FDC0112966C93F8
:1011E0001297F0E0EE0FFF1FE85EFE4F818111962F
:1011F0008C93119790819C9318968C9318971996BD
:101200009C9361E00E944C1BF801818561E00E9483
:101210004C1B80E4D80114968C93149780EC15969F
:101220008C9315978AE816968C931F910F910895C9
:10123000FF920F931F93CF93DF93EC01162FFF24A0
:10124000888560E00E948B1B012F112707FD1095F8
:1012500000FF03C0898561E002C0898560E00E94CB
:101260008B1B888561E00E948B1BF39488E0F81645
:1012700021F015950795102FE3CF888560E00E9437
:101280008B1B898561E00E948B1B888561E00E9431
:101290008B1B898560E00E944C1B0BC01F5F183CB4
:1012A00049F4898561E00E944C1B898560E00E94B9
:1012B0008B1B10E089850E94DF1B892B79F78985BC
:1012C00061E00E944C1BDF91CF911F910F91FF9025
:1012D00008950F931F93DF93CF9300D000D0CDB725
:1012E000DEB78C0120E030E0AE014F5F5F4FFA01C6
:1012F000E20FF31FDB01A20FB31F8C9180832F5FDE
:101300003F4F2430310599F7DA019E012B5F3F4FA3
:10131000EC91EF3711F41C9207C0FF27E7FDF09521
:10132000EA5CFE4F80818C931196A217B30781F778
:10133000C8010E94CF08C80160E40E941809C801D2
:101340000E94B508C8010E94CF08C801F801658154
:101350000E941809C80169810E941809C8016A81A0
:101360000E941809C8016B810E941809C8016C818C
:101370000E941809C8010E94B508C8010E94CF0840
:10138000C801F80166810E941809C8010E94B508C9
:101390000F900F900F900F90CF91DF911F910F91B1
:1013A00008952F923F924F925F926F927F929F92F9
:1013B000AF92BF92CF92DF92EF92FF920F931F9363
:1013C000DF93CF9300D000D0CDB7DEB73C017A01D8
:1013D0008B0119821A821B821C82CB01BA0120E088
:1013E00030E040E050E00E94F22287FD03C0AA24D2
:1013F000BB2409C017FB109517F9109580E289836B
:1014000031E0A32EB12CCC24DD24992423E0222E1C
:10141000312C2E010894411C511C91012C193D09BD
:10142000C301B801A7010E942B08181619063CF049
:1014300023E0C216D10439F09920B1F00EC023E0A8
:10144000C216D10441F4F201EA0DFB1D805F8083D6
:101450009924939406C099249394F201EA0DFB1DFC
:1014600080830894A11CB11C84E0A816B1043CF44C
:101470000894C11CD11C27E0C216D10471F6C30127
:10148000BE016F5F7F4F0E9469090F900F900F9010
:101490000F90CF91DF911F910F91FF90EF90DF9010
:1014A000CF90BF90AF909F907F906F905F904F9044
:1014B0003F902F9008950E94980E0895EF92FF920A
:1014C0000F931F93CF93DF93F82EE92EEB016F3F1D
:1014D000710519F014F0CFEFD0E08E018FEFC1301D
:1014E000D8071CF401E01FEF0BC0D7FD09C08F2DFA
:1014F0009E2D61E00E94140F8F2D9E2DBE010BC00A
:101500008F2D9E2D60E00E94140F66277727601BA9
:10151000710B8F2D9E2D0E94050FDF91CF911F9192
:101520000F91FF90EF90089560E00E94AA0E089539
:101530000895EF92FF920F931F93FC01E08CF18CC2
:10154000028D138DC801B70120E030E040E050E08B
:101550000E94F222882329F4E0E070E080E060E05D
:101560000AC0C801B70120E030E040E251E40E9427
:10157000F622E62F692F2E2F372F482F562FB9012D
:10158000CA011F910F91FF90EF900895EF92FF9283
:101590000F931F93CF93DF93FC01C0A1D1A120979C
:1015A00029F4E0E070E080E060E027C0668D778D90
:1015B000882777FD8095982F0E9491237B018C01CD
:1015C000BE01882777FD8095982F0E9491239B016B
:1015D000AC01C801B7010E94F6220E94CA2220E095
:1015E00030E044E353E40E94C6242AED3FE049E49E
:1015F00050E40E94F622E62F692F2E2F372F482F16
:10160000562FB901CA01DF91CF911F910F91FF9021
:10161000EF900895EF92FF920F931F93CF93DF9374
:10162000FC01C0A1D1A1209729F4E0E070E080E0A6
:1016300060E027C0648D758D882777FD8095982F91
:101640000E9491237B018C01BE01882777FD809544
:10165000982F0E9491239B01AC01C801B7010E9401
:10166000F6220E94CA2220E030E044E353E40E94C4
:10167000C6242AED3FE049E450E40E94F622E62F1A
:10168000692F2E2F372F482F562FB901CA01DF910E
:10169000CF911F910F91FF90EF900895EF92FF92DD
:1016A0001F93CF93DF93162F7A01E9018DE093E02A
:1016B00068E670E00E945C158DE093E0612F0E9467
:1016C000DE15019719F02CEE3FEF13C08DE093E08B
:1016D000B701AE010E94AD158C179D0719F02BEED6
:1016E0003FEF07C08DE093E061E00E940E16282FC7
:1016F00030E0C901DF91CF911F91FF90EF900895E5
:10170000DF93CF930F92CDB7DEB74983AE014F5F22
:101710005F4F21E030E00E944E0B0F90CF91DF91A0
:101720000895AF92BF92CF92DF92EF92FF920F9304
:101730001F937C016BE670E040E00E94800B5C012F
:10174000C7016AE170E041E00E94800B8C01C70193
:101750006BE170E048E00E94800B6C0160E070E09B
:101760008AE794E4F70126A537A540A951A90E946C
:10177000F62220E030E040E85FE30E942B220E9446
:1017800063239B01AC01C70169E170E0422F0E9415
:10179000800B0A0D1B1D0C0D1D1D080F191FC80104
:1017A0001F910F91FF90EF90DF90CF90BF90AF907F
:1017B0000895CF92DF92EF92FF920F931F93CF93F2
:1017C000DF93162F6A0179018DE093E068E670E0FF
:1017D0000E945C158DE093E0612F0E94DE15019759
:1017E00019F006EF1FEF35C08DE093E060E00E9436
:1017F0000E16082F10E00115110559F581E090E053
:101800000E94851A8DE093E068E670E0A70121E070
:1018100030E00E942E16C0E0D0E08DE093E00E9400
:101820006615892B69F0CE15DF0554F48DE093E041
:101830000E946F15F601EC0FFD1F80832196EDCFFE
:1018400081E090E00E94851ACE15DF0511F005EFCA
:101850001FEFC801DF91CF911F910F91FF90EF9083
:10186000DF90CF9008952F923F924F925F926F92A8
:101870007F928F929F92AF92BF92CF92DF92EF9220
:10188000FF920F931F93DF93CF93CDB7DEB762978D
:101890000FB6F894DEBF0FBECDBF9A8B898B0E9426
:1018A000F81989899A890E94910B892B09F0CCC17A
:1018B00049895A894E5C5F4F89899A896BE370E048
:1018C0002EE030E00E94D90B882309F0BDC1A98920
:1018D000BA89D2969C91D29780E0D3966C90D39798
:1018E0007724682A792A5D967C926E925C97D496CA
:1018F0009C91D49780E0D596AC90D597BB24A82A2C
:10190000B92A5F96BC92AE925E97D6969C91D69776
:1019100080E0D7962C90D7973324282A392A91969D
:101920003C922E929097DA967C91DA9760E0DB9663
:101930002C9130E0622B732B882777FD8095982FB0
:101940000E949123E989FA8922A133A144A155A1DA
:101950000E942B22A989BA892D913D914D915C91CC
:101960000E94F6226D837E838F839887E989FA89A6
:10197000608B718B828B938B74AD60E025AD30E012
:10198000622B732B882777FD8095982F0E949123D7
:10199000A989BA8996962D913D914D915C9199971F
:1019A0000E942B22E989FA89208131814281538169
:1019B0000E94F62269877A878B879C87A989BA89D2
:1019C00054966D937D938D939C935797DE967C915F
:1019D000DE9760E0DF962C9130E0622B732B882736
:1019E00077FD8095982F0E949123E989FA8922A595
:1019F00033A544A555A50E942B227B018C01A98902
:101A0000BA896D917D918D919C9120E030E040E804
:101A10005FE30E942C229B01AC01C801B7010E9428
:101A2000F6226D877E878F87988BE989FA89608F88
:101A3000718F828F938F882477FC8094982CC401B7
:101A4000B3010E9491233B014C01CC24B7FCC0940C
:101A5000DC2CC601B5010E94912369837A838B83B4
:101A60009C839B01AC010E94C6247B018C01442411
:101A700037FC4094542CC201B1010E9491239B0178
:101A8000AC010E94C6245B016C01C801B701A6012C
:101A900095010E942C220E9479259B01AC01C40172
:101AA000B3010E949F221B012C01C401B301A401B8
:101AB00093010E94C6249B01AC01CA01A6019501B5
:101AC0000E942C220E9479259B01AC0169817A81B8
:101AD0008B819C810E949F223B014C016D817E8104
:101AE0008F819885A989BA899E962D913D914D91B6
:101AF0005C91D1970E94F6229B01AC01E989FA8999
:101B000064817581868197810E942C227B018C01E2
:101B1000A989BA8914966D937D938D939C93179799
:101B200069857A858B859C859E962D913D914D91F9
:101B30005C91D1970E94F6229B01AC01E989FA8958
:101B400060857185828593850E942B225B016C01E3
:101B5000A989BA8918966D937D938D939C931B9751
:101B60006D857E858F8598899E962D913D914D91AD
:101B70005C91D1970E94F6229B01AC01E989FA8918
:101B800064857585868597850E942C22A989BA89E6
:101B90001C966D937D938D939C931F97C801B701FD
:101BA0002FE832EC45E75FE30E94C6247B018C01FD
:101BB000C401B30120E030E044E353E40E94C624B2
:101BC0002BED3FE049E450E40E94F6222AE037ED95
:101BD00043E25DE30E94C6249B01AC01C801B7014A
:101BE0000E942C22E989FA8964837583868397830E
:101BF000C601B5012FE832EC45E75FE30E94C62439
:101C00007B018C01C201B10120E030E044E353E4E8
:101C10000E94C6242BED3FE049E450E40E94F622E6
:101C20002AE037ED43E25DE30E94C6249B01AC014C
:101C3000C801B7010E942C22A989BA8918966D9310
:101C40007D938D939C931B9762960FB6F894DEBF9D
:101C50000FBECDBFCF91DF911F910F91FF90EF90FD
:101C6000DF90CF90BF90AF909F908F907F906F90BC
:101C70005F904F903F902F900895FC0184811482D3
:101C80000895EF92FF921F93CF93DF937C01FC01A5
:101C900081810E94DF1B892B11F010E01AC010E037
:101CA000C0E0D0E085E690E00E94851AF7018181CE
:101CB0000E94DF1B0C2E02C0880F991F0A94E2F7C6
:101CC000182B2196C830D10569F785E690E00E946F
:101CD000851A812FDF91CF911F91FF90EF9008958A
:101CE000CF93DF93EC010E94410E18161CF020E008
:101CF00030E003C08C8321E030E0C901DF91CF9157
:101D000008950F931F93182F092F0E94C60E882342
:101D100011F490E006C0812F902F0E944E0F91E0A9
:101D20009827892F1F910F9108950E94980E08956A
:101D3000FC018091180180838091190181831282B6
:101D40000895FC018091180180838091190181839D
:101D500012820895DC01E62FF0E0EE0FFF1FE85E2F
:101D6000FE4F80818C93818111968C9311971296EE
:101D70006C9381E0809380008BE08093810083E00E
:101D80008093B00084E08093B1000895FC018281CB
:101D90000895FC0183810895DC01E62FF0E0EE0F49
:101DA000FF1FE85EFE4F80818C93818111968C939A
:101DB000119712966C930895DC01E62FF0E0EE0F78
:101DC000FF1FE85EFE4F80818C93818111968C937A
:101DD000119712966C93129713964C930895FC01E9
:101DE00080810895FC0181810895E62FF0E0413063
:101DF00031F4EE0FFF1FE85EFE4F80810895EE0F75
:101E0000FF1FE85EFE4F81810895FC0180810E94E2
:101E1000EC1A0895FC0181810E94CA1A0895FC0100
:101E200080810E94CA1A0895FF920F931F938C011C
:101E3000F62EFC01818161E00E944C1BF80181813A
:101E40006F2D0E948B1B1F910F91FF900895FF92A1
:101E50000F931F938C01F62EFC01808161E00E949C
:101E60004C1BF80180816F2D0E948B1B1F910F91DD
:101E7000FF9008950F931F938C01FC01818160E016
:101E80000E944C1BF80181810E94DF1B20E0892BFE
:101E900009F021E0822F1F910F9108950F931F9356
:101EA0008C01FC01808160E00E944C1BF801808164
:101EB0000E94DF1B20E0892B09F021E0822F1F9177
:101EC0000F910895FC01848108950F93DC01522F36
:101ED000262F30E014968D919C911597281739077D
:101EE00010F080E01BC083E0689F802D112490E0FB
:101EF0001696ED91FC911797E80FF91F50831696EF
:101F0000ED91FC911797E80FF91F41831696ED911B
:101F1000FC911797E80FF91F028381E00F91089554
:101F2000CF93DF93FC01C681D781848195819C0189
:101F3000220F331F280F391F9485A085B1855FB705
:101F4000F8948C91492F40954823982B11C0899182
:101F500068E09C9300C087FF4C93880F00C000C0CE
:101F600000C008F44C9300C06A9599F721503040A6
:101F70002115310561F75FBFDF91CF910895089575
:101F8000CF93DF93EC0170E07D836C83CB01880FEE
:101F9000991F860F971F0E947B188E839F8340E0B6
:101FA00050E007C0EE81FF81E40FF51F10824F5F04
:101FB0005F4F2C813D81C901880F991F820F931FAC
:101FC0004817590778F3DF91CF910895DC01E62F88
:101FD00012966C931297F0E0EE0FFF1FE85EFE4F33
:101FE000818111968C93119790819C93282F30E0DA
:101FF000F901E75BFE4FE4911C96EC931C972B5C78
:102000003E4FF901249130E0220F331FF901EF5DBB
:10201000FE4F4591549119965C934E931897F90190
:10202000E95EFE4F259134911B963C932E931A97AF
:1020300061E00E944C1B08950F931F938C0160E098
:102040000E94AA0EC80160E10E94C00F1F910F916B
:102050000895CF93DF93DC0115964C931597169650
:102060001C921697EC01FC0120E030E081899289F6
:102070006817790739F02F5F3F4F329628303105C6
:10208000A9F71BC020E030E089899A896817790791
:1020900041F02F5F3F4F229628303105A9F72FEFEF
:1020A0003FEFC901880F991F820F931F83968A0FF4
:1020B0009B1F642F70E00E94B013DF91CF910895B1
:1020C000EF92FF920F931F93CF93DF93EC018B015D
:1020D0007C01FC0120E030E0818992890817190712
:1020E00089F02F5F3F4F329628303105A9F75AC04B
:1020F000FC01EE0FFF1FEC0FFD1F128B018B0196F1
:102100009AA389A3FE0120E030E081899289081713
:10211000190739F02F5F3F4F329628303105A9F764
:1021200048C081E08C83802F61E00E944C1BFE013F
:1021300020E030E0818992890817190741F02F5F6C
:102140003F4F329628303105A9F72FEF3FEFC901F5
:10215000880F991F820F931F83968C0F9D1F0E94DB
:102160009E13882331F520E030E0F70181899289C0
:102170000817190759F02F5F3F4F82E090E0E80EF3
:10218000F91E2830310589F72FEF3FEFC901880F7D
:10219000991F820F931F83968C0F9D1FB8010E9479
:1021A000971407C089A19AA1883091050CF0AACF95
:1021B0009FCFDF91CF911F910F91FF90EF900895E6
:1021C000EF92FF920F931F93CF93DF938C010E94A6
:1021D000980EB3E2EB2EF12CE00EF11EC0E0D0E041
:1021E000C7018C0F9D1F0E9448132396C831D1054B
:1021F000B9F7F8011482108617828AE590E0968379
:1022000085830E94061AF8016387748785879687FD
:10221000108A178612A211A2DF91CF911F910F9100
:10222000FF90EF9008951F93CF93DF93EC01142F4D
:102230000E94DC0E123011F4E98101C0E8812E2FDA
:1022400030E0C901875B9E4FFC0184918C832B5C3D
:102250003E4FF9018491E82FF0E0EE0FFF1FE55D9E
:10226000FE4F859194919E838D83DF91CF911F9135
:1022700008950E94980E0895DF92EF92FF920F93B7
:102280001F93FC01E08001811281F894F8018181A3
:102290008E2981838281DE2CD0948D21828383E0FC
:1022A00090E00E94851AF80181818D2181838281CD
:1022B0008E2982838AE090E00E94851AF8010081CD
:1022C000789485E390E00E94851A80E010E0FF2476
:1022D0000E211F21012B09F081E01F910F91FF902A
:1022E000EF90DF900895EF92FF920F931F93CF939B
:1022F000DF937C0101E010E0C0E0D0E0C7010E9464
:102300003C118111102B000F2196C830D105B1F777
:10231000812FDF91CF911F910F91FF90EF90089542
:102320001F93CF93DF93FC011081C181D281912F44
:10233000909560FF12C0F8948A8189238A838981ED
:10234000812B89838AE090E00E94851A8A81812B03
:102350008A83789487E390E011C0F8948A81892376
:102360008A838981812B898381E490E00E94851A88
:102370008A81812B8A83789485E090E00E94851A77
:10238000DF91CF911F910895CF92DF92EF92FF924C
:102390000F931F93CF93DF93EC01E42EFF24F3946C
:1023A00000E010E0C62EDD2460E08F2D90E08C214F
:1023B0009D21892B09F061E0CE010E949011FF0C54
:1023C0000F5F1F4F0830110579F7EE20B1F4F89434
:1023D000E981FA8191818881809598239183E981AF
:1023E000FA8182819881892B8283E981FA819281A5
:1023F00088818095982392837894DF91CF911F9163
:102400000F91FF90EF90DF90CF9008956CEC40E03B
:102410000E94C4110895DF92EF92FF920F931F93D1
:10242000CF93DF93FC010081C181D281F89489812F
:10243000D02ED0948D2189838A81802B8A837894B1
:102440001DE7E02EFF24115071F182E090E00E9420
:10245000851A888190E08E219F21892BA1F3F89421
:102460008A818D218A838981802B8983789480EE6B
:1024700091E00E94851AF89489818D2189838A814F
:10248000802B8A8386E490E00E94851A888110E080
:1024900090E0E822F922EF2809F411E078948AE923
:1024A00091E00E94851A812FDF91CF911F910F91AA
:1024B000FF90EF90DF900895EF92FF920F931F939C
:1024C000FC01E08001811281F80181819E2D9095AF
:1024D0008923818382818E2982838AE090E00E9411
:1024E000851AF801808120E090E0FF248E219F2151
:1024F000892B09F021E0822F1F910F91FF90EF901F
:102500000895AF92BF92CF92DF92EF92FF920F9316
:102510001F93DF93CF93CDB7DEB72C970FB6F89408
:10252000DEBF0FBECDBF74E0E72EF12CE80EF91E22
:10253000C7010E940B12C7010E940612C70164E482
:1025400040E00E94C4110E94F8195B016C01C701B0
:102550000E945C128823C1F50E94F8196A197B0950
:102560008C099D096E5E72408040904068F5EFCF07
:10257000C7010E947311F80181938F01EC15FD05CD
:10258000B9F77A8160E0298130E0622B732B8827CC
:1025900077FD8095982F0E94912320E030E040E85D
:1025A0005DE30E94C6242C960FB6F894DEBF0FBEE2
:1025B000CDBFCF91DF911F910F91FF90EF90DF90F2
:1025C000CF90BF90AF900895C7010E940B12C70132
:1025D0000E940612C7016EEB40E00E94C4118E01FA
:1025E0000F5F1F4F66E0C62ED12CCC0EDD1EC0CF74
:1025F000CF92DF92EF92FF920F931F938C016A01AB
:102600007B0160E00E94140F82E090E00E94851A36
:10261000C80161E00E94140F8AE090E00E94851AD0
:10262000C80160E00E94140FF801818160E00E94FF
:102630004C1BF801818161E0A70196010E94321CC8
:102640001F910F91FF90EF90DF90CF90089527E3B7
:1026500030E0629FA001639F500D729F500D1124C6
:1026600048535F4F60E070E00E94F8120E9491238F
:1026700020E030E048E652E40E94F622089560E946
:1026800071E00E942713089560E00E94AA0E089549
:10269000FC018091A1028C3090F480838F5F809345
:1026A000A102815090E0FC01EE0FFF1FE80FF91F1F
:1026B000EE55FD4F88EB9BE09283818308958FEF69
:1026C00080830895FC0120812C30B8F58181992701
:1026D00087FD909548E850E0481B590B440F551F63
:1026E000440F551F6417750784F08281992787FD71
:1026F000909548E552E0481B590B440F551F440F75
:10270000551F641775070CF4AB0142505040CA01C5
:10271000AA2797FDA095BA2F880F991FAA1FBB1F44
:102720004FB7F89430E0F901EE0FFF1FE20FF31FEF
:10273000EE55FD4F928381834FBF0895FC01808148
:1027400090E0FC01EE0FFF1FE80FF91FEE55FD4F63
:102750008081829586958695817009F081E0089543
:10276000AF92BF92CF92DF92EF92FF920F931F939F
:10277000CF93DF93EC019B0182E0603278070CF08D
:1027800048C077FF03C020E030E005C0653B71051D
:1027900014F024EB30E000D000D0B901882777FD99
:1027A0008095982F2981332727FD3095E8E8AE2EB4
:1027B000B12CA21AB30AAA0CBB1CAA0CBB1CCC24B9
:1027C000B7FCC094DC2CEA81FF27E7FDF09528E5F3
:1027D00032E02E1B3F0B220F331F220F331F4427E3
:1027E00037FD4095542FEDB7FEB7218332834383E5
:1027F000548320E030E040E050E004EBE02EF12C88
:10280000012D112D0E94E2219B010F900F900F903E
:102810000F90CE01B9010E946213DF91CF911F91F9
:102820000F91FF90EF90DF90CF90BF90AF90089501
:10283000CF92DF92EF92FF921F93CF93DF93EC0141
:10284000162F7A01690188818C3008F064C0862FC8
:1028500061E00E944C1B888190E0FC01EE0FFF1F9D
:10286000E80FF91FEE55FD4F1F738081807C812B8F
:10287000808380E292E08E199F0964E070E00E94FC
:10288000D726698380E699E08C199D0964E070E0A1
:102890000E94D7266A83A8818A2F6CE00E94CB26EB
:1028A000682F70E0AB01440F551F460F571F440FB0
:1028B000551F440F551F20E030E0C901840F951FBC
:1028C000FC01EE0FFF1FE80FF91FEE55FD4F808151
:1028D00086FD15C02F5F3F4F2C30310571F724C0A6
:1028E0001092800082E08093810010928500109207
:1028F0008400B19A80916F00826080936F008A2F6C
:1029000090E0FC01EE0FFF1FE80FF91FEE55FD4FA1
:102910008081806480838881DF91CF911F91FF90B7
:10292000EF90DF90CF900895672BD1F2E8CF40E28F
:1029300052E020E639E00E94181408951F920F9289
:102940000FB60F9211242F933F934F935F936F9382
:102950007F938F939F93AF93BF93EF93FF93809158
:10296000C60287FF05C010928500109284002BC01C
:102970002091C602332727FD30958091A10290E077
:102980002817390704F58091C602992787FD90958D
:10299000FC01EE0FFF1FE80FF91FEE55FD4F808180
:1029A00086FF11C08091C602992787FD9095FC0192
:1029B000EE0FFF1FE80FF91FEE55FD4F80818F735B
:1029C00060E00E948B1B8091C6028F5F8093C602DD
:1029D0002091C602332727FD30958091A10290E017
:1029E000281739070CF04EC08091C6028C300CF0CD
:1029F00049C020918400309185008091C6029927BA
:102A000087FD9095FC01EE0FFF1FE80FF91FEE55B3
:102A1000FD4F81819281280F391F309389002093C7
:102A200088008091C602992787FD9095FC01EE0FE2
:102A3000FF1FE80FF91FEE55FD4F808186FF2BC069
:102A40008091C602992787FD9095FC01EE0FFF1F2C
:102A5000E80FF91FEE55FD4F80818F7361E00E94F2
:102A60008B1B19C080E49CE905C080918400909183
:102A70008500049690938900809388008FEF80935F
:102A8000C60209C08091840090918500049680540C
:102A90009C4940F3EACFFF91EF91BF91AF919F9195
:102AA0008F917F916F915F914F913F912F910F90F7
:102AB0000FBE0F901F90189581E080930C036093D8
:102AC000E90210920A0310920B0308952091E80284
:102AD00030E08091E702281B3109C9010895409137
:102AE000E7028091E802481718F02FEF3FEF0AC085
:102AF000E42FF0E0E953FD4F8081282F30E04F5F55
:102B00004093E702C9010895E091E7028091E8024D
:102B1000E81718F0EFEFFFEF06C0F0E0E953FD4FC4
:102B20008081E82FF0E0CF010895089510921003FE
:102B300010920F0388EE93E0A0E0B0E080931103C1
:102B400090931203A0931303B09314038BE591E0C9
:102B500090930E0380930D030895CF92DF92EF922E
:102B6000FF920F931F93CF93DF937C016B018A0138
:102B700080910C038823A1F0C0E0D0E00DC0D70104
:102B8000ED91FC91D601AC0FBD1F0190F081E02DBD
:102B9000C7016C9109952196C017D10780F304C035
:102BA000CB01642F0E94CF16C801DF91CF911F91F6
:102BB0000F91FF90EF90DF90CF900895DF93CF9328
:102BC0000F92CDB7DEB7FC01698380910C03882397
:102BD000C9F080910B03803238F081E090E093835C
:102BE000828320E030E015C080910A03E82FF0E0F6
:102BF000E651FD4F998190838F5F80930A03809304
:102C00000B0305C0CE01019661E00E94CF1621E0C2
:102C100030E0C9010F90CF91DF9108950F93062FF7
:102C20008091E9026AEE72E040910B0321E00E947C
:102C30007A1610920A0310920B0310920C030F9154
:102C40000895413208F040E2862F67EC72E00E945E
:102C500031161092E7028093E80208950E9421162F
:102C60000895382F413210F040E042C0809119039E
:102C70008823E1F791E09093190320931B038FEFD2
:102C800080938603109241034150409342034F5F6B
:102C900090931A0380911A03330F832B80931A03A6
:102CA00080911C03813041F410921C0380911A031F
:102CB0008093BB0085EC01C085EE8093BC008091C1
:102CC00019038130E1F380914103841710F440919E
:102CD000410320E030E00AC0FB01E20FF31FD901FD
:102CE000AF5DBC4F8C9180832F5F3F4F2417A0F3C3
:102CF000842F08950F931F93582F122F413210F0F5
:102D000081E04AC0809119038823E1F782E0809333
:102D1000190300931B038FEF8093860310924103E6
:102D200040934203A1E2B3E0FB0102C081918D9385
:102D30008E2F861B8417D0F310921A0380911A03EA
:102D4000550F852B80931A0380911C03813041F429
:102D500010921C0380911A038093BB0085EC01C084
:102D600085EE8093BC00112321F0809119038230FD
:102D7000E1F3809186038F3F11F480E00DC08091D4
:102D80008603803211F482E007C08091860380338D
:102D900011F084E001C083E01F910F910895482F46
:102DA000613210F081E0089580911903843011F0B0
:102DB00082E0089560936403A3E4B3E0842F9C0150
:102DC000F90102C081918D938E2F841B8617D0F359
:102DD00080E008951F920F920FB60F9211242F9347
:102DE0003F934F935F936F937F938F939F93AF9393
:102DF000BF93EF93FF938091B90090E0887F90702C
:102E00008036910509F4F2C081369105CCF58832FF
:102E1000910509F47BC089329105B4F480319105A4
:102E200009F46FC0813191053CF4009709F447C162
:102E3000089709F04FC165C08831910509F466C053
:102E4000809709F047C182C08034910509F4A4C07D
:102E50008134910544F48033910509F482C0C89708
:102E600009F038C189C08035910509F489C08835D9
:102E7000910509F496C08834910509F02BC1AEC0C4
:102E80008839910509F413C189399105ECF4883723
:102E9000910509F4ABC0893791054CF4883691054A
:102EA00009F4A4C08037910509F014C19FC0883887
:102EB000910509F4FCC08039910509F49DC0803862
:102EC000910509F007C198C0803B910509F4C6C07F
:102ED000813B91054CF4803A910509F49FC0883AF2
:102EE000910509F0F7C0BAC0803C910509F4E3C030
:102EF000883C910509F4DFC0883B910509F0EAC0E0
:102F0000C2C080911A038093BB00CFC0909141034F
:102F100080914203981768F490914103E92FF0E003
:102F2000EF5DFC4F80818093BB009F5F90934103D6
:102F3000BCC080911B03882309F44BC085ED8093AE
:102F4000BC008091BC0084FDFCCFC2C080E28093B5
:102F5000860385ED8093BC008091BC0084FDFCCF8E
:102F6000B7C080E38093860385ED8093BC00809199
:102F7000BC0084FDFCCFACC088E3809386039BC07B
:102F8000809141039091BB00E82FF0E0EF5DFC4F92
:102F900090838F5F8093410390914103809142031E
:102FA00082C0809141039091BB00E82FF0E0EF5D7B
:102FB000FC4F90838F5F8093410380911B03882394
:102FC00041F085ED8093BC008091BC0084FDFCCF76
:102FD0007FC081E080931C0384EA6EC085ED8093FE
:102FE000BC008091BC0084FDFCCF72C083E0809364
:102FF00019031092850359C080918503803208F02F
:1030000056C0809185039091BB00E82FF0E0EB590A
:10301000FC4F90838F5F8093850347C08091850329
:10302000803230F4E0918503F0E0EB59FC4F1082E0
:1030300085ED8093BC008091BC0084FDFCCF109294
:10304000190360918503E0911F03F091200385E649
:1030500093E070E00995109285032DC084E0809381
:1030600019031092630310926403E0911D03F09121
:103070001E03099580916403882329F481E08093DD
:1030800064031092430390916303E92FF0E0ED5B3A
:10309000FC4F80818093BB009F5F9093630390916E
:1030A000630380916403981710F485EC01C085E8F0
:1030B0008093BC000FC085EC8093BC0009C01092C7
:1030C000860385ED8093BC008091BC0084FDFCCF1D
:1030D00010921903FF91EF91BF91AF919F918F9142
:1030E0007F916F915F914F913F912F910F900FBE04
:1030F0000F901F9018950F931F93CF93DF93BC01F0
:103100008230910510F462E070E0E0915104F0919A
:10311000520440E050E0A0E0B0E024C08081918102
:1031200086179707D0F08617970771F482819381ED
:10313000109729F013969C938E9312972CC090931E
:1031400052048093510427C04115510519F084178A
:10315000950718F48D01AC01EF01DF0182819381A5
:103160009C01F9013097D1F641155105F9F0CA01DA
:10317000861B970B8430910580F48A819B81011511
:10318000110521F0F8019383828304C090935204C7
:1031900080935104FE01329645C0FE01E80FF91FED
:1031A000619371930297998388833CC080914F0407
:1031B00090915004892B41F480913001909131011C
:1031C0009093500480934F04409132015091330109
:1031D0004115510541F44DB75EB780912E01909194
:1031E0002F01481B590B20914F0430915004241794
:1031F0003507B0F4CA01821B930B8617970780F03E
:10320000AB014E5F5F4F8417950750F0420F531F7D
:103210005093500440934F04F9016193719302C09D
:10322000E0E0F0E0CF01DF91CF911F910F91089581
:10323000CF93DF939C01009709F48FC0EC01229794
:103240001B821A82609151047091520461157105BC
:1032500081F488819981820F931F20914F043091CE
:1032600050042817390739F5D0935004C0934F0400
:1032700074C0DB0140E050E0AC17BD0708F1BB8330
:10328000AA83FE0121913191E20FF31FAE17BF0710
:1032900079F48D919C911197280F391F2E5F3F4F24
:1032A0003983288312968D919C9113979B838A83EF
:1032B0004115510571F4D0935204C09351044DC08F
:1032C00012968D919C911397AD01009711F0DC013E
:1032D000D3CFDA011396DC93CE931297FA012191A2
:1032E0003191E20FF31FCE17DF0769F488819981CE
:1032F000280F391F2E5F3F4FFA01318320838A81C7
:103300009B8193838283E0E0F0E0DB0112968D9154
:103310009C911397009719F0BC01FD01F6CFAB010A
:103320004E5F5F4FDB018D919C91840F951F209123
:103330004F04309150042817390779F4309729F455
:10334000109252041092510402C013821282425011
:1033500050405093500440934F04DF91CF91089513
:103360001F920F920FB60F9211242F933F938F93BA
:103370009F93AF93BF9380918B0390918C03A09107
:103380008D03B0918E0330918F030196A11DB11D65
:10339000232F2D5F2D3720F02D570196A11DB11D34
:1033A00020938F0380938B0390938C03A0938D03C2
:1033B000B0938E038091870390918803A091890335
:1033C000B0918A030196A11DB11D8093870390934C
:1033D0008803A0938903B0938A03BF91AF919F9113
:1033E0008F913F912F910F900FBE0F901F901895C6
:1033F0008FB7F89420918B0330918C0340918D030B
:1034000050918E038FBFB901CA0108959FB7F894F8
:1034100020918703309188034091890350918A035A
:1034200086B5A89B06C08F3F21F02F5F3F4F4F4FBF
:103430005F4F9FBF542F432F322F2227280F311D5C
:10344000411D511D82E0220F331F441F551F8A95D5
:10345000D1F7B901CA0108959B01AC017FB7F89477
:103460008091870390918803A0918903B0918A038A
:1034700066B5A89B05C06F3F19F00196A11DB11D4F
:103480007FBFBA2FA92F982F8827860F911DA11DC6
:10349000B11D62E0880F991FAA1FBB1F6A95D1F763
:1034A000BC012DC0FFB7F8948091870390918803E9
:1034B000A0918903B0918A03E6B5A89B05C0EF3FB0
:1034C00019F00196A11DB11DFFBFBA2FA92F982F8A
:1034D00088278E0F911DA11DB11DE2E0880F991F55
:1034E000AA1FBB1FEA95D1F7861B970B885E9340F6
:1034F000C8F2215030404040504068517C4F211567
:1035000031054105510571F60895019739F0880F8D
:10351000991F880F991F02970197F1F708957894E2
:1035200084B5826084BD84B5816084BD85B58260C8
:1035300085BD85B5816085BDEEE6F0E08081816066
:103540008083E1E8F0E01082808182608083808166
:1035500081608083E0E8F0E0808181608083E1EB3E
:10356000F0E0808184608083E0EBF0E08081816026
:103570008083EAE7F0E080818460808380818260DC
:1035800080838081816080838081806880831092C5
:10359000C1000895982F8E3008F09E50977080914A
:1035A00034018295880F880F807C892B80937C0062
:1035B00080917A00806480937A0080917A0086FD01
:1035C000FCCF2091780040917900942F80E030E08A
:1035D000282B392BC90108951F93CF93DF93182F00
:1035E000EB0161E00E944C1B209709F44AC0CF3FD9
:1035F000D10509F449C0E12FF0E0E35AFE4F849170
:103600008330C1F0843028F4813051F08230B1F53C
:103610000CC0863019F1873049F1843079F514C037
:1036200084B5806884BDC7BD33C084B5806284BD65
:10363000C8BD2EC080918000806880938000D093A8
:103640008900C093880024C08091800080628093AC
:103650008000D0938B00C0938A001AC08091B00084
:1036600080688093B000C093B30012C08091B00016
:1036700080628093B000C093B4000AC0C038D10506
:103680001CF4812F60E002C0812F61E00E948B1B3F
:10369000DF91CF911F910895CF93DF93482F50E092
:1036A000CA01875B9E4FFC0134914B5C5E4FFA016F
:1036B0008491882369F190E0880F991FFC01E95EED
:1036C000FE4FA591B491FC01EF5DFE4FC591D491E1
:1036D000662351F42FB7F8948C91932F90958923FA
:1036E0008C93888189230BC0623061F42FB7F894E2
:1036F0008C91932F909589238C938881832B888339
:103700002FBF06C09FB7F8948C91832B8C939FBFDB
:10371000DF91CF910895482F50E0CA01835A9E4F00
:10372000FC012491CA01875B9E4FFC0194914B5C84
:103730005E4FFA013491332309F440C0222351F142
:10374000233071F0243028F42130A1F0223011F51B
:1037500014C02630B1F02730C1F02430D9F404C0B1
:10376000809180008F7703C0809180008F7D80934F
:10377000800010C084B58F7702C084B58F7D84BD72
:1037800009C08091B0008F7703C08091B0008F7D19
:103790008093B000E32FF0E0EE0FFF1FEF5DFE4FD0
:1037A000A591B4912FB7F894662321F48C9190954C
:1037B000892302C08C91892B8C932FBF0895682F89
:1037C00070E0CB01835A9E4FFC012491CB01875BB3
:1037D0009E4FFC0144916B5C7E4FFB0194919923B9
:1037E00019F420E030E03CC0222351F1233071F085
:1037F000243028F42130A1F0223011F514C02630F5
:10380000B1F02730C1F02430D9F404C08091800099
:103810008F7703C0809180008F7D8093800010C0DF
:1038200084B58F7702C084B58F7D84BD09C0809137
:10383000B0008F7703C08091B0008F7D8093B0007F
:10384000892F90E0880F991F855D9E4FFC01A591FF
:10385000B4918C9120E030E0842311F021E030E03D
:10386000C90108958F929F92AF92BF92CF92DF923B
:10387000EF92FF920F931F93CF93DF93A82FB0E0A7
:10388000CD01875B9E4FFC018490AB5CBE4FFD0178
:103890008491662311F4992401C0982C6FEFA62E11
:1038A0006FEFB62E6FEFC62E6FE0D62EA222B32298
:1038B000C422D522682F70E0660F771F655D7E4FAA
:1038C000EE24FF248701FB01A591B4910BC0EA14FB
:1038D000FB040C051D0509F44EC00894E11CF11C05
:1038E000011D111D8C918821891589F30CC0EA14E2
:1038F000FB040C051D0509F43EC00894E11CF11CF5
:10390000011D111D03C0FB01A591B4918C9188216B
:10391000891569F720E030E040E050E0FB01C591F7
:10392000D4910FC0DA01C9018E0D9F1DA01FB11FD8
:103930008A159B05AC05BD05F1F02F5F3F4F4F4F3A
:103940005F4F88818821891569F3CA01B90125E192
:1039500030E040E050E00E94AC269B01AC01205FCB
:103960003F4F4F4F5F4F84E05695479537952795CA
:103970008A95D1F704C020E030E040E050E0B90182
:10398000CA01DF91CF911F910F91FF90EF90DF90CF
:10399000CF90BF90AF909F908F90089508951F9201
:1039A0000F920FB60F9211242F933F934F938F9343
:1039B0009F93EF93FF938091C00082FD1DC04091C3
:1039C000C6002091D0033091D1032F5F3F4F2F735A
:1039D00030708091D2039091D3032817390771F08A
:1039E000E091D003F091D103E057FC4F4083309336
:1039F000D1032093D00302C08091C600FF91EF91C4
:103A00009F918F914F913F912F910F900FBE0F90EB
:103A10001F901895E0912404F0912504E05CFF4F7D
:103A20008191919120813181821B930B8F739070D2
:103A3000892B11F00E94CE1C08951F920F920FB691
:103A40000F9211242F933F938F939F93EF93FF93A4
:103A5000209114043091150480911604909117045C
:103A60002817390731F48091C1008F7D8093C10000
:103A700014C0E0911604F0911704EC52FC4F208121
:103A8000809116049091170401968F739070909313
:103A90001704809316042093C600FF91EF919F9125
:103AA0008F913F912F910F900FBE0F901F901895FF
:103AB000AF92BF92DF92EF92FF920F931F93CF933B
:103AC000DF93EC017A018B01DD24403081EE580751
:103AD00080E0680780E0780711F0DD24D39491E05E
:103AE000A92EB12CEC89FD89DD2069F0C50108A063
:103AF00002C0880F991F0A94E2F7808360E079E0A2
:103B00008DE390E005C0108260E874E88EE190E0FB
:103B1000A80197010E94EA262150304040405040C1
:103B2000569547953795279580E12030380720F046
:103B3000DD2011F0DD24D6CFE889F9893083EA89C8
:103B4000FB89208319A2EE89FF89408121E030E0C2
:103B5000C9010C8C02C0880F991F0A94E2F7482B08
:103B60004083EE89FF894081C9010D8C02C0880F16
:103B7000991F0A94E2F7482B4083EE89FF89408120
:103B8000C9010E8C02C0880F991F0A94E2F7482BD6
:103B90004083EE89FF8980810F8C02C0220F331F82
:103BA0000A94E2F7209528232083DF91CF911F917B
:103BB0000F91FF90EF90DF90BF90AF900895DC01E0
:103BC0001C96ED91FC911D97E05CFF4F2191319186
:103BD00080819181281B390B2F733070C9010895A2
:103BE000DC011C96ED91FC911D97E05CFF4F20815C
:103BF0003181E054F040DF01AE5BBF4F8D919C916D
:103C000011972817390719F42FEF3FEF07C08D914F
:103C10009C91E80FF91F8081282F30E0C901089599
:103C2000DC011C96ED91FC911D97E05CFF4F20811B
:103C30003181E054F040DF01AE5BBF4F8D919C912C
:103C400011972817390719F42FEF3FEF10C08D9106
:103C50009C911197E80FF91F20818D919C911197EC
:103C600001968F73907011969C938E9330E0C901EA
:103C70000895DC0191968C919197882339F05496A0
:103C8000ED91FC915597808186FFF9CF91961C921A
:103C90000895CF93DF93EC01EE85FF85E05CFF4F45
:103CA00020813181E054F0402F5F3F4F2F733070FF
:103CB000DF01AE5BBF4F8D919C911197281739079B
:103CC000D1F3E05CFF4F80819181E054F040E80F38
:103CD000F91F6083EE85FF85E05CFF4F3183208311
:103CE000EE89FF89208181E090E00F8C02C0880F6F
:103CF000991F0A94E2F7282B208381E089A3EC899D
:103D0000FD8980818064808381E090E0DF91CF91A4
:103D1000089510921B0410921A0488EE93E0A0E01C
:103D2000B0E080931C0490931D04A0931E04B093F4
:103D30001F048BE691E0909319048093180480E9A6
:103D400093E0909325048093240484ED93E0909372
:103D500027048093260485EC90E0909329048093B7
:103D6000280484EC90E090932B0480932A0480EC48
:103D700090E090932D0480932C0481EC90E090933C
:103D80002F0480932E0482EC90E090933104809372
:103D9000300486EC90E0909333048093320484E006
:103DA0008093340483E08093350487E08093360465
:103DB00085E08093370481E0809338040895CF93A1
:103DC000DF930E948F1A0E940008CAE0DDE10E9482
:103DD00093072097E1F30E940A1DF9CFCF92DF925B
:103DE000EF92FF920F931F93CF93DF937C016B01B0
:103DF0008A01C0E0D0E00FC0D6016D916D01D701FE
:103E0000ED91FC910190F081E02DC7010995C80F5B
:103E1000D91F015010400115110571F7CE01DF9136
:103E2000CF911F910F91FF90EF90DF90CF90089569
:103E3000EF92FF920F931F938C01DC01ED91FC91A7
:103E40000190F081E02D6DE009957C01D801ED91A4
:103E5000FC910190F081E02DC8016AE009959C0178
:103E60002E0D3F1DC9011F910F91FF90EF900895F6
:103E7000813041F0813018F08230D1F409C01092C5
:103E80006E00089580916F008D7F80936F0008957C
:103E9000809170008D7F8093700081E08093B000EE
:103EA0008091B100887F84608093B1001092B3004C
:103EB00008951F93182F80913501811711F09FEFFE
:103EC00006C0E1E7F1E094918FEF80933501892FEF
:103ED0000E94381F812F60E00E948B1B1F91089564
:103EE0001F920F920FB60F9211242F933F934F936F
:103EF0005F936F937F938F939F93AF93BF93EF9352
:103F0000FF938091480490914904A0914A04B09194
:103F10004B040097A105B10551F1E0914C04F091DB
:103F20004D04808190914E048927808380914804BC
:103F300090914904A0914A04B0914B0418161906B7
:103F40001A061B06C4F48091480490914904A0917C
:103F50004A04B0914B040197A109B1098093480428
:103F600090934904A0934A04B0934B0404C08091F9
:103F700035010E94591FFF91EF91BF91AF919F9121
:103F80008F917F916F915F914F913F912F910F9002
:103F90000FBE0F901F9018952F923F925F926F92D5
:103FA0007F928F929F92AF92BF92CF92DF92EF92C9
:103FB000FF920F931F93DF93CF9300D000D0CDB724
:103FC000DEB7A82F1B0129833A834B835C83809142
:103FD00035018A1721F4E1E7F1E0549082C08F3F68
:103FE00009F0DAC1A0933501E1E7F1E054902FEF39
:103FF000521609F4D1C181E0581639F192E05916F0
:1040000009F449C0552009F06CC014BC15BC84B536
:10401000826084BD85B5816085BD2A2F30E0F901BD
:10402000EB5CFE4FE491F0E0EE0FFF1FEF5DFE4F03
:104030008591949190933F0480933E04275B3E4F7B
:10404000F9018491809340044EC010928000109238
:10405000810080918100886080938100809181003F
:104060008160809381002A2F30E0F901EB5CFE4FE4
:10407000E491F0E0EE0FFF1FEF5DFE4F859194910C
:104080009093460480934504275B3E4FF901849149
:104090008093470428C01092B0001092B100809124
:1040A000B00082608093B0008091B1008160809305
:1040B000B1002A2F30E0F901EB5CFE4FE491F0E013
:1040C000EE0FFF1FEF5DFE4F8591949190934D048D
:1040D00080934C04275B3E4FF901849180934E04FA
:1040E00002C057FC59C18A2F61E00E944C1B552029
:1040F00021F0F2E05F1609F0BEC031018824992456
:1041000060E072E18AE790E0A40193010E940C272D
:1041100059016A01860175010894E108F108010955
:1041200011092FEFE216F1040105110509F008F459
:1041300099C060E472E48FE090E0A40193010E94D2
:104140000C2779018A010894E108F1080109110995
:1041500082E05816C1F49FEFE916F104010511053C
:1041600009F008F484C060E970ED83E090E0A401F8
:1041700093010E940C2779018A010894E108F10853
:104180000109110983E0AFEFEA16F10401051105F9
:1041900009F008F468C068E478EE81E090E0A401DA
:1041A00093010E940C2779018A010894E108F10823
:1041B00001091109552011F483E01DC0B2E05B161E
:1041C00011F084E018C0EFEFEE16F10401051105BF
:1041D00009F008F4DFC064E274EF80E090E0A4012D
:1041E00093010E940C2779018A010894E108F108E3
:1041F0000109110985E0FFEFEF16F1040105110532
:1042000091F188F162E17AE780E090E0A401930106
:104210000E940C2779018A010894E108F10801093C
:104220001109552011F086E001C084E02FEFE2165D
:10423000F10401051105B9F0B0F0C601B50120E0A7
:1042400034E040E050E00E940C2779018A01089494
:10425000E108F10801091109552011F087E008C0B3
:1042600085E003C081E0552019F485BD3AC082E0A5
:104270008093B10036C05101CC24DD2460E072E1AE
:104280008AE790E0A60195010E940C2779018A0136
:104290000894E108F1080109110980E0E81680E0BE
:1042A000F80681E0080780E0180710F491E010C0DC
:1042B00068E478EE81E090E0A60195010E940C2769
:1042C00079018A010894E108F1080109110993E0D4
:1042D000A1E05A1631F480918100887F982B909349
:1042E000810089819A81AB81BC810097A105B105CC
:1042F00029F48FEF9FEFAFEFBFEF13C0220C331CF9
:10430000B10180E090E029813A814B815C810E947B
:10431000AC2628EE33E040E050E00E94EA26C901D6
:10432000DA01E1E05E16A1F0F2E05F1619F1552026
:1043300099F5E7BC80933A0490933B04A0933C0426
:10434000B0933D0480916E00826080936E0024C023
:10435000F0928900E0928800809341049093420497
:10436000A0934304B093440480916F0082608093D3
:104370006F0012C0E092B300809348049093490408
:10438000A0934A04B0934B048091700082608093A4
:10439000700002C084E06CCF0F900F900F900F90D0
:1043A000CF91DF911F910F91FF90EF90DF90CF9011
:1043B000BF90AF909F908F907F906F905F903F9055
:1043C0002F9008952F923F924F925F926F927F921B
:1043D0008F929F92AF92BF92CF92DF92EF92FF9215
:1043E0000F931F93DF93CF93CDB7DEB73B014C0103
:1043F00019012A016D897E898F89988D6A197B0937
:104400008C099D09621A730A840A950AA401930112
:104410000E94AC26E218F30804091509A8019701C7
:104420000E940C272A0D3B1D4C1D5D1DB901CA01C0
:10443000CF91DF911F910F91FF90EF90DF90CF9080
:10444000BF90AF909F908F907F906F905F904F90B4
:104450003F902F9008955058BB27AA270ED03AC2FC
:104460002BD230F030D220F031F49F3F11F41EF403
:10447000FBC10EF4E095E7FBC6C1E92F3CD280F307
:10448000BA17620773078407950718F071F49EF551
:104490006BC20EF4E0950B2EBA2FA02D0B01B901C3
:1044A00090010C01CA01A0011124FF27591B99F0AA
:1044B000593F50F4503E68F11A16F040A22F232FB6
:1044C000342F4427585FF3CF469537952795A79506
:1044D000F0405395C9F77EF41F16BA0B620B730BAD
:1044E000840BBAF09150A1F0FF0FBB1F661F771F1E
:1044F000881FC2F70EC0BA0F621F731F841F48F4D3
:10450000879577956795B795F7959E3F08F0B3CF58
:104510009395880F08F09927EE0F97958795089542
:10452000CBD158F080E891E009F49EEFCCD128F08F
:1045300040E851E059F45EEF09C096C115C2E92F79
:10454000E078D9D168F3092E052AC1F32617370779
:104550004807590738F00E2E07F8E02569F0E025E6
:10456000E0640AC0EF6307F8009407FADB01B901C1
:104570009D01DC01CA01AD01EF9347D0ABD10AD058
:104580005F91552331F02BED3FE049E450FD49ECBC
:1045900063CF0895DF93DD27B92FBF7740E85FE34E
:1045A0001616170648075B0710F4D92FE8D19F931A
:1045B0008F937F936F93E7D2E8E6F0E058D18AD1EA
:1045C0002F913F914F915F91EDD1DD2349F09058AC
:1045D000A2EA2AED3FE049EC5FE3D0785D274DDFAA
:1045E000DF9178C1ECD008F481E008950CD072C15D
:1045F0006AD140F061D130F021F45F3F19F003C17E
:104600005111B3C131C177D198F39923C9F355231F
:10461000B1F3951B550BBB27AA27621773078407B5
:1046200038F09F5F5F4F220F331F441FAA1FA9F36B
:1046300033D00E2E3AF0E0E830D091505040E6955D
:10464000001CCAF729D0FE2F27D0660F771F881FBE
:10465000BB1F261737074807AB07B0E809F0BB0BAD
:10466000802DBF01FF2793585F4F2AF09E3F5105D1
:1046700068F0C9C07AC15F3FECF3983EDCF38695E1
:1046800077956795B795F7959F5FC9F7880F911D47
:104690009695879597F90895E1E0660F771F881F33
:1046A000BB1F621773078407BA0720F0621B730BE6
:1046B000840BBA0BEE1F88F7E095089504D0689438
:1046C000B11153C108951FD188F09F5790F0B92FB1
:1046D0009927B751A0F0D1F0660F771F881F991F57
:1046E0001AF0BA95C9F712C0B13081F03DD1B1E0EE
:1046F00008953AC1672F782F8827B85F39F0B93FFE
:10470000CCF3869577956795B395D9F73EF4909558
:104710008095709561957F4F8F4F9F4F0895E894D6
:1047200009C097FB3EF490958095709561957F4FF9
:104730008F4F9F4F9923A9F0F92F96E9BB279395A7
:10474000F695879577956795B795F111F8CFFAF4B7
:10475000BB0F11F460FF1BC06F5F7F4F8F4F9F4FE8
:1047600016C0882311F096E911C0772321F09EE846
:10477000872F762F05C0662371F096E8862F70E0AC
:1047800060E02AF09A95660F771F881FDAF7880F86
:104790009695879597F90895D0D080F09F3740F48B
:1047A00091110EF0E2C060E070E080E89FEB0895A8
:1047B00026F41B16611D711D811D2BC045C0990F6C
:1047C0000008550FAA0BE0E8FEEF16161706E807DB
:1047D000F907C0F012161306E407F50798F0621BFC
:1047E000730B840B950B39F40A2661F0232B242BD1
:1047F000252B21F408950A2609F4A140A6958FEFF0
:10480000811D811D089597F99F6780E870E060E041
:104810000895882371F4772321F09850872B762F01
:1048200007C0662311F499270DC09051862B70E0C4
:1048300060E02AF09A95660F771F881FDAF7880FD5
:104840009695879597F908959F3F49F0915028F4E0
:10485000869577956795B7959F5F80389F4F880FAE
:104860009695879597F908959FEF80EC0895DF93CB
:10487000CF931F930F93FF92EF92DF927B018C01F6
:10488000689405C0DA2EEF018DD0FE01E894A59161
:104890002591359145915591AEF3EF01EEDDFE0185
:1048A0009701A801DA9479F7DF90EF90FF900F91CC
:1048B0001F91CF91DF91089500240A9416161706D0
:1048C00018060906089500240A9412161306140601
:1048D00005060895092E0394000C11F4882352F064
:1048E000BB0F40F4BF2B11F460FF04C06F5F7F4F1C
:1048F0008F4F9F4F089557FD9058440F551F59F003
:104900005F3F71F04795880F97FB991F61F09F3FBC
:1049100079F087950895121613061406551FF2CFE5
:104920004695F1DF08C0161617061806991FF1CF35
:1049300086957105610508940895E5DFA0F0BEE74E
:10494000B91788F4BB279F3860F41616B11D672F7E
:10495000782F8827985FF7CF869577956795B11D53
:1049600093959639C8F30895E894BB27662777276F
:10497000CB0197F9089523DF08F48FEF08959B0189
:10498000AC0160E070E080E89FE330CE0BD0A2CFB6
:1049900093DF28F098DF18F0952309F034CF64CF27
:1049A0001124E3CFA8DFA0F3959FD1F3950F50E03A
:1049B000551F629FF001729FBB27F00DB11D639FD1
:1049C000AA27F00DB11DAA1F649F6627B00DA11D77
:1049D000661F829F2227B00DA11D621F739FB00D1D
:1049E000A11D621F839FA00D611D221F749F33278D
:1049F000A00D611D231F849F600D211D822F762F26
:104A00006A2F11249F5750408AF0E1F088234AF022
:104A1000EE0FFF1FBB1F661F771F881F915050406E
:104A2000A9F79E3F510570F0EECE9FCF5F3FECF3AC
:104A3000983EDCF3869577956795B795F795E7955A
:104A40009F5FC1F7FE2B880F911D9695879597F96B
:104A50000895FA01EE0FFF1F30962105310599F1F7
:104A60006115710561F48038BFE39B0749F16894D3
:104A70009038810561F08038BFEF9B0741F09923A2
:104A800042F5FF3FE1053105210511F1E894089455
:104A9000E795D901AA2329F4AB2FBE2FF85FD0F3F5
:104AA00010C0FF5F70F4A695E0F7F73950F019F0E9
:104AB000FF3A38F49F779F930CD00F9007FC9058E3
:104AC00008953EF0D1CE60E070E080E89FE3089565
:104AD0004FE79F775F934F933F932F93CAD02F91C8
:104AE0003F914F915F9152DF56C011F40EF4BCCE4E
:104AF000ABCE09DFD0F39923D9F3CEF39F57550BF3
:104B000087FF75D056959795B0E020F4660F771F14
:104B1000881FBB1F1F930F9300249001A0018001E9
:104B2000F001A0E80E0F1F1F0A1E511D601B710B24
:104B30008009B50B48F4600F711F801DB51F0E1B57
:104B40001F0B0A0A510907C02E0F3F1F4A1F0E0FE5
:104B50001F1F0A1E511D660F771F881FBB1FA695BA
:104B6000F795E795F8F60617170708065B07211D66
:104B7000311D411D0F911F91B901842F9158880F4C
:104B80009695879508959B01AC0100CF19F40EF01E
:104B90003ACEEACE69CEB7DEC8F39638C0F707F84A
:104BA0000F92E8942BE33AEA48EB5FE7FDDE0F92C1
:104BB0000F920F924DB75EB70F929BD0E5E9F0E0F0
:104BC00056DE4F915F91EF91FF91E595EE1FFF1F2C
:104BD00049F0FE57E0684427EE0F441FFA95E1F7CD
:104BE0004195550B0DD00F9007FEC9CE08959150F9
:104BF0005040660F771F881FD2F7089504CE24CE49
:104C000082DEE8F39923D9F3940F511DBBF3915041
:104C1000504094F059F0882332F0660F771F881FB8
:104C200091505040C1F79E3F510544F7880F911DA8
:104C30009695879597F908955F3FACF0983E9CF064
:104C4000BB27869577956795B79508F4B1609395DE
:104C5000C1F7BB0F58F711F460FFE8CF6F5F7F4FCC
:104C60008F4F9F4FE3CF81CE0EF0EECDFDCD6894F8
:104C7000CACD49DEC8F39923D1F3C6F3DF93CF93AE
:104C80001F930F93FF92C92FDD2788232AF02197C6
:104C9000660F771F881FDAF720E030E040E85FEB0F
:104CA0009FE3883920F0803E30F021968F77D4DB67
:104CB000EDEBF0E003C0D0DBEAEEF0E0D8DD8B01F5
:104CC000BE01EC01FB2E6F5771097595771F880B9C
:104CD000990B27DD28E132E741E35FE363DEAF2D87
:104CE0009801AE01FF900F911F91CF91DF91C5DB2D
:104CF000F1CDFA01DC01AA0FBB1F9B01AC01BF572C
:104D000028F422273327442750781FC0B75188F44E
:104D1000AB2F0024469537952795011CA395D2F318
:104D2000002069F0220F331F441FB395DAF30DD032
:104D300092CB61307105A0E88A07B94630F49B0137
:104D4000AC016627772788279078309621F020835A
:104D50003183428353830895629FD001739FF00192
:104D6000829FE00DF11D649FE00DF11D929FF00DFB
:104D7000839FF00D749FF00D659FF00D9927729F32
:104D8000B00DE11DF91F639FB00DE11DF91FBD01BD
:104D9000CF0111240895991B79E004C0991F96173B
:104DA00008F0961B881F7A95C9F78095089597FBA0
:104DB000092E07260AD077FD04D049D006D000205E
:104DC0001AF4709561957F4F0895F6F79095819547
:104DD0009F4F0895A1E21A2EAA1BBB1BFD010DC017
:104DE000AA1FBB1FEE1FFF1FA217B307E407F5079B
:104DF00020F0A21BB30BE40BF50B661F771F881F77
:104E0000991F1A9469F760957095809590959B010C
:104E1000AC01BD01CF01089597FB092E05260ED0E8
:104E200057FD04D0D7DF0AD0001C38F450954095C8
:104E3000309521953F4F4F4F5F4F0895F6F790956E
:104E40008095709561957F4F8F4F9F4F0895AA1B56
:104E5000BB1B51E107C0AA1FBB1FA617B70710F065
:104E6000A61BB70B881F991F5A95A9F78095909597
:104E7000BC01CD010895EE0FFF1F0590F491E02DC8
:104E8000099411E0C8E7D1E004C0FE010E943D276B
:0C4E90002296CA37D107C9F7F894FFCF6B
:104E9C000E000F001000110012001300140015007A
:104EAC00D34D8A3F0000B442FFFF0B0A03090C0DDF
:104EBC000802FFFF1011140F150E060705048000E1
:104ECC005304000001FF3F065B4F666D7D077F6F4B
:104EDC00777C395E7971BF86DBCFE6EDFD87FFEF1E
:104EEC00F7FCB9DEF9F14000000000DE15AD1566E7
:104EFC00156F158415951500000000491EEE1EDF78
:084F0C001D101EF01D391E00EE
:00000001FF
